{
  "_format": "hh-sol-artifact-1",
  "contractName": "MarketPlace",
  "sourceName": "contracts/MarketPlace.sol",
  "abi": [
    {
      "inputs": [],
      "stateMutability": "nonpayable",
      "type": "constructor"
    },
    {
      "inputs": [
        {
          "internalType": "uint256",
          "name": "",
          "type": "uint256"
        }
      ],
      "name": "TradeItems",
      "outputs": [
        {
          "internalType": "uint256",
          "name": "_itemId",
          "type": "uint256"
        },
        {
          "internalType": "uint256",
          "name": "_tokenId",
          "type": "uint256"
        },
        {
          "internalType": "uint256",
          "name": "initialSupply",
          "type": "uint256"
        },
        {
          "internalType": "uint256",
          "name": "publicSupply",
          "type": "uint256"
        },
        {
          "internalType": "address",
          "name": "token",
          "type": "address"
        },
        {
          "internalType": "address",
          "name": "creator",
          "type": "address"
        },
        {
          "internalType": "uint256",
          "name": "price",
          "type": "uint256"
        },
        {
          "internalType": "string",
          "name": "uri",
          "type": "string"
        }
      ],
      "stateMutability": "view",
      "type": "function"
    },
    {
      "inputs": [
        {
          "internalType": "uint256",
          "name": "_tradeId",
          "type": "uint256"
        },
        {
          "internalType": "string",
          "name": "_time",
          "type": "string"
        }
      ],
      "name": "auctionEnd",
      "outputs": [],
      "stateMutability": "payable",
      "type": "function"
    },
    {
      "inputs": [
        {
          "internalType": "uint256",
          "name": "",
          "type": "uint256"
        }
      ],
      "name": "auctions",
      "outputs": [
        {
          "internalType": "uint256",
          "name": "_tradeId",
          "type": "uint256"
        },
        {
          "internalType": "address",
          "name": "beneficiary",
          "type": "address"
        },
        {
          "internalType": "uint256",
          "name": "auctionStart",
          "type": "uint256"
        },
        {
          "internalType": "uint256",
          "name": "biddingTime",
          "type": "uint256"
        },
        {
          "internalType": "address",
          "name": "highestBidder",
          "type": "address"
        },
        {
          "internalType": "uint256",
          "name": "highestBid",
          "type": "uint256"
        },
        {
          "internalType": "bool",
          "name": "ended",
          "type": "bool"
        }
      ],
      "stateMutability": "view",
      "type": "function"
    },
    {
      "inputs": [
        {
          "internalType": "uint256",
          "name": "_tradeId",
          "type": "uint256"
        },
        {
          "internalType": "uint256",
          "name": "_now",
          "type": "uint256"
        },
        {
          "internalType": "string",
          "name": "time",
          "type": "string"
        },
        {
          "internalType": "uint256",
          "name": "_price",
          "type": "uint256"
        }
      ],
      "name": "bid",
      "outputs": [],
      "stateMutability": "payable",
      "type": "function"
    },
    {
      "inputs": [
        {
          "internalType": "uint256",
          "name": "_tradeId",
          "type": "uint256"
        },
        {
          "internalType": "string",
          "name": "time",
          "type": "string"
        }
      ],
      "name": "buy",
      "outputs": [],
      "stateMutability": "payable",
      "type": "function"
    },
    {
      "inputs": [
        {
          "internalType": "uint256",
          "name": "_tradeId",
          "type": "uint256"
        },
        {
          "internalType": "uint256",
          "name": "_price",
          "type": "uint256"
        },
        {
          "internalType": "string",
          "name": "time",
          "type": "string"
        }
      ],
      "name": "changePrice",
      "outputs": [],
      "stateMutability": "nonpayable",
      "type": "function"
    },
    {
      "inputs": [
        {
          "internalType": "address",
          "name": "sender",
          "type": "address"
        }
      ],
      "name": "fetchItemsCreated",
      "outputs": [
        {
          "components": [
            {
              "internalType": "uint256",
              "name": "_itemId",
              "type": "uint256"
            },
            {
              "internalType": "uint256",
              "name": "_tokenId",
              "type": "uint256"
            },
            {
              "internalType": "uint256",
              "name": "initialSupply",
              "type": "uint256"
            },
            {
              "internalType": "uint256",
              "name": "publicSupply",
              "type": "uint256"
            },
            {
              "internalType": "address",
              "name": "token",
              "type": "address"
            },
            {
              "internalType": "address",
              "name": "creator",
              "type": "address"
            },
            {
              "internalType": "uint256",
              "name": "price",
              "type": "uint256"
            },
            {
              "internalType": "string",
              "name": "uri",
              "type": "string"
            }
          ],
          "internalType": "struct MarketPlace.TradeItem[]",
          "name": "",
          "type": "tuple[]"
        }
      ],
      "stateMutability": "view",
      "type": "function"
    },
    {
      "inputs": [],
      "name": "getAllTokens",
      "outputs": [
        {
          "components": [
            {
              "internalType": "uint256",
              "name": "_tradeId",
              "type": "uint256"
            },
            {
              "internalType": "uint256",
              "name": "_tokenId",
              "type": "uint256"
            },
            {
              "internalType": "address",
              "name": "poster",
              "type": "address"
            },
            {
              "internalType": "address",
              "name": "token",
              "type": "address"
            },
            {
              "internalType": "uint256",
              "name": "price",
              "type": "uint256"
            },
            {
              "internalType": "uint256",
              "name": "amount",
              "type": "uint256"
            },
            {
              "internalType": "string",
              "name": "uri",
              "type": "string"
            },
            {
              "internalType": "bool",
              "name": "auction",
              "type": "bool"
            }
          ],
          "internalType": "struct MarketPlace.Trade[]",
          "name": "",
          "type": "tuple[]"
        }
      ],
      "stateMutability": "view",
      "type": "function"
    },
    {
      "inputs": [
        {
          "internalType": "uint256",
          "name": "id",
          "type": "uint256"
        }
      ],
      "name": "getAuction",
      "outputs": [
        {
          "components": [
            {
              "internalType": "uint256",
              "name": "_tradeId",
              "type": "uint256"
            },
            {
              "internalType": "address",
              "name": "beneficiary",
              "type": "address"
            },
            {
              "internalType": "uint256",
              "name": "auctionStart",
              "type": "uint256"
            },
            {
              "internalType": "uint256",
              "name": "biddingTime",
              "type": "uint256"
            },
            {
              "internalType": "address",
              "name": "highestBidder",
              "type": "address"
            },
            {
              "internalType": "uint256",
              "name": "highestBid",
              "type": "uint256"
            },
            {
              "internalType": "bool",
              "name": "ended",
              "type": "bool"
            }
          ],
          "internalType": "struct MarketPlace.Auction",
          "name": "",
          "type": "tuple"
        }
      ],
      "stateMutability": "view",
      "type": "function"
    },
    {
      "inputs": [
        {
          "internalType": "uint256",
          "name": "id",
          "type": "uint256"
        }
      ],
      "name": "getHistory",
      "outputs": [
        {
          "components": [
            {
              "internalType": "uint256",
              "name": "_recordId",
              "type": "uint256"
            },
            {
              "internalType": "uint256",
              "name": "_tokenId",
              "type": "uint256"
            },
            {
              "internalType": "address",
              "name": "seller",
              "type": "address"
            },
            {
              "internalType": "address",
              "name": "buyer",
              "type": "address"
            },
            {
              "internalType": "uint256",
              "name": "price",
              "type": "uint256"
            },
            {
              "internalType": "uint256",
              "name": "amount",
              "type": "uint256"
            },
            {
              "internalType": "string",
              "name": "time",
              "type": "string"
            },
            {
              "internalType": "string",
              "name": "des",
              "type": "string"
            }
          ],
          "internalType": "struct MarketPlace.History[]",
          "name": "",
          "type": "tuple[]"
        }
      ],
      "stateMutability": "view",
      "type": "function"
    },
    {
      "inputs": [
        {
          "internalType": "address",
          "name": "sender",
          "type": "address"
        }
      ],
      "name": "getMyTokens",
      "outputs": [
        {
          "components": [
            {
              "internalType": "uint256",
              "name": "_itemId",
              "type": "uint256"
            },
            {
              "internalType": "uint256",
              "name": "_tokenId",
              "type": "uint256"
            },
            {
              "internalType": "uint256",
              "name": "initialSupply",
              "type": "uint256"
            },
            {
              "internalType": "uint256",
              "name": "publicSupply",
              "type": "uint256"
            },
            {
              "internalType": "address",
              "name": "token",
              "type": "address"
            },
            {
              "internalType": "address",
              "name": "creator",
              "type": "address"
            },
            {
              "internalType": "uint256",
              "name": "price",
              "type": "uint256"
            },
            {
              "internalType": "string",
              "name": "uri",
              "type": "string"
            }
          ],
          "internalType": "struct MarketPlace.TradeItem[]",
          "name": "",
          "type": "tuple[]"
        }
      ],
      "stateMutability": "view",
      "type": "function"
    },
    {
      "inputs": [],
      "name": "getNumber",
      "outputs": [
        {
          "internalType": "uint256",
          "name": "",
          "type": "uint256"
        }
      ],
      "stateMutability": "view",
      "type": "function"
    },
    {
      "inputs": [
        {
          "internalType": "address",
          "name": "sender",
          "type": "address"
        }
      ],
      "name": "getSellingTokens",
      "outputs": [
        {
          "components": [
            {
              "internalType": "uint256",
              "name": "_tradeId",
              "type": "uint256"
            },
            {
              "internalType": "uint256",
              "name": "_tokenId",
              "type": "uint256"
            },
            {
              "internalType": "address",
              "name": "poster",
              "type": "address"
            },
            {
              "internalType": "address",
              "name": "token",
              "type": "address"
            },
            {
              "internalType": "uint256",
              "name": "price",
              "type": "uint256"
            },
            {
              "internalType": "uint256",
              "name": "amount",
              "type": "uint256"
            },
            {
              "internalType": "string",
              "name": "uri",
              "type": "string"
            },
            {
              "internalType": "bool",
              "name": "auction",
              "type": "bool"
            }
          ],
          "internalType": "struct MarketPlace.Trade[]",
          "name": "",
          "type": "tuple[]"
        }
      ],
      "stateMutability": "view",
      "type": "function"
    },
    {
      "inputs": [
        {
          "internalType": "uint256",
          "name": "",
          "type": "uint256"
        }
      ],
      "name": "history",
      "outputs": [
        {
          "internalType": "uint256",
          "name": "_recordId",
          "type": "uint256"
        },
        {
          "internalType": "uint256",
          "name": "_tokenId",
          "type": "uint256"
        },
        {
          "internalType": "address",
          "name": "seller",
          "type": "address"
        },
        {
          "internalType": "address",
          "name": "buyer",
          "type": "address"
        },
        {
          "internalType": "uint256",
          "name": "price",
          "type": "uint256"
        },
        {
          "internalType": "uint256",
          "name": "amount",
          "type": "uint256"
        },
        {
          "internalType": "string",
          "name": "time",
          "type": "string"
        },
        {
          "internalType": "string",
          "name": "des",
          "type": "string"
        }
      ],
      "stateMutability": "view",
      "type": "function"
    },
    {
      "inputs": [
        {
          "internalType": "address",
          "name": "token",
          "type": "address"
        },
        {
          "internalType": "uint256",
          "name": "_tokenId",
          "type": "uint256"
        },
        {
          "internalType": "string",
          "name": "uri",
          "type": "string"
        },
        {
          "internalType": "string",
          "name": "time",
          "type": "string"
        }
      ],
      "name": "listToken",
      "outputs": [
        {
          "internalType": "uint256",
          "name": "",
          "type": "uint256"
        }
      ],
      "stateMutability": "nonpayable",
      "type": "function"
    },
    {
      "inputs": [
        {
          "internalType": "address",
          "name": "",
          "type": "address"
        },
        {
          "internalType": "address",
          "name": "",
          "type": "address"
        },
        {
          "internalType": "uint256",
          "name": "",
          "type": "uint256"
        },
        {
          "internalType": "uint256",
          "name": "",
          "type": "uint256"
        },
        {
          "internalType": "bytes",
          "name": "",
          "type": "bytes"
        }
      ],
      "name": "onERC1155Received",
      "outputs": [
        {
          "internalType": "bytes4",
          "name": "",
          "type": "bytes4"
        }
      ],
      "stateMutability": "nonpayable",
      "type": "function"
    },
    {
      "inputs": [],
      "name": "pay",
      "outputs": [],
      "stateMutability": "payable",
      "type": "function"
    },
    {
      "inputs": [
        {
          "internalType": "uint256",
          "name": "_itemId",
          "type": "uint256"
        },
        {
          "internalType": "uint256",
          "name": "_price",
          "type": "uint256"
        },
        {
          "internalType": "bool",
          "name": "_auction",
          "type": "bool"
        },
        {
          "internalType": "uint256",
          "name": "_bidEndTime",
          "type": "uint256"
        }
      ],
      "name": "publicToAll",
      "outputs": [],
      "stateMutability": "nonpayable",
      "type": "function"
    },
    {
      "inputs": [
        {
          "internalType": "uint256",
          "name": "_tradeId",
          "type": "uint256"
        },
        {
          "internalType": "string",
          "name": "_time",
          "type": "string"
        }
      ],
      "name": "refund",
      "outputs": [],
      "stateMutability": "nonpayable",
      "type": "function"
    },
    {
      "inputs": [
        {
          "internalType": "uint256",
          "name": "",
          "type": "uint256"
        }
      ],
      "name": "trades",
      "outputs": [
        {
          "internalType": "uint256",
          "name": "_tradeId",
          "type": "uint256"
        },
        {
          "internalType": "uint256",
          "name": "_tokenId",
          "type": "uint256"
        },
        {
          "internalType": "address",
          "name": "poster",
          "type": "address"
        },
        {
          "internalType": "address",
          "name": "token",
          "type": "address"
        },
        {
          "internalType": "uint256",
          "name": "price",
          "type": "uint256"
        },
        {
          "internalType": "uint256",
          "name": "amount",
          "type": "uint256"
        },
        {
          "internalType": "string",
          "name": "uri",
          "type": "string"
        },
        {
          "internalType": "bool",
          "name": "auction",
          "type": "bool"
        }
      ],
      "stateMutability": "view",
      "type": "function"
    }
  ],
  "bytecode": "0x60806040526000805560006001556000600255600060045534801561002357600080fd5b50600380546001600160a01b0319163317905561394d806100456000396000f3fe60806040526004361061015f5760003560e01c8063b7dc3b18116100c0578063ce83ddf011610074578063f23a6e6111610059578063f23a6e61146103c8578063f2c9ecd8146103f5578063f624609c146104175761015f565b8063ce83ddf014610395578063e7c52629146103b55761015f565b8063c8338456116100a5578063c833845614610314578063c8691b2a14610334578063cc3305f9146103615761015f565b8063b7dc3b18146102e1578063c24796c0146102f45761015f565b8063571a26a01161011757806378bd7935116100fc57806378bd79351461026d578063a7a38f0b1461029a578063b19bdf21146102ce5761015f565b8063571a26a01461021a57806365670b5d1461024d5761015f565b80631e6c598e116101485780631e6c598e146101a45780632a5c792a146101d85780633f282873146101fa5761015f565b806317516592146101645780631b9265b81461019a575b600080fd5b34801561017057600080fd5b5061018461017f366004612f67565b610437565b6040516101919190613360565b60405180910390f35b6101a26107ab565b005b3480156101b057600080fd5b506101c46101bf36600461307f565b6107ad565b604051610191989796959493929190613756565b3480156101e457600080fd5b506101ed61088c565b6040516101919190613417565b34801561020657600080fd5b506101a2610215366004613136565b610af3565b34801561022657600080fd5b5061023a61023536600461307f565b610d7e565b6040516101919796959493929190613716565b34801561025957600080fd5b506101a26102683660046130af565b610dca565b34801561027957600080fd5b5061028d61028836600461307f565b6110af565b60405161019191906136ae565b3480156102a657600080fd5b506102ba6102b536600461307f565b61112b565b6040516101919897969594939291906137b3565b6101a26102dc366004613184565b61128d565b6101a26102ef3660046130af565b6115bb565b34801561030057600080fd5b506101a261030f3660046130f4565b61192d565b34801561032057600080fd5b5061018461032f366004612f67565b611d7c565b34801561034057600080fd5b5061035461034f36600461307f565b611ffe565b6040516101919190613289565b34801561036d57600080fd5b5061038161037c36600461307f565b6122da565b60405161019198979695949392919061381b565b3480156103a157600080fd5b506101ed6103b0366004612f67565b612333565b6101a26103c33660046130af565b6125b8565b3480156103d457600080fd5b506103e86103e3366004612f81565b612a3d565b60405161019191906134da565b34801561040157600080fd5b5061040a612a67565b604051610191919061370d565b34801561042357600080fd5b5061040a610432366004613004565b612a6d565b60008054606091805b8281101561051b576000600581610458846001613866565b81526020810191909152604001600020600401546001600160a01b031662fdd58e87610485856001613866565b6040518363ffffffff1660e01b81526004016104a2929190613270565b60206040518083038186803b1580156104ba57600080fd5b505afa1580156104ce573d6000803e3d6000fd5b505050506040513d601f19601f820116820180604052508101906104f29190613097565b9050801561050857610505600184613866565b92505b5080610513816138d0565b915050610440565b5060008167ffffffffffffffff81111561054557634e487b7160e01b600052604160045260246000fd5b60405190808252806020026020018201604052801561057e57816020015b61056b612cc3565b8152602001906001900390816105635790505b5090506000805b8481101561079e57600060058161059d846001613866565b81526020810191909152604001600020600401546001600160a01b031662fdd58e896105ca856001613866565b6040518363ffffffff1660e01b81526004016105e7929190613270565b60206040518083038186803b1580156105ff57600080fd5b505afa158015610613573d6000803e3d6000fd5b505050506040513d601f19601f820116820180604052508101906106379190613097565b9050801561078b576005600061064e846001613866565b81526020808201929092526040908101600020815161010081018352815481526001820154938101939093526002810154918301919091526003810154606083015260048101546001600160a01b03908116608084015260058201541660a0830152600681015460c083015260078101805460e0840191906106cf90613895565b80601f01602080910402602001604051908101604052809291908181526020018280546106fb90613895565b80156107485780601f1061071d57610100808354040283529160200191610748565b820191906000526020600020905b81548152906001019060200180831161072b57829003601f168201915b50505050508152505084848151811061077157634e487b7160e01b600052603260045260246000fd5b60200260200101819052508280610787906138d0565b9350505b5080610796816138d0565b915050610585565b509093505050505b919050565b565b60066020819052600091825260409091208054600182015460028301546003840154600485015460058601549686018054959794966001600160a01b039485169693909416949193919261080090613895565b80601f016020809104026020016040519081016040528092919081815260200182805461082c90613895565b80156108795780601f1061084e57610100808354040283529160200191610879565b820191906000526020600020905b81548152906001019060200180831161085c57829003601f168201915b5050506007909301549192505060ff1688565b6002546060906000805b828110156108e65760006006816108ae846001613866565b81526020019081526020016000206005015411156108d4576108d1600183613866565b91505b806108de816138d0565b915050610896565b5060008167ffffffffffffffff81111561091057634e487b7160e01b600052604160045260246000fd5b60405190808252806020026020018201604052801561094957816020015b610936612d1a565b81526020019060019003908161092e5790505b5090506000805b84811015610ae9576000600681610968846001613866565b8152602001908152602001600020600501541115610ad7576006600061098f836001613866565b815260208082019290925260409081016000208151610100810183528154815260018201549381019390935260028101546001600160a01b03908116928401929092526003810154909116606083015260048101546080830152600581015460a083015260068101805460c084019190610a0890613895565b80601f0160208091040260200160405190810160405280929190818152602001828054610a3490613895565b8015610a815780601f10610a5657610100808354040283529160200191610a81565b820191906000526020600020905b815481529060010190602001808311610a6457829003601f168201915b50505091835250506007919091015460ff1615156020909101528351849084908110610abd57634e487b7160e01b600052603260045260246000fd5b60200260200101819052508180610ad3906138d0565b9250505b80610ae1816138d0565b915050610950565b5090935050505090565b60008381526006602081815260408084208151610100810183528154815260018201549381019390935260028101546001600160a01b03908116928401929092526003810154909116606083015260048101546080830152600581015460a0830152918201805491929160c084019190610b6c90613895565b80601f0160208091040260200160405190810160405280929190818152602001828054610b9890613895565b8015610be55780601f10610bba57610100808354040283529160200191610be5565b820191906000526020600020905b815481529060010190602001808311610bc857829003601f168201915b50505091835250506007919091015460ff16151560209091015260408101519091506001600160a01b03163314610c375760405162461bcd60e51b8152600401610c2e90613609565b60405180910390fd5b60008481526006602052604081206004018490556001805490918291610c5e908390613866565b9091555050604080516101008101825260018054808352602085810151818501908152868601516001600160a01b03908116868801908152600060608801818152608089018d815260a0808d0151908b0190815260c08b018e81528c51808e018e52600c81527f4368616e67652070726963650000000000000000000000000000000000000000818b015260e08d0152988452600788529a9092208951815594519785019790975590516002840180549184166001600160a01b03199283161790559551600384018054919093169616959095179055925160048401559351600583015551805192939192610d599260068501920190612d73565b5060e08201518051610d75916007840191602090910190612d73565b50505050505050565b600860205260009081526040902080546001820154600283015460038401546004850154600586015460069096015494956001600160a01b039485169593949293929091169160ff1687565b60008281526006602081815260408084208151610100810183528154815260018201549381019390935260028101546001600160a01b03908116928401929092526003810154909116606083015260048101546080830152600581015460a0830152918201805491929160c084019190610e4390613895565b80601f0160208091040260200160405190810160405280929190818152602001828054610e6f90613895565b8015610ebc5780601f10610e9157610100808354040283529160200191610ebc565b820191906000526020600020905b815481529060010190602001808311610e9f57829003601f168201915b50505091835250506007919091015460ff1615156020918201526060820151604080840151928401519051637921219560e11b81529394506001600160a01b039091169263f242432a92610f17923092600190600401613238565b600060405180830381600087803b158015610f3157600080fd5b505af1158015610f45573d6000803e3d6000fd5b505050506001806000828254610f5b9190613866565b9091555050604080516101008101825260018054808352602085810151818501908152600085870181815233606088019081526080808b015190890190815260a0890188815260c08a018d81528b51808d018d52601681527f456e642061756374696f6e20616e6420726566756e6400000000000000000000818a015260e08c0152978552600787529990932088518155935196840196909655516002830180546001600160a01b03199081166001600160a01b0393841617909155955160038401805490971691161790945592516004840155935160058301555180519293919261104d9260068501920190612d73565b5060e08201518051611069916007840191602090910190612d73565b505050600092835250506008602090815260408083206006908101805460ff191660011790559091528120600581019190915560020180546001600160a01b0319169055565b6110b7612df7565b50600090815260086020908152604091829020825160e0810184528154815260018201546001600160a01b03908116938201939093526002820154938101939093526003810154606084015260048101549091166080830152600581015460a08301526006015460ff16151560c082015290565b6007602052600090815260409020805460018201546002830154600384015460048501546005860154600687018054969795966001600160a01b039586169694909516949293919261117c90613895565b80601f01602080910402602001604051908101604052809291908181526020018280546111a890613895565b80156111f55780601f106111ca576101008083540402835291602001916111f5565b820191906000526020600020905b8154815290600101906020018083116111d857829003601f168201915b50505050509080600701805461120a90613895565b80601f016020809104026020016040519081016040528092919081815260200182805461123690613895565b80156112835780601f1061125857610100808354040283529160200191611283565b820191906000526020600020905b81548152906001019060200180831161126657829003601f168201915b5050505050905088565b600084815260086020908152604091829020825160e0810184528154815260018201546001600160a01b039081169382019390935260028201549381019390935260038101546060840181905260048201549092166080840152600581015460a08401526006015460ff16151560c083015284111561131e5760405162461bcd60e51b8152600401610c2e906135d2565b8060a0015182116113415760405162461bcd60e51b8152600401610c2e90613564565b60008581526006602081815260408084208151610100810183528154815260018201549381019390935260028101546001600160a01b03908116928401929092526003810154909116606083015260048101546080830152600581015460a0830152918201805491929160c0840191906113ba90613895565b80601f01602080910402602001604051908101604052809291908181526020018280546113e690613895565b80156114335780601f1061140857610100808354040283529160200191611433565b820191906000526020600020905b81548152906001019060200180831161141657829003601f168201915b50505091835250506007919091015460ff16151560209091015260018054919250908190600090611465908390613866565b909155505060408051610100810182526001805480835260208581015181850190815233858701908152600060608701818152608088018c815260a0890188815260c08a018f81528b51808d018d5260038082527f4269640000000000000000000000000000000000000000000000000000000000828b015260e08d0191909152988552600788529a9093208951815594519785019790975591516002840180546001600160a01b03199081166001600160a01b0393841617909155925195840180549093169516949094179055925160048401559051600583015592518051929391926115599260068501920190612d73565b5060e08201518051611575916007840191602090910190612d73565b505050600095865250506006602090815260408086206004908101849055600890925290942093840180546001600160a01b031916331790556005909301929092555050565b60008281526006602081815260408084208151610100810183528154815260018201549381019390935260028101546001600160a01b03908116928401929092526003810154909116606083015260048101546080830152600581015460a0830152918201805491929160c08401919061163490613895565b80601f016020809104026020016040519081016040528092919081815260200182805461166090613895565b80156116ad5780601f10611682576101008083540402835291602001916116ad565b820191906000526020600020905b81548152906001019060200180831161169057829003601f168201915b50505091835250506007919091015460ff16151560209091015260408101519091506001600160a01b03163314156116f75760405162461bcd60e51b8152600401610c2e90613677565b60018060008282546117099190613866565b9091555050604080516101008101825260018054808352602085810151818501908152868601516001600160a01b0390811686880190815233606088019081526080808b015190890190815260a0890188815260c08a018d81528b51808d018d5260038082527f4275790000000000000000000000000000000000000000000000000000000000828b015260e08d01919091526000998a52600789529b9098208a51815595519886019890985591516002850180549185166001600160a01b03199283161790559051988401805499909316981697909717905594516004860155915160058501555180519293926118079260068501920190612d73565b5060e08201518051611823916007840191602090910190612d73565b50505060608101516020820151604051637921219560e11b81526001600160a01b039092169163f242432a916118629130913391600190600401613238565b600060405180830381600087803b15801561187c57600080fd5b505af1158015611890573d6000803e3d6000fd5b5050505080604001516001600160a01b03166108fc349081150290604051600060405180830381858888f193505050501580156118d1573d6000803e3d6000fd5b506000838152600660205260409020600501546118f09060019061387e565b600084815260066020526040902060050181905561192857600083815260066020526040902060020180546001600160a01b03191690555b505050565b6000848152600560208181526040808420815161010081018352815481526001820154938101939093526002810154918301919091526003810154606083015260048101546001600160a01b0390811660808401529281015490921660a0820152600682015460c082015260078201805491929160e0840191906119b090613895565b80601f01602080910402602001604051908101604052809291908181526020018280546119dc90613895565b8015611a295780601f106119fe57610100808354040283529160200191611a29565b820191906000526020600020905b815481529060010190602001808311611a0c57829003601f168201915b5050509190925250505060008681526005602052604080822060049081015491517efdd58e00000000000000000000000000000000000000000000000000000000815293945091926001600160a01b039091169162fdd58e91611a909133918b9101613270565b60206040518083038186803b158015611aa857600080fd5b505afa158015611abc573d6000803e3d6000fd5b505050506040513d601f19601f82011682018060405250810190611ae09190613097565b905080600114611b025760405162461bcd60e51b8152600401610c2e90613507565b600160026000828254611b159190613866565b92505081905550604051806101000160405280600254815260200183602001518152602001336001600160a01b0316815260200183608001516001600160a01b03168152602001868152602001600181526020018360e001518152602001851515815250600660006002548152602001908152602001600020600082015181600001556020820151816001015560408201518160020160006101000a8154816001600160a01b0302191690836001600160a01b0316021790555060608201518160030160006101000a8154816001600160a01b0302191690836001600160a01b031602179055506080820151816004015560a0820151816005015560c0820151816006019080519060200190611c2c929190612d73565b5060e091909101516007909101805460ff191691151591909117905583151560011415611d06576040805160e0810182526002805480835233602080850191825242858701908152606086018a815260006080880181815260a0890182815260c08a0183815297835260089095529890209651875592516001870180546001600160a01b039283166001600160a01b031991821617909155915195870195909555915160038601559451600485018054919094169116179091559151600582015590516006909101805491151560ff199092169190911790555b60808201516020830151604051637921219560e11b81526001600160a01b039092169163f242432a91611d429133913091600190600401613238565b600060405180830381600087803b158015611d5c57600080fd5b505af1158015611d70573d6000803e3d6000fd5b50505050505050505050565b6000805460609180805b83811015611dea576001600160a01b03861660056000611da7846001613866565b81526020810191909152604001600020600501546001600160a01b03161415611dd857611dd5600184613866565b92505b80611de2816138d0565b915050611d86565b5060008267ffffffffffffffff811115611e1457634e487b7160e01b600052604160045260246000fd5b604051908082528060200260200182016040528015611e4d57816020015b611e3a612cc3565b815260200190600190039081611e325790505b50905060005b84811015611ff4576001600160a01b03871660056000611e74846001613866565b81526020810191909152604001600020600501546001600160a01b03161415611fe25760056000611ea6836001613866565b81526020808201929092526040908101600020815161010081018352815481526001820154938101939093526002810154918301919091526003810154606083015260048101546001600160a01b03908116608084015260058201541660a0830152600681015460c083015260078101805460e084019190611f2790613895565b80601f0160208091040260200160405190810160405280929190818152602001828054611f5390613895565b8015611fa05780601f10611f7557610100808354040283529160200191611fa0565b820191906000526020600020905b815481529060010190602001808311611f8357829003601f168201915b505050505081525050828481518110611fc957634e487b7160e01b600052603260045260246000fd5b6020908102919091010152611fdf600184613866565b92505b80611fec816138d0565b915050611e53565b5095945050505050565b6001546060906000805b82811015612058578460076000612020846001613866565b815260200190815260200160002060010154141561204657612043600183613866565b91505b80612050816138d0565b915050612008565b5060008167ffffffffffffffff81111561208257634e487b7160e01b600052604160045260246000fd5b6040519080825280602002602001820160405280156120bb57816020015b6120a8612e48565b8152602001906001900390816120a05790505b5090506000805b8481101561079e5786600760006120da846001613866565b81526020019081526020016000206001015414156122c85760076000612101836001613866565b815260208082019290925260409081016000208151610100810183528154815260018201549381019390935260028101546001600160a01b03908116928401929092526003810154909116606083015260048101546080830152600581015460a083015260068101805460c08401919061217a90613895565b80601f01602080910402602001604051908101604052809291908181526020018280546121a690613895565b80156121f35780601f106121c8576101008083540402835291602001916121f3565b820191906000526020600020905b8154815290600101906020018083116121d657829003601f168201915b5050505050815260200160078201805461220c90613895565b80601f016020809104026020016040519081016040528092919081815260200182805461223890613895565b80156122855780601f1061225a57610100808354040283529160200191612285565b820191906000526020600020905b81548152906001019060200180831161226857829003601f168201915b5050505050815250508383815181106122ae57634e487b7160e01b600052603260045260246000fd5b602002602001018190525081806122c4906138d0565b9250505b806122d2816138d0565b9150506120c2565b60056020819052600091825260409091208054600182015460028301546003840154600485015495850154600686015460078701805496989597949693956001600160a01b039081169593169391929161120a90613895565b6002546060906000805b828110156123a1576001600160a01b0385166006600061235e846001613866565b81526020810191909152604001600020600201546001600160a01b0316141561238f5761238c600183613866565b91505b80612399816138d0565b91505061233d565b5060008167ffffffffffffffff8111156123cb57634e487b7160e01b600052604160045260246000fd5b60405190808252806020026020018201604052801561240457816020015b6123f1612d1a565b8152602001906001900390816123e95790505b5090506000805b8481101561079e576001600160a01b0387166006600061242c846001613866565b81526020810191909152604001600020600201546001600160a01b031614156125a6576006600061245e836001613866565b815260208082019290925260409081016000208151610100810183528154815260018201549381019390935260028101546001600160a01b03908116928401929092526003810154909116606083015260048101546080830152600581015460a083015260068101805460c0840191906124d790613895565b80601f016020809104026020016040519081016040528092919081815260200182805461250390613895565b80156125505780601f1061252557610100808354040283529160200191612550565b820191906000526020600020905b81548152906001019060200180831161253357829003601f168201915b50505091835250506007919091015460ff161515602090910152835184908490811061258c57634e487b7160e01b600052603260045260246000fd5b602002602001018190525081806125a2906138d0565b9250505b806125b0816138d0565b91505061240b565b6000600860008481526020019081526020016000206040518060e0016040529081600082015481526020016001820160009054906101000a90046001600160a01b03166001600160a01b03166001600160a01b0316815260200160028201548152602001600382015481526020016004820160009054906101000a90046001600160a01b03166001600160a01b03166001600160a01b03168152602001600582015481526020016006820160009054906101000a900460ff16151515158152505090506000600660008581526020019081526020016000206040518061010001604052908160008201548152602001600182015481526020016002820160009054906101000a90046001600160a01b03166001600160a01b03166001600160a01b031681526020016003820160009054906101000a90046001600160a01b03166001600160a01b03166001600160a01b03168152602001600482015481526020016005820154815260200160068201805461273290613895565b80601f016020809104026020016040519081016040528092919081815260200182805461275e90613895565b80156127ab5780601f10612780576101008083540402835291602001916127ab565b820191906000526020600020905b81548152906001019060200180831161278e57829003601f168201915b50505091835250506007919091015460ff16151560209091015260808301519091506001600160a01b031633146127f45760405162461bcd60e51b8152600401610c2e9061359b565b8160a0015134146128175760405162461bcd60e51b8152600401610c2e90613640565b606081015160808301516020830151604051637921219560e11b81526001600160a01b039093169263f242432a92612856923092600190600401613238565b600060405180830381600087803b15801561287057600080fd5b505af1158015612884573d6000803e3d6000fd5b50505060208301516040516001600160a01b0390911691503480156108fc02916000818181858888f193505050501580156128c3573d6000803e3d6000fd5b5060018060008282546128d69190613866565b9091555050604080516101008101825260018054808352602085810151818501908152868601516001600160a01b039081168688019081526080808b0151831660608901908152818b015191890191825260a0890188815260c08a018e81528b51808d018d5260078082527f41756374696f6e00000000000000000000000000000000000000000000000000828b015260e08d01919091526000998a5288529a9097208951815594519785019790975590516002840180549184166001600160a01b03199283161790559551600384018054919093169616959095179055925160048401559051600583015592518051929391926129da9260068501920190612d73565b5060e082015180516129f6916007840191602090910190612d73565b505050600093845250506008602090815260408084206006908101805460ff19166001179055909152822060058101929092555060020180546001600160a01b0319169055565b7ff23a6e610000000000000000000000000000000000000000000000000000000095945050505050565b60005490565b60006001600080828254612a819190613866565b9250508190555060405180610100016040528060005481526020018581526020016001815260200160008152602001866001600160a01b03168152602001336001600160a01b03168152602001600081526020018481525060056000805481526020019081526020016000206000820151816000015560208201518160010155604082015181600201556060820151816003015560808201518160040160006101000a8154816001600160a01b0302191690836001600160a01b0316021790555060a08201518160050160006101000a8154816001600160a01b0302191690836001600160a01b0316021790555060c0820151816006015560e0820151816007019080519060200190612b95929190612d73565b509050506001806000828254612bab9190613866565b909155505060408051610100810182526001805480835260008054602080860191825233868801908152606087018481526080880185815260a0890188815260c08a018d81528b51808d018d5260078082527f43726561746564000000000000000000000000000000000000000000000000008289015260e08d01919091529888529785529990952088518155935196840196909655516002830180546001600160a01b03199081166001600160a01b039384161790915595516003840180549097169116179094559051600482015593516005850155518051929392612c989260068501920190612d73565b5060e08201518051612cb4916007840191602090910190612d73565b50506000549695505050505050565b6040518061010001604052806000815260200160008152602001600081526020016000815260200160006001600160a01b0316815260200160006001600160a01b0316815260200160008152602001606081525090565b604051806101000160405280600081526020016000815260200160006001600160a01b0316815260200160006001600160a01b031681526020016000815260200160008152602001606081526020016000151581525090565b828054612d7f90613895565b90600052602060002090601f016020900481019282612da15760008555612de7565b82601f10612dba57805160ff1916838001178555612de7565b82800160010185558215612de7579182015b82811115612de7578251825591602001919060010190612dcc565b50612df3929150612e9f565b5090565b6040518060e001604052806000815260200160006001600160a01b03168152602001600081526020016000815260200160006001600160a01b03168152602001600081526020016000151581525090565b604051806101000160405280600081526020016000815260200160006001600160a01b0316815260200160006001600160a01b03168152602001600081526020016000815260200160608152602001606081525090565b5b80821115612df35760008155600101612ea0565b600067ffffffffffffffff80841115612ecf57612ecf613901565b604051601f8501601f19908116603f01168101908282118183101715612ef757612ef7613901565b81604052809350858152868686011115612f1057600080fd5b858560208301376000602087830101525050509392505050565b80356001600160a01b03811681146107a657600080fd5b600082601f830112612f51578081fd5b612f6083833560208501612eb4565b9392505050565b600060208284031215612f78578081fd5b612f6082612f2a565b600080600080600060a08688031215612f98578081fd5b612fa186612f2a565b9450612faf60208701612f2a565b93506040860135925060608601359150608086013567ffffffffffffffff811115612fd8578182fd5b8601601f81018813612fe8578182fd5b612ff788823560208401612eb4565b9150509295509295909350565b60008060008060808587031215613019578384fd5b61302285612f2a565b935060208501359250604085013567ffffffffffffffff80821115613045578384fd5b61305188838901612f41565b93506060870135915080821115613066578283fd5b5061307387828801612f41565b91505092959194509250565b600060208284031215613090578081fd5b5035919050565b6000602082840312156130a8578081fd5b5051919050565b600080604083850312156130c1578182fd5b82359150602083013567ffffffffffffffff8111156130de578182fd5b6130ea85828601612f41565b9150509250929050565b60008060008060808587031215613109578384fd5b843593506020850135925060408501358015158114613126578283fd5b9396929550929360600135925050565b60008060006060848603121561314a578283fd5b8335925060208401359150604084013567ffffffffffffffff81111561316e578182fd5b61317a86828701612f41565b9150509250925092565b60008060008060808587031215613199578384fd5b8435935060208501359250604085013567ffffffffffffffff8111156131bd578283fd5b6131c987828801612f41565b949793965093946060013593505050565b6001600160a01b03169052565b15159052565b60008151808452815b81811015613212576020818501810151868301820152016131f6565b818111156132235782602083870101525b50601f01601f19169290920160200192915050565b6001600160a01b0394851681529290931660208301526040820152606081019190915260a06080820181905260009082015260c00190565b6001600160a01b03929092168252602082015260400190565b60208082528251828201819052600091906040908185019080840286018301878501865b8381101561335257603f1989840301855281516101008151855288820151898601526001600160a01b038883015116888601526060808301516132f2828801826131da565b50506080828101519086015260a0808301519086015260c080830151818701839052613320838801826131ed565b9250505060e0808301519250858203818701525061333e81836131ed565b9689019694505050908601906001016132ad565b509098975050505050505050565b60208082528251828201819052600091906040908185019080840286018301878501865b8381101561335257888303603f1901855281518051845287810151888501528681015187850152606080820151908501526080808201516001600160a01b03169085015260a08082015161010091906133df828801826131da565b505060c0828101519086015260e091820151918501819052613403818601836131ed565b968901969450505090860190600101613384565b60208082528251828201819052600091906040908185019080840286018301878501865b8381101561335257603f1989840301855281516101008151855288820151898601526001600160a01b03888301511688860152606080830151613480828801826131da565b50506080828101519086015260a0808301519086015260c0808301518187018390526134ae838801826131ed565b9250505060e08083015192506134c6818701846131e7565b50958801959350509086019060010161343b565b7fffffffff0000000000000000000000000000000000000000000000000000000091909116815260200190565b60208082526030908201527f4e6f207375636820746f6b656e2c206f72207075626c69736820746f206d617260408201527f6b6574706c61636520616c726561647900000000000000000000000000000000606082015260800190565b60208082526010908201527f4e6f7420656e6f75676820707269636500000000000000000000000000000000604082015260600190565b60208082526015908201527f636f727265637420686967686573744269646465720000000000000000000000604082015260600190565b60208082526009908201527f6f7665722074696d650000000000000000000000000000000000000000000000604082015260600190565b6020808252600d908201527f4e6f7420746865206f776e657200000000000000000000000000000000000000604082015260600190565b60208082526011908201527f4e6f7420636f7272656374207072696365000000000000000000000000000000604082015260600190565b60208082526016908201527f53656c6c6572206e6f7420746f20626520627579657200000000000000000000604082015260600190565b600060e0820190508251825260208301516001600160a01b0380821660208501526040850151604085015260608501516060850152806080860151166080850152505060a083015160a083015260c0830151151560c083015292915050565b90815260200190565b9687526001600160a01b03958616602088015260408701949094526060860192909252909216608084015260a0830191909152151560c082015260e00190565b60006101008a83528960208401526001600160a01b03808a1660408501528089166060850152508660808401528560a08401528060c084015261379b818401866131ed565b91505082151560e08301529998505050505050505050565b60006101008a83528960208401526001600160a01b03808a1660408501528089166060850152508660808401528560a08401528060c08401526137f8818401866131ed565b905082810360e084015261380c81856131ed565b9b9a5050505050505050505050565b60006101008a83528960208401528860408401528760608401526001600160a01b03808816608085015280871660a0850152508460c08401528060e084015261380c818401856131ed565b60008219821115613879576138796138eb565b500190565b600082821015613890576138906138eb565b500390565b6002810460018216806138a957607f821691505b602082108114156138ca57634e487b7160e01b600052602260045260246000fd5b50919050565b60006000198214156138e4576138e46138eb565b5060010190565b634e487b7160e01b600052601160045260246000fd5b634e487b7160e01b600052604160045260246000fdfea2646970667358221220697a4a5977f26d65eb02bcc739b16c80c14cf14ca8cd6b54738cec359ca145cf64736f6c63430008010033",
  "linkReferences": {},
  "deployedLinkReferences": {}
}