{
  "_format": "hh-sol-artifact-1",
  "contractName": "MarketPlace",
  "sourceName": "contracts/MarketPlace.sol",
  "abi": [
    {
      "inputs": [],
      "stateMutability": "nonpayable",
      "type": "constructor"
    },
    {
      "inputs": [
        {
          "internalType": "uint256",
          "name": "",
          "type": "uint256"
        }
      ],
      "name": "TradeItems",
      "outputs": [
        {
          "internalType": "uint256",
          "name": "_itemId",
          "type": "uint256"
        },
        {
          "internalType": "uint256",
          "name": "_tokenId",
          "type": "uint256"
        },
        {
          "internalType": "uint256",
          "name": "initialSupply",
          "type": "uint256"
        },
        {
          "internalType": "uint256",
          "name": "publicSupply",
          "type": "uint256"
        },
        {
          "internalType": "address",
          "name": "token",
          "type": "address"
        },
        {
          "internalType": "address",
          "name": "creator",
          "type": "address"
        },
        {
          "internalType": "uint256",
          "name": "price",
          "type": "uint256"
        },
        {
          "internalType": "string",
          "name": "uri",
          "type": "string"
        }
      ],
      "stateMutability": "view",
      "type": "function"
    },
    {
      "inputs": [
        {
          "internalType": "uint256",
          "name": "_tradeId",
          "type": "uint256"
        },
        {
          "internalType": "string",
          "name": "_time",
          "type": "string"
        }
      ],
      "name": "auctionEnd",
      "outputs": [],
      "stateMutability": "payable",
      "type": "function"
    },
    {
      "inputs": [
        {
          "internalType": "uint256",
          "name": "",
          "type": "uint256"
        }
      ],
      "name": "auctions",
      "outputs": [
        {
          "internalType": "uint256",
          "name": "_tradeId",
          "type": "uint256"
        },
        {
          "internalType": "address",
          "name": "beneficiary",
          "type": "address"
        },
        {
          "internalType": "uint256",
          "name": "auctionStart",
          "type": "uint256"
        },
        {
          "internalType": "uint256",
          "name": "biddingTime",
          "type": "uint256"
        },
        {
          "internalType": "address",
          "name": "highestBidder",
          "type": "address"
        },
        {
          "internalType": "uint256",
          "name": "highestBid",
          "type": "uint256"
        },
        {
          "internalType": "bool",
          "name": "ended",
          "type": "bool"
        }
      ],
      "stateMutability": "view",
      "type": "function"
    },
    {
      "inputs": [
        {
          "internalType": "uint256",
          "name": "_tradeId",
          "type": "uint256"
        },
        {
          "internalType": "uint256",
          "name": "_now",
          "type": "uint256"
        },
        {
          "internalType": "string",
          "name": "time",
          "type": "string"
        },
        {
          "internalType": "uint256",
          "name": "_price",
          "type": "uint256"
        }
      ],
      "name": "bid",
      "outputs": [],
      "stateMutability": "payable",
      "type": "function"
    },
    {
      "inputs": [
        {
          "internalType": "uint256",
          "name": "_tradeId",
          "type": "uint256"
        },
        {
          "internalType": "string",
          "name": "time",
          "type": "string"
        }
      ],
      "name": "buy",
      "outputs": [],
      "stateMutability": "payable",
      "type": "function"
    },
    {
      "inputs": [
        {
          "internalType": "uint256",
          "name": "_tradeId",
          "type": "uint256"
        },
        {
          "internalType": "uint256",
          "name": "_price",
          "type": "uint256"
        },
        {
          "internalType": "string",
          "name": "time",
          "type": "string"
        }
      ],
      "name": "changePrice",
      "outputs": [],
      "stateMutability": "nonpayable",
      "type": "function"
    },
    {
      "inputs": [
        {
          "internalType": "address",
          "name": "sender",
          "type": "address"
        }
      ],
      "name": "fetchItemsCreated",
      "outputs": [
        {
          "components": [
            {
              "internalType": "uint256",
              "name": "_itemId",
              "type": "uint256"
            },
            {
              "internalType": "uint256",
              "name": "_tokenId",
              "type": "uint256"
            },
            {
              "internalType": "uint256",
              "name": "initialSupply",
              "type": "uint256"
            },
            {
              "internalType": "uint256",
              "name": "publicSupply",
              "type": "uint256"
            },
            {
              "internalType": "address",
              "name": "token",
              "type": "address"
            },
            {
              "internalType": "address",
              "name": "creator",
              "type": "address"
            },
            {
              "internalType": "uint256",
              "name": "price",
              "type": "uint256"
            },
            {
              "internalType": "string",
              "name": "uri",
              "type": "string"
            }
          ],
          "internalType": "struct MarketPlace.TradeItem[]",
          "name": "",
          "type": "tuple[]"
        }
      ],
      "stateMutability": "view",
      "type": "function"
    },
    {
      "inputs": [],
      "name": "getAllTokens",
      "outputs": [
        {
          "components": [
            {
              "internalType": "uint256",
              "name": "_tradeId",
              "type": "uint256"
            },
            {
              "internalType": "uint256",
              "name": "_tokenId",
              "type": "uint256"
            },
            {
              "internalType": "address",
              "name": "poster",
              "type": "address"
            },
            {
              "internalType": "address",
              "name": "token",
              "type": "address"
            },
            {
              "internalType": "uint256",
              "name": "price",
              "type": "uint256"
            },
            {
              "internalType": "uint256",
              "name": "amount",
              "type": "uint256"
            },
            {
              "internalType": "string",
              "name": "uri",
              "type": "string"
            },
            {
              "internalType": "bool",
              "name": "auction",
              "type": "bool"
            }
          ],
          "internalType": "struct MarketPlace.Trade[]",
          "name": "",
          "type": "tuple[]"
        }
      ],
      "stateMutability": "view",
      "type": "function"
    },
    {
      "inputs": [
        {
          "internalType": "uint256",
          "name": "id",
          "type": "uint256"
        }
      ],
      "name": "getAuction",
      "outputs": [
        {
          "components": [
            {
              "internalType": "uint256",
              "name": "_tradeId",
              "type": "uint256"
            },
            {
              "internalType": "address",
              "name": "beneficiary",
              "type": "address"
            },
            {
              "internalType": "uint256",
              "name": "auctionStart",
              "type": "uint256"
            },
            {
              "internalType": "uint256",
              "name": "biddingTime",
              "type": "uint256"
            },
            {
              "internalType": "address",
              "name": "highestBidder",
              "type": "address"
            },
            {
              "internalType": "uint256",
              "name": "highestBid",
              "type": "uint256"
            },
            {
              "internalType": "bool",
              "name": "ended",
              "type": "bool"
            }
          ],
          "internalType": "struct MarketPlace.Auction",
          "name": "",
          "type": "tuple"
        }
      ],
      "stateMutability": "view",
      "type": "function"
    },
    {
      "inputs": [
        {
          "internalType": "uint256",
          "name": "id",
          "type": "uint256"
        }
      ],
      "name": "getHistory",
      "outputs": [
        {
          "components": [
            {
              "internalType": "uint256",
              "name": "_recordId",
              "type": "uint256"
            },
            {
              "internalType": "uint256",
              "name": "_tokenId",
              "type": "uint256"
            },
            {
              "internalType": "address",
              "name": "seller",
              "type": "address"
            },
            {
              "internalType": "address",
              "name": "buyer",
              "type": "address"
            },
            {
              "internalType": "uint256",
              "name": "price",
              "type": "uint256"
            },
            {
              "internalType": "uint256",
              "name": "amount",
              "type": "uint256"
            },
            {
              "internalType": "string",
              "name": "time",
              "type": "string"
            },
            {
              "internalType": "string",
              "name": "des",
              "type": "string"
            }
          ],
          "internalType": "struct MarketPlace.History[]",
          "name": "",
          "type": "tuple[]"
        }
      ],
      "stateMutability": "view",
      "type": "function"
    },
    {
      "inputs": [
        {
          "internalType": "uint256",
          "name": "id",
          "type": "uint256"
        }
      ],
      "name": "getInfo",
      "outputs": [
        {
          "components": [
            {
              "internalType": "uint256",
              "name": "_tradeId",
              "type": "uint256"
            },
            {
              "internalType": "uint256",
              "name": "_tokenId",
              "type": "uint256"
            },
            {
              "internalType": "address",
              "name": "poster",
              "type": "address"
            },
            {
              "internalType": "address",
              "name": "token",
              "type": "address"
            },
            {
              "internalType": "uint256",
              "name": "price",
              "type": "uint256"
            },
            {
              "internalType": "uint256",
              "name": "amount",
              "type": "uint256"
            },
            {
              "internalType": "string",
              "name": "uri",
              "type": "string"
            },
            {
              "internalType": "bool",
              "name": "auction",
              "type": "bool"
            }
          ],
          "internalType": "struct MarketPlace.Trade",
          "name": "",
          "type": "tuple"
        }
      ],
      "stateMutability": "view",
      "type": "function"
    },
    {
      "inputs": [
        {
          "internalType": "address",
          "name": "sender",
          "type": "address"
        }
      ],
      "name": "getMyTokens",
      "outputs": [
        {
          "components": [
            {
              "internalType": "uint256",
              "name": "_itemId",
              "type": "uint256"
            },
            {
              "internalType": "uint256",
              "name": "_tokenId",
              "type": "uint256"
            },
            {
              "internalType": "uint256",
              "name": "initialSupply",
              "type": "uint256"
            },
            {
              "internalType": "uint256",
              "name": "publicSupply",
              "type": "uint256"
            },
            {
              "internalType": "address",
              "name": "token",
              "type": "address"
            },
            {
              "internalType": "address",
              "name": "creator",
              "type": "address"
            },
            {
              "internalType": "uint256",
              "name": "price",
              "type": "uint256"
            },
            {
              "internalType": "string",
              "name": "uri",
              "type": "string"
            }
          ],
          "internalType": "struct MarketPlace.TradeItem[]",
          "name": "",
          "type": "tuple[]"
        }
      ],
      "stateMutability": "view",
      "type": "function"
    },
    {
      "inputs": [],
      "name": "getNumber",
      "outputs": [
        {
          "internalType": "uint256",
          "name": "",
          "type": "uint256"
        }
      ],
      "stateMutability": "view",
      "type": "function"
    },
    {
      "inputs": [
        {
          "internalType": "address",
          "name": "sender",
          "type": "address"
        }
      ],
      "name": "getSellingTokens",
      "outputs": [
        {
          "components": [
            {
              "internalType": "uint256",
              "name": "_tradeId",
              "type": "uint256"
            },
            {
              "internalType": "uint256",
              "name": "_tokenId",
              "type": "uint256"
            },
            {
              "internalType": "address",
              "name": "poster",
              "type": "address"
            },
            {
              "internalType": "address",
              "name": "token",
              "type": "address"
            },
            {
              "internalType": "uint256",
              "name": "price",
              "type": "uint256"
            },
            {
              "internalType": "uint256",
              "name": "amount",
              "type": "uint256"
            },
            {
              "internalType": "string",
              "name": "uri",
              "type": "string"
            },
            {
              "internalType": "bool",
              "name": "auction",
              "type": "bool"
            }
          ],
          "internalType": "struct MarketPlace.Trade[]",
          "name": "",
          "type": "tuple[]"
        }
      ],
      "stateMutability": "view",
      "type": "function"
    },
    {
      "inputs": [
        {
          "internalType": "address",
          "name": "sender",
          "type": "address"
        }
      ],
      "name": "getWinTokens",
      "outputs": [
        {
          "components": [
            {
              "internalType": "uint256",
              "name": "_tradeId",
              "type": "uint256"
            },
            {
              "internalType": "uint256",
              "name": "_tokenId",
              "type": "uint256"
            },
            {
              "internalType": "address",
              "name": "poster",
              "type": "address"
            },
            {
              "internalType": "address",
              "name": "token",
              "type": "address"
            },
            {
              "internalType": "uint256",
              "name": "price",
              "type": "uint256"
            },
            {
              "internalType": "uint256",
              "name": "amount",
              "type": "uint256"
            },
            {
              "internalType": "string",
              "name": "uri",
              "type": "string"
            },
            {
              "internalType": "bool",
              "name": "auction",
              "type": "bool"
            }
          ],
          "internalType": "struct MarketPlace.Trade[]",
          "name": "",
          "type": "tuple[]"
        }
      ],
      "stateMutability": "view",
      "type": "function"
    },
    {
      "inputs": [
        {
          "internalType": "uint256",
          "name": "",
          "type": "uint256"
        }
      ],
      "name": "history",
      "outputs": [
        {
          "internalType": "uint256",
          "name": "_recordId",
          "type": "uint256"
        },
        {
          "internalType": "uint256",
          "name": "_tokenId",
          "type": "uint256"
        },
        {
          "internalType": "address",
          "name": "seller",
          "type": "address"
        },
        {
          "internalType": "address",
          "name": "buyer",
          "type": "address"
        },
        {
          "internalType": "uint256",
          "name": "price",
          "type": "uint256"
        },
        {
          "internalType": "uint256",
          "name": "amount",
          "type": "uint256"
        },
        {
          "internalType": "string",
          "name": "time",
          "type": "string"
        },
        {
          "internalType": "string",
          "name": "des",
          "type": "string"
        }
      ],
      "stateMutability": "view",
      "type": "function"
    },
    {
      "inputs": [
        {
          "internalType": "address",
          "name": "token",
          "type": "address"
        },
        {
          "internalType": "uint256",
          "name": "_tokenId",
          "type": "uint256"
        },
        {
          "internalType": "string",
          "name": "uri",
          "type": "string"
        },
        {
          "internalType": "string",
          "name": "time",
          "type": "string"
        }
      ],
      "name": "listToken",
      "outputs": [
        {
          "internalType": "uint256",
          "name": "",
          "type": "uint256"
        }
      ],
      "stateMutability": "nonpayable",
      "type": "function"
    },
    {
      "inputs": [
        {
          "internalType": "address",
          "name": "",
          "type": "address"
        },
        {
          "internalType": "address",
          "name": "",
          "type": "address"
        },
        {
          "internalType": "uint256",
          "name": "",
          "type": "uint256"
        },
        {
          "internalType": "uint256",
          "name": "",
          "type": "uint256"
        },
        {
          "internalType": "bytes",
          "name": "",
          "type": "bytes"
        }
      ],
      "name": "onERC1155Received",
      "outputs": [
        {
          "internalType": "bytes4",
          "name": "",
          "type": "bytes4"
        }
      ],
      "stateMutability": "nonpayable",
      "type": "function"
    },
    {
      "inputs": [],
      "name": "pay",
      "outputs": [],
      "stateMutability": "payable",
      "type": "function"
    },
    {
      "inputs": [
        {
          "internalType": "uint256",
          "name": "_itemId",
          "type": "uint256"
        },
        {
          "internalType": "uint256",
          "name": "_price",
          "type": "uint256"
        },
        {
          "internalType": "bool",
          "name": "_auction",
          "type": "bool"
        },
        {
          "internalType": "uint256",
          "name": "_bidTime",
          "type": "uint256"
        }
      ],
      "name": "publicToAll",
      "outputs": [],
      "stateMutability": "nonpayable",
      "type": "function"
    },
    {
      "inputs": [
        {
          "internalType": "uint256",
          "name": "_tradeId",
          "type": "uint256"
        },
        {
          "internalType": "string",
          "name": "_time",
          "type": "string"
        }
      ],
      "name": "refund",
      "outputs": [],
      "stateMutability": "nonpayable",
      "type": "function"
    },
    {
      "inputs": [
        {
          "internalType": "uint256",
          "name": "",
          "type": "uint256"
        }
      ],
      "name": "trades",
      "outputs": [
        {
          "internalType": "uint256",
          "name": "_tradeId",
          "type": "uint256"
        },
        {
          "internalType": "uint256",
          "name": "_tokenId",
          "type": "uint256"
        },
        {
          "internalType": "address",
          "name": "poster",
          "type": "address"
        },
        {
          "internalType": "address",
          "name": "token",
          "type": "address"
        },
        {
          "internalType": "uint256",
          "name": "price",
          "type": "uint256"
        },
        {
          "internalType": "uint256",
          "name": "amount",
          "type": "uint256"
        },
        {
          "internalType": "string",
          "name": "uri",
          "type": "string"
        },
        {
          "internalType": "bool",
          "name": "auction",
          "type": "bool"
        }
      ],
      "stateMutability": "view",
      "type": "function"
    }
  ],
  "bytecode": "0x60806040526000805560006001556000600255600060045534801561002357600080fd5b50600380546001600160a01b03191633179055614063806100456000396000f3fe6080604052600436106101755760003560e01c8063b19bdf21116100cb578063cc3305f91161007f578063f23a6e6111610059578063f23a6e611461042b578063f2c9ecd814610458578063f624609c1461047a57610175565b8063cc3305f9146103c4578063ce83ddf0146103f8578063e7c526291461041857610175565b8063c24796c0116100b0578063c24796c014610357578063c833845614610377578063c8691b2a1461039757610175565b8063b19bdf2114610331578063b7dc3b181461034457610175565b80633f2828731161012d57806378bd79351161010757806378bd7935146102b057806383562456146102dd578063a7a38f0b146102fd57610175565b80633f2828731461023d578063571a26a01461025d57806365670b5d1461029057610175565b80631b9265b81161015e5780631b9265b8146101dd5780631e6c598e146101e75780632a5c792a1461021b57610175565b8063175165921461017a5780631a3cd59a146101b0575b600080fd5b34801561018657600080fd5b5061019a61019536600461367f565b61049a565b6040516101a79190613aec565b60405180910390f35b3480156101bc57600080fd5b506101d06101cb366004613797565b61080e565b6040516101a79190613e10565b6101e5610929565b005b3480156101f357600080fd5b50610207610202366004613797565b61092b565b6040516101a7989796959493929190613e6c565b34801561022757600080fd5b50610230610a0a565b6040516101a79190613ba3565b34801561024957600080fd5b506101e561025836600461384e565b610c71565b34801561026957600080fd5b5061027d610278366004613797565b610efc565b6040516101a79796959493929190613e2c565b34801561029c57600080fd5b506101e56102ab3660046137c7565b610f48565b3480156102bc57600080fd5b506102d06102cb366004613797565b611234565b6040516101a79190613db1565b3480156102e957600080fd5b506102306102f836600461367f565b6112b0565b34801561030957600080fd5b5061031d610318366004613797565b61183c565b6040516101a7989796959493929190613ec9565b6101e561033f36600461389c565b61199e565b6101e56103523660046137c7565b611cc6565b34801561036357600080fd5b506101e561037236600461380c565b612058565b34801561038357600080fd5b5061019a61039236600461367f565b6124a8565b3480156103a357600080fd5b506103b76103b2366004613797565b61272a565b6040516101a79190613a15565b3480156103d057600080fd5b506103e46103df366004613797565b612a06565b6040516101a7989796959493929190613f31565b34801561040457600080fd5b5061023061041336600461367f565b612a5f565b6101e56104263660046137c7565b612ce4565b34801561043757600080fd5b5061044b610446366004613699565b613155565b6040516101a79190613c03565b34801561046457600080fd5b5061046d61317f565b6040516101a79190613e23565b34801561048657600080fd5b5061046d61049536600461371c565b613185565b60008054606091805b8281101561057e5760006005816104bb846001613f7c565b81526020810191909152604001600020600401546001600160a01b031662fdd58e876104e8856001613f7c565b6040518363ffffffff1660e01b81526004016105059291906139fc565b60206040518083038186803b15801561051d57600080fd5b505afa158015610531573d6000803e3d6000fd5b505050506040513d601f19601f8201168201806040525081019061055591906137af565b9050801561056b57610568600184613f7c565b92505b508061057681613fe6565b9150506104a3565b5060008167ffffffffffffffff8111156105a857634e487b7160e01b600052604160045260246000fd5b6040519080825280602002602001820160405280156105e157816020015b6105ce6133db565b8152602001906001900390816105c65790505b5090506000805b84811015610801576000600581610600846001613f7c565b81526020810191909152604001600020600401546001600160a01b031662fdd58e8961062d856001613f7c565b6040518363ffffffff1660e01b815260040161064a9291906139fc565b60206040518083038186803b15801561066257600080fd5b505afa158015610676573d6000803e3d6000fd5b505050506040513d601f19601f8201168201806040525081019061069a91906137af565b905080156107ee57600560006106b1846001613f7c565b81526020808201929092526040908101600020815161010081018352815481526001820154938101939093526002810154918301919091526003810154606083015260048101546001600160a01b03908116608084015260058201541660a0830152600681015460c083015260078101805460e08401919061073290613fab565b80601f016020809104026020016040519081016040528092919081815260200182805461075e90613fab565b80156107ab5780601f10610780576101008083540402835291602001916107ab565b820191906000526020600020905b81548152906001019060200180831161078e57829003601f168201915b5050505050815250508484815181106107d457634e487b7160e01b600052603260045260246000fd5b602002602001018190525082806107ea90613fe6565b9350505b50806107f981613fe6565b9150506105e8565b509093505050505b919050565b610816613432565b6000828152600660208181526040928390208351610100810185528154815260018201549281019290925260028101546001600160a01b03908116948301949094526003810154909316606082015260048301546080820152600583015460a0820152908201805491929160c08401919061089090613fab565b80601f01602080910402602001604051908101604052809291908181526020018280546108bc90613fab565b80156109095780601f106108de57610100808354040283529160200191610909565b820191906000526020600020905b8154815290600101906020018083116108ec57829003601f168201915b50505091835250506007919091015460ff16151560209091015292915050565b565b60066020819052600091825260409091208054600182015460028301546003840154600485015460058601549686018054959794966001600160a01b039485169693909416949193919261097e90613fab565b80601f01602080910402602001604051908101604052809291908181526020018280546109aa90613fab565b80156109f75780601f106109cc576101008083540402835291602001916109f7565b820191906000526020600020905b8154815290600101906020018083116109da57829003601f168201915b5050506007909301549192505060ff1688565b6002546060906000805b82811015610a64576000600681610a2c846001613f7c565b8152602001908152602001600020600501541115610a5257610a4f600183613f7c565b91505b80610a5c81613fe6565b915050610a14565b5060008167ffffffffffffffff811115610a8e57634e487b7160e01b600052604160045260246000fd5b604051908082528060200260200182016040528015610ac757816020015b610ab4613432565b815260200190600190039081610aac5790505b5090506000805b84811015610c67576000600681610ae6846001613f7c565b8152602001908152602001600020600501541115610c555760066000610b0d836001613f7c565b815260208082019290925260409081016000208151610100810183528154815260018201549381019390935260028101546001600160a01b03908116928401929092526003810154909116606083015260048101546080830152600581015460a083015260068101805460c084019190610b8690613fab565b80601f0160208091040260200160405190810160405280929190818152602001828054610bb290613fab565b8015610bff5780601f10610bd457610100808354040283529160200191610bff565b820191906000526020600020905b815481529060010190602001808311610be257829003601f168201915b50505091835250506007919091015460ff1615156020909101528351849084908110610c3b57634e487b7160e01b600052603260045260246000fd5b60200260200101819052508180610c5190613fe6565b9250505b80610c5f81613fe6565b915050610ace565b5090935050505090565b60008381526006602081815260408084208151610100810183528154815260018201549381019390935260028101546001600160a01b03908116928401929092526003810154909116606083015260048101546080830152600581015460a0830152918201805491929160c084019190610cea90613fab565b80601f0160208091040260200160405190810160405280929190818152602001828054610d1690613fab565b8015610d635780601f10610d3857610100808354040283529160200191610d63565b820191906000526020600020905b815481529060010190602001808311610d4657829003601f168201915b50505091835250506007919091015460ff16151560209091015260408101519091506001600160a01b03163314610db55760405162461bcd60e51b8152600401610dac90613d0c565b60405180910390fd5b60008481526006602052604081206004018490556001805490918291610ddc908390613f7c565b9091555050604080516101008101825260018054808352602085810151818501908152868601516001600160a01b03908116868801908152600060608801818152608089018d815260a0808d0151908b0190815260c08b018e81528c51808e018e52600c81527f6368616e67652070726963650000000000000000000000000000000000000000818b015260e08d0152988452600788529a9092208951815594519785019790975590516002840180549184166001600160a01b03199283161790559551600384018054919093169616959095179055925160048401559351600583015551805192939192610ed7926006850192019061348b565b5060e08201518051610ef391600784019160209091019061348b565b50505050505050565b600860205260009081526040902080546001820154600283015460038401546004850154600586015460069096015494956001600160a01b039485169593949293929091169160ff1687565b60008281526006602081815260408084208151610100810183528154815260018201549381019390935260028101546001600160a01b03908116928401929092526003810154909116606083015260048101546080830152600581015460a0830152918201805491929160c084019190610fc190613fab565b80601f0160208091040260200160405190810160405280929190818152602001828054610fed90613fab565b801561103a5780601f1061100f5761010080835404028352916020019161103a565b820191906000526020600020905b81548152906001019060200180831161101d57829003601f168201915b50505091835250506007919091015460ff1615156020918201526060820151604080840151928401519051637921219560e11b81529394506001600160a01b039091169263f242432a926110959230926001906004016139c4565b600060405180830381600087803b1580156110af57600080fd5b505af11580156110c3573d6000803e3d6000fd5b5050505060018060008282546110d99190613f7c565b9091555050604080516101008101825260018054808352602085810151818501908152600085870181815233606088019081526080808b015190890190815260a0890188815260c08a018d81528b51808d018d5260068082527f726566756e640000000000000000000000000000000000000000000000000000828b015260e08d0191909152988652600788529a9094208951815594519785019790975590516002840180546001600160a01b03199081166001600160a01b039384161790915591516003850180549093169116179055935160048201559251600584015593518051939492936111d29392850192919091019061348b565b5060e082015180516111ee91600784019160209091019061348b565b505050600092835250506008602090815260408083206006908101805460ff191660011790559091528120600581019190915560020180546001600160a01b0319169055565b61123c61350f565b50600090815260086020908152604091829020825160e0810184528154815260018201546001600160a01b03908116938201939093526002820154938101939093526003810154606084015260048101549091166080830152600581015460a08301526006015460ff16151560c082015290565b6002546060906000805b828110156113fd57600660006112d1836001613f7c565b815260208101919091526040016000206007015460ff161515600114801561131c575060086000611303836001613f7c565b815260208101919091526040016000206006015460ff16155b156113eb576001600160a01b0385166008600061133a846001613f7c565b81526020810191909152604001600020600401546001600160a01b0316141561136b57611368600183613f7c565b91505b600060088161137b846001613f7c565b81526020810191909152604001600020600401546001600160a01b03161480156113d857506001600160a01b038516600860006113b9846001613f7c565b81526020810191909152604001600020600101546001600160a01b0316145b156113eb576113e8600183613f7c565b91505b806113f581613fe6565b9150506112ba565b5060008167ffffffffffffffff81111561142757634e487b7160e01b600052604160045260246000fd5b60405190808252806020026020018201604052801561146057816020015b61144d613432565b8152602001906001900390816114455790505b5090506000805b84811015610801576006600061147e836001613f7c565b815260208101919091526040016000206007015460ff16151560011480156114c95750600860006114b0836001613f7c565b815260208101919091526040016000206006015460ff16155b1561182a576001600160a01b038716600860006114e7846001613f7c565b81526020810191909152604001600020600401546001600160a01b031614156116615760066000611519836001613f7c565b815260208082019290925260409081016000208151610100810183528154815260018201549381019390935260028101546001600160a01b03908116928401929092526003810154909116606083015260048101546080830152600581015460a083015260068101805460c08401919061159290613fab565b80601f01602080910402602001604051908101604052809291908181526020018280546115be90613fab565b801561160b5780601f106115e05761010080835404028352916020019161160b565b820191906000526020600020905b8154815290600101906020018083116115ee57829003601f168201915b50505091835250506007919091015460ff161515602090910152835184908490811061164757634e487b7160e01b600052603260045260246000fd5b6020026020010181905250818061165d90613fe6565b9250505b6000600881611671846001613f7c565b81526020810191909152604001600020600401546001600160a01b03161480156116ce57506001600160a01b038716600860006116af846001613f7c565b81526020810191909152604001600020600101546001600160a01b0316145b1561182a57600660006116e2836001613f7c565b815260208082019290925260409081016000208151610100810183528154815260018201549381019390935260028101546001600160a01b03908116928401929092526003810154909116606083015260048101546080830152600581015460a083015260068101805460c08401919061175b90613fab565b80601f016020809104026020016040519081016040528092919081815260200182805461178790613fab565b80156117d45780601f106117a9576101008083540402835291602001916117d4565b820191906000526020600020905b8154815290600101906020018083116117b757829003601f168201915b50505091835250506007919091015460ff161515602090910152835184908490811061181057634e487b7160e01b600052603260045260246000fd5b6020026020010181905250818061182690613fe6565b9250505b8061183481613fe6565b915050611467565b6007602052600090815260409020805460018201546002830154600384015460048501546005860154600687018054969795966001600160a01b039586169694909516949293919261188d90613fab565b80601f01602080910402602001604051908101604052809291908181526020018280546118b990613fab565b80156119065780601f106118db57610100808354040283529160200191611906565b820191906000526020600020905b8154815290600101906020018083116118e957829003601f168201915b50505050509080600701805461191b90613fab565b80601f016020809104026020016040519081016040528092919081815260200182805461194790613fab565b80156119945780601f1061196957610100808354040283529160200191611994565b820191906000526020600020905b81548152906001019060200180831161197757829003601f168201915b5050505050905088565b600084815260086020908152604091829020825160e0810184528154815260018201546001600160a01b039081169382019390935260028201549381019390935260038101546060840181905260048201549092166080840152600581015460a08401526006015460ff16151560c0830152841115611a2f5760405162461bcd60e51b8152600401610dac90613cd5565b8060a001518211611a525760405162461bcd60e51b8152600401610dac90613c67565b60008581526006602081815260408084208151610100810183528154815260018201549381019390935260028101546001600160a01b03908116928401929092526003810154909116606083015260048101546080830152600581015460a0830152918201805491929160c084019190611acb90613fab565b80601f0160208091040260200160405190810160405280929190818152602001828054611af790613fab565b8015611b445780601f10611b1957610100808354040283529160200191611b44565b820191906000526020600020905b815481529060010190602001808311611b2757829003601f168201915b50505091835250506007919091015460ff16151560209091015260018054919250908190600090611b76908390613f7c565b909155505060408051610100810182526001805480835260208581015181850190815233858701908152600060608701818152608088018c815260a0890188815260c08a018f81528b51808d018d52600981527f706c616365206269640000000000000000000000000000000000000000000000818a015260e08c015297845260078752999092208851815593519684019690965590516002830180546001600160a01b03199081166001600160a01b03938416179091559551600384018054909716911617909455925160048401559351600583015551805192939192611c64926006850192019061348b565b5060e08201518051611c8091600784019160209091019061348b565b505050600095865250506006602090815260408086206004908101849055600890925290942093840180546001600160a01b031916331790556005909301929092555050565b60008281526006602081815260408084208151610100810183528154815260018201549381019390935260028101546001600160a01b03908116928401929092526003810154909116606083015260048101546080830152600581015460a0830152918201805491929160c084019190611d3f90613fab565b80601f0160208091040260200160405190810160405280929190818152602001828054611d6b90613fab565b8015611db85780601f10611d8d57610100808354040283529160200191611db8565b820191906000526020600020905b815481529060010190602001808311611d9b57829003601f168201915b50505091835250506007919091015460ff16151560209091015260a081015190915060011115611dfa5760405162461bcd60e51b8152600401610dac90613c30565b60408101516001600160a01b0316331415611e275760405162461bcd60e51b8152600401610dac90613d7a565b6001806000828254611e399190613f7c565b9091555050604080516101008101825260018054808352602085810151818501908152868601516001600160a01b0390811686880190815233606088019081526080808b015190890190815260a0890188815260c08a018d81528b51808d018d52600b81526a3a3930b739b0b1ba34b7b760a91b818a015260e08c01526000988952600788529a9097208951815594519785019790975590516002840180549184166001600160a01b0319928316179055905160038401805491909316911617905592516004840155905160058301559251805192939192611f21926006850192019061348b565b5060e08201518051611f3d91600784019160209091019061348b565b50505060608101516020820151604051637921219560e11b81526001600160a01b039092169163f242432a91611f7c91309133916001906004016139c4565b600060405180830381600087803b158015611f9657600080fd5b505af1158015611faa573d6000803e3d6000fd5b505050600084815260066020526040902060050154611fcc9150600190613f94565b600084815260066020526040808220600501929092558282015191516001600160a01b03909216913480156108fc0292909190818181858888f1935050505015801561201c573d6000803e3d6000fd5b5060008381526006602052604090206005015461205357600083815260066020526040902060020180546001600160a01b03191690555b505050565b6000848152600560208181526040808420815161010081018352815481526001820154938101939093526002810154918301919091526003810154606083015260048101546001600160a01b0390811660808401529281015490921660a0820152600682015460c082015260078201805491929160e0840191906120db90613fab565b80601f016020809104026020016040519081016040528092919081815260200182805461210790613fab565b80156121545780601f1061212957610100808354040283529160200191612154565b820191906000526020600020905b81548152906001019060200180831161213757829003601f168201915b5050509190925250505060008681526005602052604080822060049081015491517efdd58e00000000000000000000000000000000000000000000000000000000815293945091926001600160a01b039091169162fdd58e916121bb9133918b91016139fc565b60206040518083038186803b1580156121d357600080fd5b505afa1580156121e7573d6000803e3d6000fd5b505050506040513d601f19601f8201168201806040525081019061220b91906137af565b9050600181101561222e5760405162461bcd60e51b8152600401610dac90613c30565b6001600260008282546122419190613f7c565b92505081905550604051806101000160405280600254815260200183602001518152602001336001600160a01b0316815260200183608001516001600160a01b03168152602001868152602001600181526020018360e001518152602001851515815250600660006002548152602001908152602001600020600082015181600001556020820151816001015560408201518160020160006101000a8154816001600160a01b0302191690836001600160a01b0316021790555060608201518160030160006101000a8154816001600160a01b0302191690836001600160a01b031602179055506080820151816004015560a0820151816005015560c082015181600601908051906020019061235892919061348b565b5060e091909101516007909101805460ff191691151591909117905583151560011415612432576040805160e0810182526002805480835233602080850191825242858701908152606086018a815260006080880181815260a0890182815260c08a0183815297835260089095529890209651875592516001870180546001600160a01b039283166001600160a01b031991821617909155915195870195909555915160038601559451600485018054919094169116179091559151600582015590516006909101805491151560ff199092169190911790555b60808201516020830151604051637921219560e11b81526001600160a01b039092169163f242432a9161246e91339130916001906004016139c4565b600060405180830381600087803b15801561248857600080fd5b505af115801561249c573d6000803e3d6000fd5b50505050505050505050565b6000805460609180805b83811015612516576001600160a01b038616600560006124d3846001613f7c565b81526020810191909152604001600020600501546001600160a01b0316141561250457612501600184613f7c565b92505b8061250e81613fe6565b9150506124b2565b5060008267ffffffffffffffff81111561254057634e487b7160e01b600052604160045260246000fd5b60405190808252806020026020018201604052801561257957816020015b6125666133db565b81526020019060019003908161255e5790505b50905060005b84811015612720576001600160a01b038716600560006125a0846001613f7c565b81526020810191909152604001600020600501546001600160a01b0316141561270e57600560006125d2836001613f7c565b81526020808201929092526040908101600020815161010081018352815481526001820154938101939093526002810154918301919091526003810154606083015260048101546001600160a01b03908116608084015260058201541660a0830152600681015460c083015260078101805460e08401919061265390613fab565b80601f016020809104026020016040519081016040528092919081815260200182805461267f90613fab565b80156126cc5780601f106126a1576101008083540402835291602001916126cc565b820191906000526020600020905b8154815290600101906020018083116126af57829003601f168201915b5050505050815250508284815181106126f557634e487b7160e01b600052603260045260246000fd5b602090810291909101015261270b600184613f7c565b92505b8061271881613fe6565b91505061257f565b5095945050505050565b6001546060906000805b8281101561278457846007600061274c846001613f7c565b81526020019081526020016000206001015414156127725761276f600183613f7c565b91505b8061277c81613fe6565b915050612734565b5060008167ffffffffffffffff8111156127ae57634e487b7160e01b600052604160045260246000fd5b6040519080825280602002602001820160405280156127e757816020015b6127d4613560565b8152602001906001900390816127cc5790505b5090506000805b84811015610801578660076000612806846001613f7c565b81526020019081526020016000206001015414156129f4576007600061282d836001613f7c565b815260208082019290925260409081016000208151610100810183528154815260018201549381019390935260028101546001600160a01b03908116928401929092526003810154909116606083015260048101546080830152600581015460a083015260068101805460c0840191906128a690613fab565b80601f01602080910402602001604051908101604052809291908181526020018280546128d290613fab565b801561291f5780601f106128f45761010080835404028352916020019161291f565b820191906000526020600020905b81548152906001019060200180831161290257829003601f168201915b5050505050815260200160078201805461293890613fab565b80601f016020809104026020016040519081016040528092919081815260200182805461296490613fab565b80156129b15780601f10612986576101008083540402835291602001916129b1565b820191906000526020600020905b81548152906001019060200180831161299457829003601f168201915b5050505050815250508383815181106129da57634e487b7160e01b600052603260045260246000fd5b602002602001018190525081806129f090613fe6565b9250505b806129fe81613fe6565b9150506127ee565b60056020819052600091825260409091208054600182015460028301546003840154600485015495850154600686015460078701805496989597949693956001600160a01b039081169593169391929161191b90613fab565b6002546060906000805b82811015612acd576001600160a01b03851660066000612a8a846001613f7c565b81526020810191909152604001600020600201546001600160a01b03161415612abb57612ab8600183613f7c565b91505b80612ac581613fe6565b915050612a69565b5060008167ffffffffffffffff811115612af757634e487b7160e01b600052604160045260246000fd5b604051908082528060200260200182016040528015612b3057816020015b612b1d613432565b815260200190600190039081612b155790505b5090506000805b84811015610801576001600160a01b03871660066000612b58846001613f7c565b81526020810191909152604001600020600201546001600160a01b03161415612cd25760066000612b8a836001613f7c565b815260208082019290925260409081016000208151610100810183528154815260018201549381019390935260028101546001600160a01b03908116928401929092526003810154909116606083015260048101546080830152600581015460a083015260068101805460c084019190612c0390613fab565b80601f0160208091040260200160405190810160405280929190818152602001828054612c2f90613fab565b8015612c7c5780601f10612c5157610100808354040283529160200191612c7c565b820191906000526020600020905b815481529060010190602001808311612c5f57829003601f168201915b50505091835250506007919091015460ff1615156020909101528351849084908110612cb857634e487b7160e01b600052603260045260246000fd5b60200260200101819052508180612cce90613fe6565b9250505b80612cdc81613fe6565b915050612b37565b6000600860008481526020019081526020016000206040518060e0016040529081600082015481526020016001820160009054906101000a90046001600160a01b03166001600160a01b03166001600160a01b0316815260200160028201548152602001600382015481526020016004820160009054906101000a90046001600160a01b03166001600160a01b03166001600160a01b03168152602001600582015481526020016006820160009054906101000a900460ff16151515158152505090506000600660008581526020019081526020016000206040518061010001604052908160008201548152602001600182015481526020016002820160009054906101000a90046001600160a01b03166001600160a01b03166001600160a01b031681526020016003820160009054906101000a90046001600160a01b03166001600160a01b03166001600160a01b031681526020016004820154815260200160058201548152602001600682018054612e5e90613fab565b80601f0160208091040260200160405190810160405280929190818152602001828054612e8a90613fab565b8015612ed75780601f10612eac57610100808354040283529160200191612ed7565b820191906000526020600020905b815481529060010190602001808311612eba57829003601f168201915b50505091835250506007919091015460ff16151560209091015260808301519091506001600160a01b03163314612f205760405162461bcd60e51b8152600401610dac90613c9e565b8160a001513414612f435760405162461bcd60e51b8152600401610dac90613d43565b606081015160808301516020830151604051637921219560e11b81526001600160a01b039093169263f242432a92612f829230926001906004016139c4565b600060405180830381600087803b158015612f9c57600080fd5b505af1158015612fb0573d6000803e3d6000fd5b50505060208301516040516001600160a01b0390911691503480156108fc02916000818181858888f19350505050158015612fef573d6000803e3d6000fd5b5060018060008282546130029190613f7c565b9091555050604080516101008101825260018054808352602085810151818501908152868601516001600160a01b039081168688019081526080808b0151831660608901908152818b015191890191825260a0890188815260c08a018e81528b51808d018d52600b81526a3a3930b739b0b1ba34b7b760a91b818a015260e08c01526000988952600788529a9097208951815594519785019790975590516002840180549184166001600160a01b03199283161790559551600384018054919093169616959095179055925160048401559051600583015592518051929391926130f2926006850192019061348b565b5060e0820151805161310e91600784019160209091019061348b565b505050600093845250506008602090815260408084206006908101805460ff19166001179055909152822060058101929092555060020180546001600160a01b0319169055565b7ff23a6e610000000000000000000000000000000000000000000000000000000095945050505050565b60005490565b600060016000808282546131999190613f7c565b9250508190555060405180610100016040528060005481526020018581526020016001815260200160008152602001866001600160a01b03168152602001336001600160a01b03168152602001600081526020018481525060056000805481526020019081526020016000206000820151816000015560208201518160010155604082015181600201556060820151816003015560808201518160040160006101000a8154816001600160a01b0302191690836001600160a01b0316021790555060a08201518160050160006101000a8154816001600160a01b0302191690836001600160a01b0316021790555060c0820151816006015560e08201518160070190805190602001906132ad92919061348b565b5090505060018060008282546132c39190613f7c565b909155505060408051610100810182526001805480835260008054602080860191825233868801908152606087018481526080880185815260a0890188815260c08a018d81528b51808d018d5260078082527f63726561746564000000000000000000000000000000000000000000000000008289015260e08d01919091529888529785529990952088518155935196840196909655516002830180546001600160a01b03199081166001600160a01b0393841617909155955160038401805490971691161790945590516004820155935160058501555180519293926133b0926006850192019061348b565b5060e082015180516133cc91600784019160209091019061348b565b50506000549695505050505050565b6040518061010001604052806000815260200160008152602001600081526020016000815260200160006001600160a01b0316815260200160006001600160a01b0316815260200160008152602001606081525090565b604051806101000160405280600081526020016000815260200160006001600160a01b0316815260200160006001600160a01b031681526020016000815260200160008152602001606081526020016000151581525090565b82805461349790613fab565b90600052602060002090601f0160209004810192826134b957600085556134ff565b82601f106134d257805160ff19168380011785556134ff565b828001600101855582156134ff579182015b828111156134ff5782518255916020019190600101906134e4565b5061350b9291506135b7565b5090565b6040518060e001604052806000815260200160006001600160a01b03168152602001600081526020016000815260200160006001600160a01b03168152602001600081526020016000151581525090565b604051806101000160405280600081526020016000815260200160006001600160a01b0316815260200160006001600160a01b03168152602001600081526020016000815260200160608152602001606081525090565b5b8082111561350b57600081556001016135b8565b600067ffffffffffffffff808411156135e7576135e7614017565b604051601f8501601f19908116603f0116810190828211818310171561360f5761360f614017565b8160405280935085815286868601111561362857600080fd5b858560208301376000602087830101525050509392505050565b80356001600160a01b038116811461080957600080fd5b600082601f830112613669578081fd5b613678838335602085016135cc565b9392505050565b600060208284031215613690578081fd5b61367882613642565b600080600080600060a086880312156136b0578081fd5b6136b986613642565b94506136c760208701613642565b93506040860135925060608601359150608086013567ffffffffffffffff8111156136f0578182fd5b8601601f81018813613700578182fd5b61370f888235602084016135cc565b9150509295509295909350565b60008060008060808587031215613731578384fd5b61373a85613642565b935060208501359250604085013567ffffffffffffffff8082111561375d578384fd5b61376988838901613659565b9350606087013591508082111561377e578283fd5b5061378b87828801613659565b91505092959194509250565b6000602082840312156137a8578081fd5b5035919050565b6000602082840312156137c0578081fd5b5051919050565b600080604083850312156137d9578182fd5b82359150602083013567ffffffffffffffff8111156137f6578182fd5b61380285828601613659565b9150509250929050565b60008060008060808587031215613821578384fd5b84359350602085013592506040850135801515811461383e578283fd5b9396929550929360600135925050565b600080600060608486031215613862578283fd5b8335925060208401359150604084013567ffffffffffffffff811115613886578182fd5b61389286828701613659565b9150509250925092565b600080600080608085870312156138b1578384fd5b8435935060208501359250604085013567ffffffffffffffff8111156138d5578283fd5b6138e187828801613659565b949793965093946060013593505050565b6001600160a01b03169052565b60008151808452815b8181101561392457602081850181015186830182015201613908565b818111156139355782602083870101525b50601f01601f19169290920160200192915050565b6000610100825184526020830151602085015260408301516001600160a01b03808216604087015280606086015116606087015250506080830151608085015260a083015160a085015260c08301518160c08601526139ab828601826138ff565b91505060e0830151151560e08501528091505092915050565b6001600160a01b0394851681529290931660208301526040820152606081019190915260a06080820181905260009082015260c00190565b6001600160a01b03929092168252602082015260400190565b60208082528251828201819052600091906040908185019080840286018301878501865b83811015613ade57603f1989840301855281516101008151855288820151898601526001600160a01b03888301511688860152606080830151613a7e828801826138f2565b50506080828101519086015260a0808301519086015260c080830151818701839052613aac838801826138ff565b9250505060e08083015192508582038187015250613aca81836138ff565b968901969450505090860190600101613a39565b509098975050505050505050565b60208082528251828201819052600091906040908185019080840286018301878501865b83811015613ade57888303603f1901855281518051845287810151888501528681015187850152606080820151908501526080808201516001600160a01b03169085015260a0808201516101009190613b6b828801826138f2565b505060c0828101519086015260e091820151918501819052613b8f818601836138ff565b968901969450505090860190600101613b10565b6000602080830181845280855180835260408601915060408482028701019250838701855b82811015613bf657603f19888603018452613be485835161394a565b94509285019290850190600101613bc8565b5092979650505050505050565b7fffffffff0000000000000000000000000000000000000000000000000000000091909116815260200190565b60208082526011908201527f4e6f7420656e6f75676820737570706c79000000000000000000000000000000604082015260600190565b60208082526010908201527f4e6f7420656e6f75676820707269636500000000000000000000000000000000604082015260600190565b60208082526015908201527f636f727265637420686967686573744269646465720000000000000000000000604082015260600190565b60208082526009908201527f6f7665722074696d650000000000000000000000000000000000000000000000604082015260600190565b6020808252600d908201527f4e6f7420746865206f776e657200000000000000000000000000000000000000604082015260600190565b60208082526011908201527f4e6f7420636f7272656374207072696365000000000000000000000000000000604082015260600190565b60208082526016908201527f53656c6c6572206e6f7420746f20626520627579657200000000000000000000604082015260600190565b600060e0820190508251825260208301516001600160a01b0380821660208501526040850151604085015260608501516060850152806080860151166080850152505060a083015160a083015260c0830151151560c083015292915050565b600060208252613678602083018461394a565b90815260200190565b9687526001600160a01b03958616602088015260408701949094526060860192909252909216608084015260a0830191909152151560c082015260e00190565b60006101008a83528960208401526001600160a01b03808a1660408501528089166060850152508660808401528560a08401528060c0840152613eb1818401866138ff565b91505082151560e08301529998505050505050505050565b60006101008a83528960208401526001600160a01b03808a1660408501528089166060850152508660808401528560a08401528060c0840152613f0e818401866138ff565b905082810360e0840152613f2281856138ff565b9b9a5050505050505050505050565b60006101008a83528960208401528860408401528760608401526001600160a01b03808816608085015280871660a0850152508460c08401528060e0840152613f22818401856138ff565b60008219821115613f8f57613f8f614001565b500190565b600082821015613fa657613fa6614001565b500390565b600281046001821680613fbf57607f821691505b60208210811415613fe057634e487b7160e01b600052602260045260246000fd5b50919050565b6000600019821415613ffa57613ffa614001565b5060010190565b634e487b7160e01b600052601160045260246000fd5b634e487b7160e01b600052604160045260246000fdfea26469706673582212207582382c1507d66dbdfef1f632646e2593ffda91c524b113bacfcbcf3cd67fd064736f6c63430008010033",
  "linkReferences": {},
  "deployedLinkReferences": {}
}