{
  "_format": "hh-sol-artifact-1",
  "contractName": "MarketPlace",
  "sourceName": "contracts/MarketPlace.sol",
  "abi": [
    {
      "inputs": [],
      "stateMutability": "nonpayable",
      "type": "constructor"
    },
    {
      "inputs": [
        {
          "internalType": "uint256",
          "name": "",
          "type": "uint256"
        }
      ],
      "name": "TradeItems",
      "outputs": [
        {
          "internalType": "uint256",
          "name": "_itemId",
          "type": "uint256"
        },
        {
          "internalType": "uint256",
          "name": "_tokenId",
          "type": "uint256"
        },
        {
          "internalType": "uint256",
          "name": "initialSupply",
          "type": "uint256"
        },
        {
          "internalType": "uint256",
          "name": "publicSupply",
          "type": "uint256"
        },
        {
          "internalType": "address",
          "name": "token",
          "type": "address"
        },
        {
          "internalType": "address",
          "name": "creator",
          "type": "address"
        },
        {
          "internalType": "uint256",
          "name": "price",
          "type": "uint256"
        },
        {
          "internalType": "string",
          "name": "uri",
          "type": "string"
        },
        {
          "internalType": "uint256",
          "name": "royaltyAmount",
          "type": "uint256"
        }
      ],
      "stateMutability": "view",
      "type": "function"
    },
    {
      "inputs": [
        {
          "internalType": "uint256",
          "name": "_tradeId",
          "type": "uint256"
        },
        {
          "internalType": "string",
          "name": "_time",
          "type": "string"
        }
      ],
      "name": "auctionEnd",
      "outputs": [],
      "stateMutability": "payable",
      "type": "function"
    },
    {
      "inputs": [
        {
          "internalType": "uint256",
          "name": "",
          "type": "uint256"
        }
      ],
      "name": "auctions",
      "outputs": [
        {
          "internalType": "uint256",
          "name": "_tradeId",
          "type": "uint256"
        },
        {
          "internalType": "address",
          "name": "beneficiary",
          "type": "address"
        },
        {
          "internalType": "uint256",
          "name": "auctionStart",
          "type": "uint256"
        },
        {
          "internalType": "uint256",
          "name": "biddingTime",
          "type": "uint256"
        },
        {
          "internalType": "address",
          "name": "highestBidder",
          "type": "address"
        },
        {
          "internalType": "uint256",
          "name": "highestBid",
          "type": "uint256"
        },
        {
          "internalType": "bool",
          "name": "ended",
          "type": "bool"
        }
      ],
      "stateMutability": "view",
      "type": "function"
    },
    {
      "inputs": [
        {
          "internalType": "uint256",
          "name": "_tradeId",
          "type": "uint256"
        },
        {
          "internalType": "uint256",
          "name": "_now",
          "type": "uint256"
        },
        {
          "internalType": "string",
          "name": "time",
          "type": "string"
        },
        {
          "internalType": "uint256",
          "name": "_price",
          "type": "uint256"
        }
      ],
      "name": "bid",
      "outputs": [],
      "stateMutability": "payable",
      "type": "function"
    },
    {
      "inputs": [
        {
          "internalType": "uint256",
          "name": "_tradeId",
          "type": "uint256"
        },
        {
          "internalType": "string",
          "name": "time",
          "type": "string"
        }
      ],
      "name": "buy",
      "outputs": [],
      "stateMutability": "payable",
      "type": "function"
    },
    {
      "inputs": [
        {
          "internalType": "uint256",
          "name": "_tradeId",
          "type": "uint256"
        },
        {
          "internalType": "uint256",
          "name": "_price",
          "type": "uint256"
        },
        {
          "internalType": "string",
          "name": "time",
          "type": "string"
        }
      ],
      "name": "changePrice",
      "outputs": [],
      "stateMutability": "nonpayable",
      "type": "function"
    },
    {
      "inputs": [
        {
          "internalType": "address",
          "name": "sender",
          "type": "address"
        }
      ],
      "name": "fetchItemsCreated",
      "outputs": [
        {
          "components": [
            {
              "internalType": "uint256",
              "name": "_itemId",
              "type": "uint256"
            },
            {
              "internalType": "uint256",
              "name": "_tokenId",
              "type": "uint256"
            },
            {
              "internalType": "uint256",
              "name": "initialSupply",
              "type": "uint256"
            },
            {
              "internalType": "uint256",
              "name": "publicSupply",
              "type": "uint256"
            },
            {
              "internalType": "address",
              "name": "token",
              "type": "address"
            },
            {
              "internalType": "address",
              "name": "creator",
              "type": "address"
            },
            {
              "internalType": "uint256",
              "name": "price",
              "type": "uint256"
            },
            {
              "internalType": "string",
              "name": "uri",
              "type": "string"
            },
            {
              "internalType": "uint256",
              "name": "royaltyAmount",
              "type": "uint256"
            }
          ],
          "internalType": "struct MarketPlace.TradeItem[]",
          "name": "",
          "type": "tuple[]"
        }
      ],
      "stateMutability": "view",
      "type": "function"
    },
    {
      "inputs": [],
      "name": "getAllTokens",
      "outputs": [
        {
          "components": [
            {
              "internalType": "uint256",
              "name": "_tradeId",
              "type": "uint256"
            },
            {
              "internalType": "uint256",
              "name": "_tokenId",
              "type": "uint256"
            },
            {
              "internalType": "address",
              "name": "poster",
              "type": "address"
            },
            {
              "internalType": "address",
              "name": "token",
              "type": "address"
            },
            {
              "internalType": "uint256",
              "name": "price",
              "type": "uint256"
            },
            {
              "internalType": "uint256",
              "name": "amount",
              "type": "uint256"
            },
            {
              "internalType": "string",
              "name": "uri",
              "type": "string"
            },
            {
              "internalType": "bool",
              "name": "auction",
              "type": "bool"
            }
          ],
          "internalType": "struct MarketPlace.Trade[]",
          "name": "",
          "type": "tuple[]"
        }
      ],
      "stateMutability": "view",
      "type": "function"
    },
    {
      "inputs": [
        {
          "internalType": "uint256",
          "name": "id",
          "type": "uint256"
        }
      ],
      "name": "getAuction",
      "outputs": [
        {
          "components": [
            {
              "internalType": "uint256",
              "name": "_tradeId",
              "type": "uint256"
            },
            {
              "internalType": "address",
              "name": "beneficiary",
              "type": "address"
            },
            {
              "internalType": "uint256",
              "name": "auctionStart",
              "type": "uint256"
            },
            {
              "internalType": "uint256",
              "name": "biddingTime",
              "type": "uint256"
            },
            {
              "internalType": "address",
              "name": "highestBidder",
              "type": "address"
            },
            {
              "internalType": "uint256",
              "name": "highestBid",
              "type": "uint256"
            },
            {
              "internalType": "bool",
              "name": "ended",
              "type": "bool"
            }
          ],
          "internalType": "struct MarketPlace.Auction",
          "name": "",
          "type": "tuple"
        }
      ],
      "stateMutability": "view",
      "type": "function"
    },
    {
      "inputs": [
        {
          "internalType": "uint256",
          "name": "id",
          "type": "uint256"
        }
      ],
      "name": "getHistory",
      "outputs": [
        {
          "components": [
            {
              "internalType": "uint256",
              "name": "_recordId",
              "type": "uint256"
            },
            {
              "internalType": "uint256",
              "name": "_tokenId",
              "type": "uint256"
            },
            {
              "internalType": "address",
              "name": "seller",
              "type": "address"
            },
            {
              "internalType": "address",
              "name": "buyer",
              "type": "address"
            },
            {
              "internalType": "uint256",
              "name": "price",
              "type": "uint256"
            },
            {
              "internalType": "uint256",
              "name": "amount",
              "type": "uint256"
            },
            {
              "internalType": "string",
              "name": "time",
              "type": "string"
            },
            {
              "internalType": "string",
              "name": "des",
              "type": "string"
            }
          ],
          "internalType": "struct MarketPlace.History[]",
          "name": "",
          "type": "tuple[]"
        }
      ],
      "stateMutability": "view",
      "type": "function"
    },
    {
      "inputs": [
        {
          "internalType": "address",
          "name": "sender",
          "type": "address"
        }
      ],
      "name": "getMyTokens",
      "outputs": [
        {
          "components": [
            {
              "internalType": "uint256",
              "name": "_itemId",
              "type": "uint256"
            },
            {
              "internalType": "uint256",
              "name": "_tokenId",
              "type": "uint256"
            },
            {
              "internalType": "uint256",
              "name": "initialSupply",
              "type": "uint256"
            },
            {
              "internalType": "uint256",
              "name": "publicSupply",
              "type": "uint256"
            },
            {
              "internalType": "address",
              "name": "token",
              "type": "address"
            },
            {
              "internalType": "address",
              "name": "creator",
              "type": "address"
            },
            {
              "internalType": "uint256",
              "name": "price",
              "type": "uint256"
            },
            {
              "internalType": "string",
              "name": "uri",
              "type": "string"
            },
            {
              "internalType": "uint256",
              "name": "royaltyAmount",
              "type": "uint256"
            }
          ],
          "internalType": "struct MarketPlace.TradeItem[]",
          "name": "",
          "type": "tuple[]"
        }
      ],
      "stateMutability": "view",
      "type": "function"
    },
    {
      "inputs": [],
      "name": "getNumber",
      "outputs": [
        {
          "internalType": "uint256",
          "name": "",
          "type": "uint256"
        }
      ],
      "stateMutability": "view",
      "type": "function"
    },
    {
      "inputs": [
        {
          "internalType": "address",
          "name": "sender",
          "type": "address"
        }
      ],
      "name": "getSellingTokens",
      "outputs": [
        {
          "components": [
            {
              "internalType": "uint256",
              "name": "_tradeId",
              "type": "uint256"
            },
            {
              "internalType": "uint256",
              "name": "_tokenId",
              "type": "uint256"
            },
            {
              "internalType": "address",
              "name": "poster",
              "type": "address"
            },
            {
              "internalType": "address",
              "name": "token",
              "type": "address"
            },
            {
              "internalType": "uint256",
              "name": "price",
              "type": "uint256"
            },
            {
              "internalType": "uint256",
              "name": "amount",
              "type": "uint256"
            },
            {
              "internalType": "string",
              "name": "uri",
              "type": "string"
            },
            {
              "internalType": "bool",
              "name": "auction",
              "type": "bool"
            }
          ],
          "internalType": "struct MarketPlace.Trade[]",
          "name": "",
          "type": "tuple[]"
        }
      ],
      "stateMutability": "view",
      "type": "function"
    },
    {
      "inputs": [
        {
          "internalType": "uint256",
          "name": "",
          "type": "uint256"
        }
      ],
      "name": "history",
      "outputs": [
        {
          "internalType": "uint256",
          "name": "_recordId",
          "type": "uint256"
        },
        {
          "internalType": "uint256",
          "name": "_tokenId",
          "type": "uint256"
        },
        {
          "internalType": "address",
          "name": "seller",
          "type": "address"
        },
        {
          "internalType": "address",
          "name": "buyer",
          "type": "address"
        },
        {
          "internalType": "uint256",
          "name": "price",
          "type": "uint256"
        },
        {
          "internalType": "uint256",
          "name": "amount",
          "type": "uint256"
        },
        {
          "internalType": "string",
          "name": "time",
          "type": "string"
        },
        {
          "internalType": "string",
          "name": "des",
          "type": "string"
        }
      ],
      "stateMutability": "view",
      "type": "function"
    },
    {
      "inputs": [
        {
          "internalType": "address",
          "name": "token",
          "type": "address"
        },
        {
          "internalType": "uint256",
          "name": "_tokenId",
          "type": "uint256"
        },
        {
          "internalType": "string",
          "name": "uri",
          "type": "string"
        },
        {
          "internalType": "string",
          "name": "time",
          "type": "string"
        },
        {
          "internalType": "uint256",
          "name": "royalty",
          "type": "uint256"
        }
      ],
      "name": "listToken",
      "outputs": [
        {
          "internalType": "uint256",
          "name": "",
          "type": "uint256"
        }
      ],
      "stateMutability": "nonpayable",
      "type": "function"
    },
    {
      "inputs": [
        {
          "internalType": "uint256",
          "name": "x",
          "type": "uint256"
        },
        {
          "internalType": "uint256",
          "name": "y",
          "type": "uint256"
        },
        {
          "internalType": "uint256",
          "name": "z",
          "type": "uint256"
        }
      ],
      "name": "mulDiv",
      "outputs": [
        {
          "internalType": "uint256",
          "name": "",
          "type": "uint256"
        }
      ],
      "stateMutability": "pure",
      "type": "function"
    },
    {
      "inputs": [
        {
          "internalType": "address",
          "name": "",
          "type": "address"
        },
        {
          "internalType": "address",
          "name": "",
          "type": "address"
        },
        {
          "internalType": "uint256",
          "name": "",
          "type": "uint256"
        },
        {
          "internalType": "uint256",
          "name": "",
          "type": "uint256"
        },
        {
          "internalType": "bytes",
          "name": "",
          "type": "bytes"
        }
      ],
      "name": "onERC1155Received",
      "outputs": [
        {
          "internalType": "bytes4",
          "name": "",
          "type": "bytes4"
        }
      ],
      "stateMutability": "nonpayable",
      "type": "function"
    },
    {
      "inputs": [],
      "name": "pay",
      "outputs": [],
      "stateMutability": "payable",
      "type": "function"
    },
    {
      "inputs": [
        {
          "internalType": "uint256",
          "name": "_itemId",
          "type": "uint256"
        },
        {
          "internalType": "uint256",
          "name": "_price",
          "type": "uint256"
        },
        {
          "internalType": "bool",
          "name": "_auction",
          "type": "bool"
        },
        {
          "internalType": "uint256",
          "name": "_bidEndTime",
          "type": "uint256"
        }
      ],
      "name": "publicToAll",
      "outputs": [],
      "stateMutability": "nonpayable",
      "type": "function"
    },
    {
      "inputs": [
        {
          "internalType": "uint256",
          "name": "_tradeId",
          "type": "uint256"
        },
        {
          "internalType": "string",
          "name": "_time",
          "type": "string"
        }
      ],
      "name": "refund",
      "outputs": [],
      "stateMutability": "nonpayable",
      "type": "function"
    },
    {
      "inputs": [
        {
          "internalType": "uint256",
          "name": "",
          "type": "uint256"
        }
      ],
      "name": "trades",
      "outputs": [
        {
          "internalType": "uint256",
          "name": "_tradeId",
          "type": "uint256"
        },
        {
          "internalType": "uint256",
          "name": "_tokenId",
          "type": "uint256"
        },
        {
          "internalType": "address",
          "name": "poster",
          "type": "address"
        },
        {
          "internalType": "address",
          "name": "token",
          "type": "address"
        },
        {
          "internalType": "uint256",
          "name": "price",
          "type": "uint256"
        },
        {
          "internalType": "uint256",
          "name": "amount",
          "type": "uint256"
        },
        {
          "internalType": "string",
          "name": "uri",
          "type": "string"
        },
        {
          "internalType": "bool",
          "name": "auction",
          "type": "bool"
        }
      ],
      "stateMutability": "view",
      "type": "function"
    }
  ],
  "bytecode": "0x60806040526000805560006001556000600255600060045534801561002357600080fd5b50600380546001600160a01b03191633179055613b17806100456000396000f3fe60806040526004361061016a5760003560e01c8063b19bdf21116100cb578063cc3305f91161007f578063f122d53911610059578063f122d53914610401578063f23a6e6114610421578063f2c9ecd81461044e5761016a565b8063cc3305f914610399578063ce83ddf0146103ce578063e7c52629146103ee5761016a565b8063c24796c0116100b0578063c24796c01461032c578063c83384561461034c578063c8691b2a1461036c5761016a565b8063b19bdf2114610306578063b7dc3b18146103195761016a565b8063571a26a01161012257806378bd79351161010757806378bd793514610278578063a7a38f0b146102a5578063aa9a0912146102d95761016a565b8063571a26a01461022557806365670b5d146102585761016a565b80631e6c598e116101535780631e6c598e146101af5780632a5c792a146101e35780633f282873146102055761016a565b8063175165921461016f5780631b9265b8146101a5575b600080fd5b34801561017b57600080fd5b5061018f61018a366004613098565b610463565b60405161019c91906134c4565b60405180910390f35b6101ad6107e1565b005b3480156101bb57600080fd5b506101cf6101ca3660046131b8565b6107e3565b60405161019c9897969594939291906138c9565b3480156101ef57600080fd5b506101f86108c2565b60405161019c919061358a565b34801561021157600080fd5b506101ad61022036600461326f565b610b29565b34801561023157600080fd5b506102456102403660046131b8565b610db4565b60405161019c9796959493929190613889565b34801561026457600080fd5b506101ad6102733660046131e8565b610e00565b34801561028457600080fd5b506102986102933660046131b8565b6110e5565b60405161019c9190613821565b3480156102b157600080fd5b506102c56102c03660046131b8565b611161565b60405161019c989796959493929190613926565b3480156102e557600080fd5b506102f96102f4366004613313565b6112c3565b60405161019c9190613880565b6101ad6103143660046132bd565b6112e1565b6101ad6103273660046131e8565b61160f565b34801561033857600080fd5b506101ad61034736600461322d565b611981565b34801561035857600080fd5b5061018f610367366004613098565b611ddb565b34801561037857600080fd5b5061038c6103873660046131b8565b612067565b60405161019c91906133ed565b3480156103a557600080fd5b506103b96103b43660046131b8565b612343565b60405161019c9998979695949392919061398e565b3480156103da57600080fd5b506101f86103e9366004613098565b612425565b6101ad6103fc3660046131e8565b6126aa565b34801561040d57600080fd5b506102f961041c366004613135565b612b2f565b34801561042d57600080fd5b5061044161043c3660046130b2565b612da5565b60405161019c919061364d565b34801561045a57600080fd5b506102f9612dcf565b60008054606091805b828110156105475760006005816104848460016139f1565b81526020810191909152604001600020600401546001600160a01b031662fdd58e876104b18560016139f1565b6040518363ffffffff1660e01b81526004016104ce9291906133d4565b60206040518083038186803b1580156104e657600080fd5b505afa1580156104fa573d6000803e3d6000fd5b505050506040513d601f19601f8201168201806040525081019061051e91906131d0565b90508015610534576105316001846139f1565b92505b508061053f81613a9a565b91505061046c565b5060008167ffffffffffffffff81111561057157634e487b7160e01b600052604160045260246000fd5b6040519080825280602002602001820160405280156105aa57816020015b610597612df4565b81526020019060019003908161058f5790505b5090506000805b848110156107d45760006005816105c98460016139f1565b81526020810191909152604001600020600401546001600160a01b031662fdd58e896105f68560016139f1565b6040518363ffffffff1660e01b81526004016106139291906133d4565b60206040518083038186803b15801561062b57600080fd5b505afa15801561063f573d6000803e3d6000fd5b505050506040513d601f19601f8201168201806040525081019061066391906131d0565b905080156107c1576005600061067a8460016139f1565b81526020808201929092526040908101600020815161012081018352815481526001820154938101939093526002810154918301919091526003810154606083015260048101546001600160a01b03908116608084015260058201541660a0830152600681015460c083015260078101805460e0840191906106fb90613a5f565b80601f016020809104026020016040519081016040528092919081815260200182805461072790613a5f565b80156107745780601f1061074957610100808354040283529160200191610774565b820191906000526020600020905b81548152906001019060200180831161075757829003601f168201915b505050505081526020016008820154815250508484815181106107a757634e487b7160e01b600052603260045260246000fd5b602002602001018190525082806107bd90613a9a565b9350505b50806107cc81613a9a565b9150506105b1565b509093505050505b919050565b565b60066020819052600091825260409091208054600182015460028301546003840154600485015460058601549686018054959794966001600160a01b039485169693909416949193919261083690613a5f565b80601f016020809104026020016040519081016040528092919081815260200182805461086290613a5f565b80156108af5780601f10610884576101008083540402835291602001916108af565b820191906000526020600020905b81548152906001019060200180831161089257829003601f168201915b5050506007909301549192505060ff1688565b6002546060906000805b8281101561091c5760006006816108e48460016139f1565b815260200190815260200160002060050154111561090a576109076001836139f1565b91505b8061091481613a9a565b9150506108cc565b5060008167ffffffffffffffff81111561094657634e487b7160e01b600052604160045260246000fd5b60405190808252806020026020018201604052801561097f57816020015b61096c612e52565b8152602001906001900390816109645790505b5090506000805b84811015610b1f57600060068161099e8460016139f1565b8152602001908152602001600020600501541115610b0d57600660006109c58360016139f1565b815260208082019290925260409081016000208151610100810183528154815260018201549381019390935260028101546001600160a01b03908116928401929092526003810154909116606083015260048101546080830152600581015460a083015260068101805460c084019190610a3e90613a5f565b80601f0160208091040260200160405190810160405280929190818152602001828054610a6a90613a5f565b8015610ab75780601f10610a8c57610100808354040283529160200191610ab7565b820191906000526020600020905b815481529060010190602001808311610a9a57829003601f168201915b50505091835250506007919091015460ff1615156020909101528351849084908110610af357634e487b7160e01b600052603260045260246000fd5b60200260200101819052508180610b0990613a9a565b9250505b80610b1781613a9a565b915050610986565b5090935050505090565b60008381526006602081815260408084208151610100810183528154815260018201549381019390935260028101546001600160a01b03908116928401929092526003810154909116606083015260048101546080830152600581015460a0830152918201805491929160c084019190610ba290613a5f565b80601f0160208091040260200160405190810160405280929190818152602001828054610bce90613a5f565b8015610c1b5780601f10610bf057610100808354040283529160200191610c1b565b820191906000526020600020905b815481529060010190602001808311610bfe57829003601f168201915b50505091835250506007919091015460ff16151560209091015260408101519091506001600160a01b03163314610c6d5760405162461bcd60e51b8152600401610c649061377c565b60405180910390fd5b60008481526006602052604081206004018490556001805490918291610c949083906139f1565b9091555050604080516101008101825260018054808352602085810151818501908152868601516001600160a01b03908116868801908152600060608801818152608089018d815260a0808d0151908b0190815260c08b018e81528c51808e018e52600c81527f4368616e67652070726963650000000000000000000000000000000000000000818b015260e08d0152988452600788529a9092208951815594519785019790975590516002840180549184166001600160a01b03199283161790559551600384018054919093169616959095179055925160048401559351600583015551805192939192610d8f9260068501920190612eab565b5060e08201518051610dab916007840191602090910190612eab565b50505050505050565b600860205260009081526040902080546001820154600283015460038401546004850154600586015460069096015494956001600160a01b039485169593949293929091169160ff1687565b60008281526006602081815260408084208151610100810183528154815260018201549381019390935260028101546001600160a01b03908116928401929092526003810154909116606083015260048101546080830152600581015460a0830152918201805491929160c084019190610e7990613a5f565b80601f0160208091040260200160405190810160405280929190818152602001828054610ea590613a5f565b8015610ef25780601f10610ec757610100808354040283529160200191610ef2565b820191906000526020600020905b815481529060010190602001808311610ed557829003601f168201915b50505091835250506007919091015460ff1615156020918201526060820151604080840151928401519051637921219560e11b81529394506001600160a01b039091169263f242432a92610f4d92309260019060040161339c565b600060405180830381600087803b158015610f6757600080fd5b505af1158015610f7b573d6000803e3d6000fd5b505050506001806000828254610f9191906139f1565b9091555050604080516101008101825260018054808352602085810151818501908152600085870181815233606088019081526080808b015190890190815260a0890188815260c08a018d81528b51808d018d52601681527f456e642061756374696f6e20616e6420726566756e6400000000000000000000818a015260e08c0152978552600787529990932088518155935196840196909655516002830180546001600160a01b03199081166001600160a01b039384161790915595516003840180549097169116179094559251600484015593516005830155518051929391926110839260068501920190612eab565b5060e0820151805161109f916007840191602090910190612eab565b505050600092835250506008602090815260408083206006908101805460ff191660011790559091528120600581019190915560020180546001600160a01b0319169055565b6110ed612f2f565b50600090815260086020908152604091829020825160e0810184528154815260018201546001600160a01b03908116938201939093526002820154938101939093526003810154606084015260048101549091166080830152600581015460a08301526006015460ff16151560c082015290565b6007602052600090815260409020805460018201546002830154600384015460048501546005860154600687018054969795966001600160a01b03958616969490951694929391926111b290613a5f565b80601f01602080910402602001604051908101604052809291908181526020018280546111de90613a5f565b801561122b5780601f106112005761010080835404028352916020019161122b565b820191906000526020600020905b81548152906001019060200180831161120e57829003601f168201915b50505050509080600701805461124090613a5f565b80601f016020809104026020016040519081016040528092919081815260200182805461126c90613a5f565b80156112b95780601f1061128e576101008083540402835291602001916112b9565b820191906000526020600020905b81548152906001019060200180831161129c57829003601f168201915b5050505050905088565b60006112d9826112d38686612dd5565b90612de8565b949350505050565b600084815260086020908152604091829020825160e0810184528154815260018201546001600160a01b039081169382019390935260028201549381019390935260038101546060840181905260048201549092166080840152600581015460a08401526006015460ff16151560c08301528411156113725760405162461bcd60e51b8152600401610c6490613745565b8060a0015182116113955760405162461bcd60e51b8152600401610c64906136d7565b60008581526006602081815260408084208151610100810183528154815260018201549381019390935260028101546001600160a01b03908116928401929092526003810154909116606083015260048101546080830152600581015460a0830152918201805491929160c08401919061140e90613a5f565b80601f016020809104026020016040519081016040528092919081815260200182805461143a90613a5f565b80156114875780601f1061145c57610100808354040283529160200191611487565b820191906000526020600020905b81548152906001019060200180831161146a57829003601f168201915b50505091835250506007919091015460ff161515602090910152600180549192509081906000906114b99083906139f1565b909155505060408051610100810182526001805480835260208581015181850190815233858701908152600060608701818152608088018c815260a0890188815260c08a018f81528b51808d018d5260038082527f4269640000000000000000000000000000000000000000000000000000000000828b015260e08d0191909152988552600788529a9093208951815594519785019790975591516002840180546001600160a01b03199081166001600160a01b0393841617909155925195840180549093169516949094179055925160048401559051600583015592518051929391926115ad9260068501920190612eab565b5060e082015180516115c9916007840191602090910190612eab565b505050600095865250506006602090815260408086206004908101849055600890925290942093840180546001600160a01b031916331790556005909301929092555050565b60008281526006602081815260408084208151610100810183528154815260018201549381019390935260028101546001600160a01b03908116928401929092526003810154909116606083015260048101546080830152600581015460a0830152918201805491929160c08401919061168890613a5f565b80601f01602080910402602001604051908101604052809291908181526020018280546116b490613a5f565b80156117015780601f106116d657610100808354040283529160200191611701565b820191906000526020600020905b8154815290600101906020018083116116e457829003601f168201915b50505091835250506007919091015460ff16151560209091015260408101519091506001600160a01b031633141561174b5760405162461bcd60e51b8152600401610c64906137ea565b600180600082825461175d91906139f1565b9091555050604080516101008101825260018054808352602085810151818501908152868601516001600160a01b0390811686880190815233606088019081526080808b015190890190815260a0890188815260c08a018d81528b51808d018d5260038082527f4275790000000000000000000000000000000000000000000000000000000000828b015260e08d01919091526000998a52600789529b9098208a51815595519886019890985591516002850180549185166001600160a01b031992831617905590519884018054999093169816979097179055945160048601559151600585015551805192939261185b9260068501920190612eab565b5060e08201518051611877916007840191602090910190612eab565b50505060608101516020820151604051637921219560e11b81526001600160a01b039092169163f242432a916118b6913091339160019060040161339c565b600060405180830381600087803b1580156118d057600080fd5b505af11580156118e4573d6000803e3d6000fd5b5050505080604001516001600160a01b03166108fc349081150290604051600060405180830381858888f19350505050158015611925573d6000803e3d6000fd5b5060008381526006602052604090206005015461194490600190613a48565b600084815260066020526040902060050181905561197c57600083815260066020526040902060020180546001600160a01b03191690555b505050565b6000848152600560208181526040808420815161012081018352815481526001820154938101939093526002810154918301919091526003810154606083015260048101546001600160a01b0390811660808401529281015490921660a0820152600682015460c082015260078201805491929160e084019190611a0490613a5f565b80601f0160208091040260200160405190810160405280929190818152602001828054611a3090613a5f565b8015611a7d5780601f10611a5257610100808354040283529160200191611a7d565b820191906000526020600020905b815481529060010190602001808311611a6057829003601f168201915b50505091835250506008919091015460209182015260008781526005909152604080822060049081015491517efdd58e00000000000000000000000000000000000000000000000000000000815293945091926001600160a01b039091169162fdd58e91611aef9133918b91016133d4565b60206040518083038186803b158015611b0757600080fd5b505afa158015611b1b573d6000803e3d6000fd5b505050506040513d601f19601f82011682018060405250810190611b3f91906131d0565b905080600114611b615760405162461bcd60e51b8152600401610c649061367a565b600160026000828254611b7491906139f1565b92505081905550604051806101000160405280600254815260200183602001518152602001336001600160a01b0316815260200183608001516001600160a01b03168152602001868152602001600181526020018360e001518152602001851515815250600660006002548152602001908152602001600020600082015181600001556020820151816001015560408201518160020160006101000a8154816001600160a01b0302191690836001600160a01b0316021790555060608201518160030160006101000a8154816001600160a01b0302191690836001600160a01b031602179055506080820151816004015560a0820151816005015560c0820151816006019080519060200190611c8b929190612eab565b5060e091909101516007909101805460ff191691151591909117905583151560011415611d65576040805160e0810182526002805480835233602080850191825242858701908152606086018a815260006080880181815260a0890182815260c08a0183815297835260089095529890209651875592516001870180546001600160a01b039283166001600160a01b031991821617909155915195870195909555915160038601559451600485018054919094169116179091559151600582015590516006909101805491151560ff199092169190911790555b60808201516020830151604051637921219560e11b81526001600160a01b039092169163f242432a91611da1913391309160019060040161339c565b600060405180830381600087803b158015611dbb57600080fd5b505af1158015611dcf573d6000803e3d6000fd5b50505050505050505050565b6000805460609180805b83811015611e49576001600160a01b03861660056000611e068460016139f1565b81526020810191909152604001600020600501546001600160a01b03161415611e3757611e346001846139f1565b92505b80611e4181613a9a565b915050611de5565b5060008267ffffffffffffffff811115611e7357634e487b7160e01b600052604160045260246000fd5b604051908082528060200260200182016040528015611eac57816020015b611e99612df4565b815260200190600190039081611e915790505b50905060005b8481101561205d576001600160a01b03871660056000611ed38460016139f1565b81526020810191909152604001600020600501546001600160a01b0316141561204b5760056000611f058360016139f1565b81526020808201929092526040908101600020815161012081018352815481526001820154938101939093526002810154918301919091526003810154606083015260048101546001600160a01b03908116608084015260058201541660a0830152600681015460c083015260078101805460e084019190611f8690613a5f565b80601f0160208091040260200160405190810160405280929190818152602001828054611fb290613a5f565b8015611fff5780601f10611fd457610100808354040283529160200191611fff565b820191906000526020600020905b815481529060010190602001808311611fe257829003601f168201915b5050505050815260200160088201548152505082848151811061203257634e487b7160e01b600052603260045260246000fd5b60209081029190910101526120486001846139f1565b92505b8061205581613a9a565b915050611eb2565b5095945050505050565b6001546060906000805b828110156120c15784600760006120898460016139f1565b81526020019081526020016000206001015414156120af576120ac6001836139f1565b91505b806120b981613a9a565b915050612071565b5060008167ffffffffffffffff8111156120eb57634e487b7160e01b600052604160045260246000fd5b60405190808252806020026020018201604052801561212457816020015b612111612f80565b8152602001906001900390816121095790505b5090506000805b848110156107d45786600760006121438460016139f1565b8152602001908152602001600020600101541415612331576007600061216a8360016139f1565b815260208082019290925260409081016000208151610100810183528154815260018201549381019390935260028101546001600160a01b03908116928401929092526003810154909116606083015260048101546080830152600581015460a083015260068101805460c0840191906121e390613a5f565b80601f016020809104026020016040519081016040528092919081815260200182805461220f90613a5f565b801561225c5780601f106122315761010080835404028352916020019161225c565b820191906000526020600020905b81548152906001019060200180831161223f57829003601f168201915b5050505050815260200160078201805461227590613a5f565b80601f01602080910402602001604051908101604052809291908181526020018280546122a190613a5f565b80156122ee5780601f106122c3576101008083540402835291602001916122ee565b820191906000526020600020905b8154815290600101906020018083116122d157829003601f168201915b50505050508152505083838151811061231757634e487b7160e01b600052603260045260246000fd5b6020026020010181905250818061232d90613a9a565b9250505b8061233b81613a9a565b91505061212b565b60056020819052600091825260409091208054600182015460028301546003840154600485015495850154600686015460078701805496989597949693956001600160a01b039081169593169391929161239c90613a5f565b80601f01602080910402602001604051908101604052809291908181526020018280546123c890613a5f565b80156124155780601f106123ea57610100808354040283529160200191612415565b820191906000526020600020905b8154815290600101906020018083116123f857829003601f168201915b5050505050908060080154905089565b6002546060906000805b82811015612493576001600160a01b038516600660006124508460016139f1565b81526020810191909152604001600020600201546001600160a01b031614156124815761247e6001836139f1565b91505b8061248b81613a9a565b91505061242f565b5060008167ffffffffffffffff8111156124bd57634e487b7160e01b600052604160045260246000fd5b6040519080825280602002602001820160405280156124f657816020015b6124e3612e52565b8152602001906001900390816124db5790505b5090506000805b848110156107d4576001600160a01b0387166006600061251e8460016139f1565b81526020810191909152604001600020600201546001600160a01b0316141561269857600660006125508360016139f1565b815260208082019290925260409081016000208151610100810183528154815260018201549381019390935260028101546001600160a01b03908116928401929092526003810154909116606083015260048101546080830152600581015460a083015260068101805460c0840191906125c990613a5f565b80601f01602080910402602001604051908101604052809291908181526020018280546125f590613a5f565b80156126425780601f1061261757610100808354040283529160200191612642565b820191906000526020600020905b81548152906001019060200180831161262557829003601f168201915b50505091835250506007919091015460ff161515602090910152835184908490811061267e57634e487b7160e01b600052603260045260246000fd5b6020026020010181905250818061269490613a9a565b9250505b806126a281613a9a565b9150506124fd565b6000600860008481526020019081526020016000206040518060e0016040529081600082015481526020016001820160009054906101000a90046001600160a01b03166001600160a01b03166001600160a01b0316815260200160028201548152602001600382015481526020016004820160009054906101000a90046001600160a01b03166001600160a01b03166001600160a01b03168152602001600582015481526020016006820160009054906101000a900460ff16151515158152505090506000600660008581526020019081526020016000206040518061010001604052908160008201548152602001600182015481526020016002820160009054906101000a90046001600160a01b03166001600160a01b03166001600160a01b031681526020016003820160009054906101000a90046001600160a01b03166001600160a01b03166001600160a01b03168152602001600482015481526020016005820154815260200160068201805461282490613a5f565b80601f016020809104026020016040519081016040528092919081815260200182805461285090613a5f565b801561289d5780601f106128725761010080835404028352916020019161289d565b820191906000526020600020905b81548152906001019060200180831161288057829003601f168201915b50505091835250506007919091015460ff16151560209091015260808301519091506001600160a01b031633146128e65760405162461bcd60e51b8152600401610c649061370e565b8160a0015134146129095760405162461bcd60e51b8152600401610c64906137b3565b606081015160808301516020830151604051637921219560e11b81526001600160a01b039093169263f242432a9261294892309260019060040161339c565b600060405180830381600087803b15801561296257600080fd5b505af1158015612976573d6000803e3d6000fd5b50505060208301516040516001600160a01b0390911691503480156108fc02916000818181858888f193505050501580156129b5573d6000803e3d6000fd5b5060018060008282546129c891906139f1565b9091555050604080516101008101825260018054808352602085810151818501908152868601516001600160a01b039081168688019081526080808b0151831660608901908152818b015191890191825260a0890188815260c08a018e81528b51808d018d5260078082527f41756374696f6e00000000000000000000000000000000000000000000000000828b015260e08d01919091526000998a5288529a9097208951815594519785019790975590516002840180549184166001600160a01b0319928316179055955160038401805491909316961695909517905592516004840155905160058301559251805192939192612acc9260068501920190612eab565b5060e08201518051612ae8916007840191602090910190612eab565b505050600093845250506008602090815260408084206006908101805460ff19166001179055909152822060058101929092555060020180546001600160a01b0319169055565b60006064821115612b3f57606491505b6001600080828254612b5191906139f1565b9250508190555060405180610120016040528060005481526020018681526020016001815260200160008152602001876001600160a01b03168152602001336001600160a01b03168152602001600081526020018581526020018381525060056000805481526020019081526020016000206000820151816000015560208201518160010155604082015181600201556060820151816003015560808201518160040160006101000a8154816001600160a01b0302191690836001600160a01b0316021790555060a08201518160050160006101000a8154816001600160a01b0302191690836001600160a01b0316021790555060c0820151816006015560e0820151816007019080519060200190612c6b929190612eab565b5061010082015181600801559050506001806000828254612c8c91906139f1565b909155505060408051610100810182526001805480835260008054602080860191825233868801908152606087018481526080880185815260a0890188815260c08a018e81528b51808d018d5260078082527f43726561746564000000000000000000000000000000000000000000000000008289015260e08d01919091529888529785529990952088518155935196840196909655516002830180546001600160a01b03199081166001600160a01b039384161790915595516003840180549097169116179094559051600482015593516005850155518051929392612d799260068501920190612eab565b5060e08201518051612d95916007840191602090910190612eab565b5050600054979650505050505050565b7ff23a6e610000000000000000000000000000000000000000000000000000000095945050505050565b60005490565b6000612de18284613a29565b9392505050565b6000612de18284613a09565b6040518061012001604052806000815260200160008152602001600081526020016000815260200160006001600160a01b0316815260200160006001600160a01b031681526020016000815260200160608152602001600081525090565b604051806101000160405280600081526020016000815260200160006001600160a01b0316815260200160006001600160a01b031681526020016000815260200160008152602001606081526020016000151581525090565b828054612eb790613a5f565b90600052602060002090601f016020900481019282612ed95760008555612f1f565b82601f10612ef257805160ff1916838001178555612f1f565b82800160010185558215612f1f579182015b82811115612f1f578251825591602001919060010190612f04565b50612f2b929150612fd7565b5090565b6040518060e001604052806000815260200160006001600160a01b03168152602001600081526020016000815260200160006001600160a01b03168152602001600081526020016000151581525090565b604051806101000160405280600081526020016000815260200160006001600160a01b0316815260200160006001600160a01b03168152602001600081526020016000815260200160608152602001606081525090565b5b80821115612f2b5760008155600101612fd8565b600067ffffffffffffffff8084111561300757613007613acb565b604051601f8501601f19908116603f0116810190828211818310171561302f5761302f613acb565b8160405280935085815286868601111561304857600080fd5b858560208301376000602087830101525050509392505050565b80356001600160a01b03811681146107dc57600080fd5b600082601f830112613089578081fd5b612de183833560208501612fec565b6000602082840312156130a9578081fd5b612de182613062565b600080600080600060a086880312156130c9578081fd5b6130d286613062565b94506130e060208701613062565b93506040860135925060608601359150608086013567ffffffffffffffff811115613109578182fd5b8601601f81018813613119578182fd5b61312888823560208401612fec565b9150509295509295909350565b600080600080600060a0868803121561314c578081fd5b61315586613062565b945060208601359350604086013567ffffffffffffffff80821115613178578283fd5b61318489838a01613079565b94506060880135915080821115613199578283fd5b506131a688828901613079565b95989497509295608001359392505050565b6000602082840312156131c9578081fd5b5035919050565b6000602082840312156131e1578081fd5b5051919050565b600080604083850312156131fa578182fd5b82359150602083013567ffffffffffffffff811115613217578182fd5b61322385828601613079565b9150509250929050565b60008060008060808587031215613242578384fd5b84359350602085013592506040850135801515811461325f578283fd5b9396929550929360600135925050565b600080600060608486031215613283578283fd5b8335925060208401359150604084013567ffffffffffffffff8111156132a7578182fd5b6132b386828701613079565b9150509250925092565b600080600080608085870312156132d2578384fd5b8435935060208501359250604085013567ffffffffffffffff8111156132f6578283fd5b61330287828801613079565b949793965093946060013593505050565b600080600060608486031215613327578283fd5b505081359360208301359350604090920135919050565b6001600160a01b03169052565b15159052565b60008151808452815b818110156133765760208185018101518683018201520161335a565b818111156133875782602083870101525b50601f01601f19169290920160200192915050565b6001600160a01b0394851681529290931660208301526040820152606081019190915260a06080820181905260009082015260c00190565b6001600160a01b03929092168252602082015260400190565b60208082528251828201819052600091906040908185019080840286018301878501865b838110156134b657603f1989840301855281516101008151855288820151898601526001600160a01b038883015116888601526060808301516134568288018261333e565b50506080828101519086015260a0808301519086015260c08083015181870183905261348483880182613351565b9250505060e080830151925085820381870152506134a28183613351565b968901969450505090860190600101613411565b509098975050505050505050565b60208082528251828201819052600091906040908185019080840286018301878501865b838110156134b657603f1989840301855281516101208151855288820151898601528782015188860152606080830151818701525060808083015161352f8288018261333e565b505060a0808301516135438288018261333e565b505060c080830151818701525060e080830151828288015261356783880182613351565b6101009485015197909401969096525050948701949250908601906001016134e8565b60208082528251828201819052600091906040908185019080840286018301878501865b838110156134b657603f1989840301855281516101008151855288820151898601526001600160a01b038883015116888601526060808301516135f38288018261333e565b50506080828101519086015260a0808301519086015260c08083015181870183905261362183880182613351565b9250505060e08083015192506136398187018461334b565b5095880195935050908601906001016135ae565b7fffffffff0000000000000000000000000000000000000000000000000000000091909116815260200190565b60208082526030908201527f4e6f207375636820746f6b656e2c206f72207075626c69736820746f206d617260408201527f6b6574706c61636520616c726561647900000000000000000000000000000000606082015260800190565b60208082526010908201527f4e6f7420656e6f75676820707269636500000000000000000000000000000000604082015260600190565b60208082526015908201527f636f727265637420686967686573744269646465720000000000000000000000604082015260600190565b60208082526009908201527f6f7665722074696d650000000000000000000000000000000000000000000000604082015260600190565b6020808252600d908201527f4e6f7420746865206f776e657200000000000000000000000000000000000000604082015260600190565b60208082526011908201527f4e6f7420636f7272656374207072696365000000000000000000000000000000604082015260600190565b60208082526016908201527f53656c6c6572206e6f7420746f20626520627579657200000000000000000000604082015260600190565b600060e0820190508251825260208301516001600160a01b0380821660208501526040850151604085015260608501516060850152806080860151166080850152505060a083015160a083015260c0830151151560c083015292915050565b90815260200190565b9687526001600160a01b03958616602088015260408701949094526060860192909252909216608084015260a0830191909152151560c082015260e00190565b60006101008a83528960208401526001600160a01b03808a1660408501528089166060850152508660808401528560a08401528060c084015261390e81840186613351565b91505082151560e08301529998505050505050505050565b60006101008a83528960208401526001600160a01b03808a1660408501528089166060850152508660808401528560a08401528060c084015261396b81840186613351565b905082810360e084015261397f8185613351565b9b9a5050505050505050505050565b60006101208b83528a60208401528960408401528860608401526001600160a01b03808916608085015280881660a0850152508560c08401528060e08401526139d981840186613351565b915050826101008301529a9950505050505050505050565b60008219821115613a0457613a04613ab5565b500190565b600082613a2457634e487b7160e01b81526012600452602481fd5b500490565b6000816000190483118215151615613a4357613a43613ab5565b500290565b600082821015613a5a57613a5a613ab5565b500390565b600281046001821680613a7357607f821691505b60208210811415613a9457634e487b7160e01b600052602260045260246000fd5b50919050565b6000600019821415613aae57613aae613ab5565b5060010190565b634e487b7160e01b600052601160045260246000fd5b634e487b7160e01b600052604160045260246000fdfea2646970667358221220fa7e063b209244be53c2ddb34d693d5d7d0ddce9ca70eed3a2cde33f3a05cfe064736f6c63430008010033",
  "linkReferences": {},
  "deployedLinkReferences": {}
}