{
  "_format": "hh-sol-artifact-1",
  "contractName": "MarketPlace",
  "sourceName": "contracts/MarketPlace.sol",
  "abi": [
    {
      "inputs": [],
      "stateMutability": "nonpayable",
      "type": "constructor"
    },
    {
      "inputs": [
        {
          "internalType": "uint256",
          "name": "",
          "type": "uint256"
        }
      ],
      "name": "TradeItems",
      "outputs": [
        {
          "internalType": "uint256",
          "name": "_itemId",
          "type": "uint256"
        },
        {
          "internalType": "uint256",
          "name": "_tokenId",
          "type": "uint256"
        },
        {
          "internalType": "uint256",
          "name": "initialSupply",
          "type": "uint256"
        },
        {
          "internalType": "uint256",
          "name": "publicSupply",
          "type": "uint256"
        },
        {
          "internalType": "address",
          "name": "token",
          "type": "address"
        },
        {
          "internalType": "address",
          "name": "creator",
          "type": "address"
        },
        {
          "internalType": "uint256",
          "name": "price",
          "type": "uint256"
        },
        {
          "internalType": "string",
          "name": "uri",
          "type": "string"
        },
        {
          "internalType": "uint256",
          "name": "royaltyAmount",
          "type": "uint256"
        }
      ],
      "stateMutability": "view",
      "type": "function"
    },
    {
      "inputs": [
        {
          "internalType": "uint256",
          "name": "_tradeId",
          "type": "uint256"
        },
        {
          "internalType": "string",
          "name": "_time",
          "type": "string"
        }
      ],
      "name": "auctionEnd",
      "outputs": [],
      "stateMutability": "payable",
      "type": "function"
    },
    {
      "inputs": [
        {
          "internalType": "uint256",
          "name": "",
          "type": "uint256"
        }
      ],
      "name": "auctions",
      "outputs": [
        {
          "internalType": "uint256",
          "name": "_tradeId",
          "type": "uint256"
        },
        {
          "internalType": "address",
          "name": "beneficiary",
          "type": "address"
        },
        {
          "internalType": "uint256",
          "name": "auctionStart",
          "type": "uint256"
        },
        {
          "internalType": "uint256",
          "name": "biddingTime",
          "type": "uint256"
        },
        {
          "internalType": "address",
          "name": "highestBidder",
          "type": "address"
        },
        {
          "internalType": "uint256",
          "name": "highestBid",
          "type": "uint256"
        },
        {
          "internalType": "bool",
          "name": "ended",
          "type": "bool"
        }
      ],
      "stateMutability": "view",
      "type": "function"
    },
    {
      "inputs": [
        {
          "internalType": "uint256",
          "name": "_tradeId",
          "type": "uint256"
        },
        {
          "internalType": "uint256",
          "name": "_now",
          "type": "uint256"
        },
        {
          "internalType": "string",
          "name": "time",
          "type": "string"
        },
        {
          "internalType": "uint256",
          "name": "_price",
          "type": "uint256"
        }
      ],
      "name": "bid",
      "outputs": [],
      "stateMutability": "payable",
      "type": "function"
    },
    {
      "inputs": [
        {
          "internalType": "uint256",
          "name": "_tradeId",
          "type": "uint256"
        },
        {
          "internalType": "string",
          "name": "time",
          "type": "string"
        }
      ],
      "name": "buy",
      "outputs": [],
      "stateMutability": "payable",
      "type": "function"
    },
    {
      "inputs": [
        {
          "internalType": "uint256",
          "name": "_tradeId",
          "type": "uint256"
        },
        {
          "internalType": "uint256",
          "name": "_price",
          "type": "uint256"
        },
        {
          "internalType": "string",
          "name": "time",
          "type": "string"
        }
      ],
      "name": "changePrice",
      "outputs": [],
      "stateMutability": "nonpayable",
      "type": "function"
    },
    {
      "inputs": [
        {
          "internalType": "address",
          "name": "sender",
          "type": "address"
        }
      ],
      "name": "fetchItemsCreated",
      "outputs": [
        {
          "components": [
            {
              "internalType": "uint256",
              "name": "_itemId",
              "type": "uint256"
            },
            {
              "internalType": "uint256",
              "name": "_tokenId",
              "type": "uint256"
            },
            {
              "internalType": "uint256",
              "name": "initialSupply",
              "type": "uint256"
            },
            {
              "internalType": "uint256",
              "name": "publicSupply",
              "type": "uint256"
            },
            {
              "internalType": "address",
              "name": "token",
              "type": "address"
            },
            {
              "internalType": "address",
              "name": "creator",
              "type": "address"
            },
            {
              "internalType": "uint256",
              "name": "price",
              "type": "uint256"
            },
            {
              "internalType": "string",
              "name": "uri",
              "type": "string"
            },
            {
              "internalType": "uint256",
              "name": "royaltyAmount",
              "type": "uint256"
            }
          ],
          "internalType": "struct MarketPlace.TradeItem[]",
          "name": "",
          "type": "tuple[]"
        }
      ],
      "stateMutability": "view",
      "type": "function"
    },
    {
      "inputs": [],
      "name": "getAllTokens",
      "outputs": [
        {
          "components": [
            {
              "internalType": "uint256",
              "name": "_tradeId",
              "type": "uint256"
            },
            {
              "internalType": "uint256",
              "name": "_tokenId",
              "type": "uint256"
            },
            {
              "internalType": "address",
              "name": "poster",
              "type": "address"
            },
            {
              "internalType": "address",
              "name": "token",
              "type": "address"
            },
            {
              "internalType": "uint256",
              "name": "price",
              "type": "uint256"
            },
            {
              "internalType": "uint256",
              "name": "amount",
              "type": "uint256"
            },
            {
              "internalType": "string",
              "name": "uri",
              "type": "string"
            },
            {
              "internalType": "bool",
              "name": "auction",
              "type": "bool"
            },
            {
              "internalType": "uint256",
              "name": "royaltyAmount",
              "type": "uint256"
            }
          ],
          "internalType": "struct MarketPlace.Trade[]",
          "name": "",
          "type": "tuple[]"
        }
      ],
      "stateMutability": "view",
      "type": "function"
    },
    {
      "inputs": [
        {
          "internalType": "uint256",
          "name": "id",
          "type": "uint256"
        }
      ],
      "name": "getAuction",
      "outputs": [
        {
          "components": [
            {
              "internalType": "uint256",
              "name": "_tradeId",
              "type": "uint256"
            },
            {
              "internalType": "address",
              "name": "beneficiary",
              "type": "address"
            },
            {
              "internalType": "uint256",
              "name": "auctionStart",
              "type": "uint256"
            },
            {
              "internalType": "uint256",
              "name": "biddingTime",
              "type": "uint256"
            },
            {
              "internalType": "address",
              "name": "highestBidder",
              "type": "address"
            },
            {
              "internalType": "uint256",
              "name": "highestBid",
              "type": "uint256"
            },
            {
              "internalType": "bool",
              "name": "ended",
              "type": "bool"
            }
          ],
          "internalType": "struct MarketPlace.Auction",
          "name": "",
          "type": "tuple"
        }
      ],
      "stateMutability": "view",
      "type": "function"
    },
    {
      "inputs": [
        {
          "internalType": "uint256",
          "name": "id",
          "type": "uint256"
        }
      ],
      "name": "getHistory",
      "outputs": [
        {
          "components": [
            {
              "internalType": "uint256",
              "name": "_recordId",
              "type": "uint256"
            },
            {
              "internalType": "uint256",
              "name": "_tokenId",
              "type": "uint256"
            },
            {
              "internalType": "address",
              "name": "seller",
              "type": "address"
            },
            {
              "internalType": "address",
              "name": "buyer",
              "type": "address"
            },
            {
              "internalType": "uint256",
              "name": "price",
              "type": "uint256"
            },
            {
              "internalType": "uint256",
              "name": "amount",
              "type": "uint256"
            },
            {
              "internalType": "string",
              "name": "time",
              "type": "string"
            },
            {
              "internalType": "string",
              "name": "des",
              "type": "string"
            }
          ],
          "internalType": "struct MarketPlace.History[]",
          "name": "",
          "type": "tuple[]"
        }
      ],
      "stateMutability": "view",
      "type": "function"
    },
    {
      "inputs": [
        {
          "internalType": "address",
          "name": "sender",
          "type": "address"
        }
      ],
      "name": "getMyTokens",
      "outputs": [
        {
          "components": [
            {
              "internalType": "uint256",
              "name": "_itemId",
              "type": "uint256"
            },
            {
              "internalType": "uint256",
              "name": "_tokenId",
              "type": "uint256"
            },
            {
              "internalType": "uint256",
              "name": "initialSupply",
              "type": "uint256"
            },
            {
              "internalType": "uint256",
              "name": "publicSupply",
              "type": "uint256"
            },
            {
              "internalType": "address",
              "name": "token",
              "type": "address"
            },
            {
              "internalType": "address",
              "name": "creator",
              "type": "address"
            },
            {
              "internalType": "uint256",
              "name": "price",
              "type": "uint256"
            },
            {
              "internalType": "string",
              "name": "uri",
              "type": "string"
            },
            {
              "internalType": "uint256",
              "name": "royaltyAmount",
              "type": "uint256"
            }
          ],
          "internalType": "struct MarketPlace.TradeItem[]",
          "name": "",
          "type": "tuple[]"
        }
      ],
      "stateMutability": "view",
      "type": "function"
    },
    {
      "inputs": [],
      "name": "getNumber",
      "outputs": [
        {
          "internalType": "uint256",
          "name": "",
          "type": "uint256"
        }
      ],
      "stateMutability": "view",
      "type": "function"
    },
    {
      "inputs": [
        {
          "internalType": "address",
          "name": "sender",
          "type": "address"
        }
      ],
      "name": "getSellingTokens",
      "outputs": [
        {
          "components": [
            {
              "internalType": "uint256",
              "name": "_tradeId",
              "type": "uint256"
            },
            {
              "internalType": "uint256",
              "name": "_tokenId",
              "type": "uint256"
            },
            {
              "internalType": "address",
              "name": "poster",
              "type": "address"
            },
            {
              "internalType": "address",
              "name": "token",
              "type": "address"
            },
            {
              "internalType": "uint256",
              "name": "price",
              "type": "uint256"
            },
            {
              "internalType": "uint256",
              "name": "amount",
              "type": "uint256"
            },
            {
              "internalType": "string",
              "name": "uri",
              "type": "string"
            },
            {
              "internalType": "bool",
              "name": "auction",
              "type": "bool"
            },
            {
              "internalType": "uint256",
              "name": "royaltyAmount",
              "type": "uint256"
            }
          ],
          "internalType": "struct MarketPlace.Trade[]",
          "name": "",
          "type": "tuple[]"
        }
      ],
      "stateMutability": "view",
      "type": "function"
    },
    {
      "inputs": [
        {
          "internalType": "uint256",
          "name": "id",
          "type": "uint256"
        }
      ],
      "name": "getTokenByTokenId",
      "outputs": [
        {
          "components": [
            {
              "internalType": "uint256",
              "name": "_itemId",
              "type": "uint256"
            },
            {
              "internalType": "uint256",
              "name": "_tokenId",
              "type": "uint256"
            },
            {
              "internalType": "uint256",
              "name": "initialSupply",
              "type": "uint256"
            },
            {
              "internalType": "uint256",
              "name": "publicSupply",
              "type": "uint256"
            },
            {
              "internalType": "address",
              "name": "token",
              "type": "address"
            },
            {
              "internalType": "address",
              "name": "creator",
              "type": "address"
            },
            {
              "internalType": "uint256",
              "name": "price",
              "type": "uint256"
            },
            {
              "internalType": "string",
              "name": "uri",
              "type": "string"
            },
            {
              "internalType": "uint256",
              "name": "royaltyAmount",
              "type": "uint256"
            }
          ],
          "internalType": "struct MarketPlace.TradeItem",
          "name": "",
          "type": "tuple"
        }
      ],
      "stateMutability": "view",
      "type": "function"
    },
    {
      "inputs": [
        {
          "internalType": "uint256",
          "name": "",
          "type": "uint256"
        }
      ],
      "name": "history",
      "outputs": [
        {
          "internalType": "uint256",
          "name": "_recordId",
          "type": "uint256"
        },
        {
          "internalType": "uint256",
          "name": "_tokenId",
          "type": "uint256"
        },
        {
          "internalType": "address",
          "name": "seller",
          "type": "address"
        },
        {
          "internalType": "address",
          "name": "buyer",
          "type": "address"
        },
        {
          "internalType": "uint256",
          "name": "price",
          "type": "uint256"
        },
        {
          "internalType": "uint256",
          "name": "amount",
          "type": "uint256"
        },
        {
          "internalType": "string",
          "name": "time",
          "type": "string"
        },
        {
          "internalType": "string",
          "name": "des",
          "type": "string"
        }
      ],
      "stateMutability": "view",
      "type": "function"
    },
    {
      "inputs": [
        {
          "internalType": "address",
          "name": "token",
          "type": "address"
        },
        {
          "internalType": "uint256",
          "name": "_tokenId",
          "type": "uint256"
        },
        {
          "internalType": "string",
          "name": "uri",
          "type": "string"
        },
        {
          "internalType": "string",
          "name": "time",
          "type": "string"
        },
        {
          "internalType": "uint256",
          "name": "royalty",
          "type": "uint256"
        }
      ],
      "name": "listToken",
      "outputs": [
        {
          "internalType": "uint256",
          "name": "",
          "type": "uint256"
        }
      ],
      "stateMutability": "nonpayable",
      "type": "function"
    },
    {
      "inputs": [
        {
          "internalType": "uint256",
          "name": "x",
          "type": "uint256"
        },
        {
          "internalType": "uint256",
          "name": "y",
          "type": "uint256"
        },
        {
          "internalType": "uint256",
          "name": "z",
          "type": "uint256"
        }
      ],
      "name": "mulDiv",
      "outputs": [
        {
          "internalType": "uint256",
          "name": "",
          "type": "uint256"
        }
      ],
      "stateMutability": "pure",
      "type": "function"
    },
    {
      "inputs": [
        {
          "internalType": "address",
          "name": "",
          "type": "address"
        },
        {
          "internalType": "address",
          "name": "",
          "type": "address"
        },
        {
          "internalType": "uint256",
          "name": "",
          "type": "uint256"
        },
        {
          "internalType": "uint256",
          "name": "",
          "type": "uint256"
        },
        {
          "internalType": "bytes",
          "name": "",
          "type": "bytes"
        }
      ],
      "name": "onERC1155Received",
      "outputs": [
        {
          "internalType": "bytes4",
          "name": "",
          "type": "bytes4"
        }
      ],
      "stateMutability": "nonpayable",
      "type": "function"
    },
    {
      "inputs": [],
      "name": "pay",
      "outputs": [],
      "stateMutability": "payable",
      "type": "function"
    },
    {
      "inputs": [
        {
          "internalType": "uint256",
          "name": "_itemId",
          "type": "uint256"
        },
        {
          "internalType": "uint256",
          "name": "_price",
          "type": "uint256"
        },
        {
          "internalType": "bool",
          "name": "_auction",
          "type": "bool"
        },
        {
          "internalType": "uint256",
          "name": "_bidEndTime",
          "type": "uint256"
        }
      ],
      "name": "publicToAll",
      "outputs": [],
      "stateMutability": "nonpayable",
      "type": "function"
    },
    {
      "inputs": [
        {
          "internalType": "uint256",
          "name": "_tradeId",
          "type": "uint256"
        },
        {
          "internalType": "string",
          "name": "_time",
          "type": "string"
        }
      ],
      "name": "refund",
      "outputs": [],
      "stateMutability": "nonpayable",
      "type": "function"
    },
    {
      "inputs": [
        {
          "internalType": "uint256",
          "name": "",
          "type": "uint256"
        }
      ],
      "name": "trades",
      "outputs": [
        {
          "internalType": "uint256",
          "name": "_tradeId",
          "type": "uint256"
        },
        {
          "internalType": "uint256",
          "name": "_tokenId",
          "type": "uint256"
        },
        {
          "internalType": "address",
          "name": "poster",
          "type": "address"
        },
        {
          "internalType": "address",
          "name": "token",
          "type": "address"
        },
        {
          "internalType": "uint256",
          "name": "price",
          "type": "uint256"
        },
        {
          "internalType": "uint256",
          "name": "amount",
          "type": "uint256"
        },
        {
          "internalType": "string",
          "name": "uri",
          "type": "string"
        },
        {
          "internalType": "bool",
          "name": "auction",
          "type": "bool"
        },
        {
          "internalType": "uint256",
          "name": "royaltyAmount",
          "type": "uint256"
        }
      ],
      "stateMutability": "view",
      "type": "function"
    }
  ],
  "bytecode": "0x60806040526000805560006001556000600255600060045534801561002357600080fd5b50600380546001600160a01b03191633179055613f8b806100456000396000f3fe6080604052600436106101755760003560e01c8063b19bdf21116100cb578063cc3305f91161007f578063f122d53911610059578063f122d5391461043a578063f23a6e611461045a578063f2c9ecd81461048757610175565b8063cc3305f9146103d2578063ce83ddf014610407578063e7c526291461042757610175565b8063c24796c0116100b0578063c24796c014610365578063c833845614610385578063c8691b2a146103a557610175565b8063b19bdf211461033f578063b7dc3b181461035257610175565b8063571a26a01161012d578063a69ae7bc11610107578063a69ae7bc146102b1578063a7a38f0b146102de578063aa9a09121461031257610175565b8063571a26a01461023157806365670b5d1461026457806378bd79351461028457610175565b80631e6c598e1161015e5780631e6c598e146101ba5780632a5c792a146101ef5780633f2828731461021157610175565b8063175165921461017a5780631b9265b8146101b0575b600080fd5b34801561018657600080fd5b5061019a6101953660046134cd565b61049c565b6040516101a7919061397e565b60405180910390f35b6101b861081a565b005b3480156101c657600080fd5b506101da6101d53660046135ed565b61081c565b6040516101a799989796959493929190613d3b565b3480156101fb57600080fd5b50610204610902565b6040516101a791906139de565b34801561021d57600080fd5b506101b861022c3660046136a4565b610b72565b34801561023d57600080fd5b5061025161024c3660046135ed565b610e04565b6040516101a79796959493929190613cfb565b34801561027057600080fd5b506101b861027f36600461361d565b610e50565b34801561029057600080fd5b506102a461029f3660046135ed565b61113e565b6040516101a79190613c80565b3480156102bd57600080fd5b506102d16102cc3660046135ed565b6111ba565b6040516101a79190613cdf565b3480156102ea57600080fd5b506102fe6102f93660046135ed565b6113a1565b6040516101a7989796959493929190613d9a565b34801561031e57600080fd5b5061033261032d366004613748565b611503565b6040516101a79190613cf2565b6101b861034d3660046136f2565b611521565b6101b861036036600461361d565b611858565b34801561037157600080fd5b506101b8610380366004613662565b611cb8565b34801561039157600080fd5b5061019a6103a03660046134cd565b612127565b3480156103b157600080fd5b506103c56103c03660046135ed565b6123b3565b6040516101a791906138a7565b3480156103de57600080fd5b506103f26103ed3660046135ed565b61268f565b6040516101a799989796959493929190613e02565b34801561041357600080fd5b506102046104223660046134cd565b612771565b6101b861043536600461361d565b6129ff565b34801561044657600080fd5b5061033261045536600461356a565b612f5d565b34801561046657600080fd5b5061047a6104753660046134e7565b6131d3565b6040516101a79190613aac565b34801561049357600080fd5b506103326131fd565b60008054606091805b828110156105805760006005816104bd846001613e65565b81526020810191909152604001600020600401546001600160a01b031662fdd58e876104ea856001613e65565b6040518363ffffffff1660e01b815260040161050792919061388e565b60206040518083038186803b15801561051f57600080fd5b505afa158015610533573d6000803e3d6000fd5b505050506040513d601f19601f820116820180604052508101906105579190613605565b9050801561056d5761056a600184613e65565b92505b508061057881613f0e565b9150506104a5565b5060008167ffffffffffffffff8111156105aa57634e487b7160e01b600052604160045260246000fd5b6040519080825280602002602001820160405280156105e357816020015b6105d0613222565b8152602001906001900390816105c85790505b5090506000805b8481101561080d576000600581610602846001613e65565b81526020810191909152604001600020600401546001600160a01b031662fdd58e8961062f856001613e65565b6040518363ffffffff1660e01b815260040161064c92919061388e565b60206040518083038186803b15801561066457600080fd5b505afa158015610678573d6000803e3d6000fd5b505050506040513d601f19601f8201168201806040525081019061069c9190613605565b905080156107fa57600560006106b3846001613e65565b81526020808201929092526040908101600020815161012081018352815481526001820154938101939093526002810154918301919091526003810154606083015260048101546001600160a01b03908116608084015260058201541660a0830152600681015460c083015260078101805460e08401919061073490613ed3565b80601f016020809104026020016040519081016040528092919081815260200182805461076090613ed3565b80156107ad5780601f10610782576101008083540402835291602001916107ad565b820191906000526020600020905b81548152906001019060200180831161079057829003601f168201915b505050505081526020016008820154815250508484815181106107e057634e487b7160e01b600052603260045260246000fd5b602002602001018190525082806107f690613f0e565b9350505b508061080581613f0e565b9150506105ea565b509093505050505b919050565b565b60066020819052600091825260409091208054600182015460028301546003840154600485015460058601549686018054959794966001600160a01b039485169693909416949193919261086f90613ed3565b80601f016020809104026020016040519081016040528092919081815260200182805461089b90613ed3565b80156108e85780601f106108bd576101008083540402835291602001916108e8565b820191906000526020600020905b8154815290600101906020018083116108cb57829003601f168201915b505050506007830154600890930154919260ff1691905089565b6002546060906000805b8281101561095c576000600681610924846001613e65565b815260200190815260200160002060050154111561094a57610947600183613e65565b91505b8061095481613f0e565b91505061090c565b5060008167ffffffffffffffff81111561098657634e487b7160e01b600052604160045260246000fd5b6040519080825280602002602001820160405280156109bf57816020015b6109ac613280565b8152602001906001900390816109a45790505b5090506000805b84811015610b685760006006816109de846001613e65565b8152602001908152602001600020600501541115610b565760066000610a05836001613e65565b815260208082019290925260409081016000208151610120810183528154815260018201549381019390935260028101546001600160a01b03908116928401929092526003810154909116606083015260048101546080830152600581015460a083015260068101805460c084019190610a7e90613ed3565b80601f0160208091040260200160405190810160405280929190818152602001828054610aaa90613ed3565b8015610af75780601f10610acc57610100808354040283529160200191610af7565b820191906000526020600020905b815481529060010190602001808311610ada57829003601f168201915b5050509183525050600782015460ff16151560208201526008909101546040909101528351849084908110610b3c57634e487b7160e01b600052603260045260246000fd5b60200260200101819052508180610b5290613f0e565b9250505b80610b6081613f0e565b9150506109c6565b5090935050505090565b60008381526006602081815260408084208151610120810183528154815260018201549381019390935260028101546001600160a01b03908116928401929092526003810154909116606083015260048101546080830152600581015460a0830152918201805491929160c084019190610beb90613ed3565b80601f0160208091040260200160405190810160405280929190818152602001828054610c1790613ed3565b8015610c645780601f10610c3957610100808354040283529160200191610c64565b820191906000526020600020905b815481529060010190602001808311610c4757829003601f168201915b5050509183525050600782015460ff16151560208201526008909101546040918201528101519091506001600160a01b03163314610cbd5760405162461bcd60e51b8152600401610cb490613bdb565b60405180910390fd5b60008481526006602052604081206004018490556001805490918291610ce4908390613e65565b9091555050604080516101008101825260018054808352602085810151818501908152868601516001600160a01b03908116868801908152600060608801818152608089018d815260a0808d0151908b0190815260c08b018e81528c51808e018e52600c81527f4368616e67652070726963650000000000000000000000000000000000000000818b015260e08d0152988452600788529a9092208951815594519785019790975590516002840180549184166001600160a01b03199283161790559551600384018054919093169616959095179055925160048401559351600583015551805192939192610ddf92600685019201906132e0565b5060e08201518051610dfb9160078401916020909101906132e0565b50505050505050565b600860205260009081526040902080546001820154600283015460038401546004850154600586015460069096015494956001600160a01b039485169593949293929091169160ff1687565b60008281526006602081815260408084208151610120810183528154815260018201549381019390935260028101546001600160a01b03908116928401929092526003810154909116606083015260048101546080830152600581015460a0830152918201805491929160c084019190610ec990613ed3565b80601f0160208091040260200160405190810160405280929190818152602001828054610ef590613ed3565b8015610f425780601f10610f1757610100808354040283529160200191610f42565b820191906000526020600020905b815481529060010190602001808311610f2557829003601f168201915b5050509183525050600782015460ff161515602080830191909152600890920154604091820152606083015183820151928401519151637921219560e11b81529394506001600160a01b03169263f242432a92610fa6923092600190600401613856565b600060405180830381600087803b158015610fc057600080fd5b505af1158015610fd4573d6000803e3d6000fd5b505050506001806000828254610fea9190613e65565b9091555050604080516101008101825260018054808352602085810151818501908152600085870181815233606088019081526080808b015190890190815260a0890188815260c08a018d81528b51808d018d52601681527f456e642061756374696f6e20616e6420726566756e6400000000000000000000818a015260e08c0152978552600787529990932088518155935196840196909655516002830180546001600160a01b03199081166001600160a01b039384161790915595516003840180549097169116179094559251600484015593516005830155518051929391926110dc92600685019201906132e0565b5060e082015180516110f89160078401916020909101906132e0565b505050600092835250506008602090815260408083206006908101805460ff191660011790559091528120600581019190915560020180546001600160a01b0319169055565b611146613364565b50600090815260086020908152604091829020825160e0810184528154815260018201546001600160a01b03908116938201939093526002820154938101939093526003810154606084015260048101549091166080830152600581015460a08301526006015460ff16151560c082015290565b6111c2613222565b60008054905b8181101561132f5783600560006111e0846001613e65565b815260200190815260200160002060010154141561131d5760056000611207836001613e65565b81526020808201929092526040908101600020815161012081018352815481526001820154938101939093526002810154918301919091526003810154606083015260048101546001600160a01b03908116608084015260058201541660a0830152600681015460c083015260078101805460e08401919061128890613ed3565b80601f01602080910402602001604051908101604052809291908181526020018280546112b490613ed3565b80156113015780601f106112d657610100808354040283529160200191611301565b820191906000526020600020905b8154815290600101906020018083116112e457829003601f168201915b5050505050815260200160088201548152505092505050610815565b8061132781613f0e565b9150506111c8565b506040518061012001604052806000815260200160008152602001600081526020016000815260200160006001600160a01b0316815260200160006001600160a01b03168152602001600081526020016040518060200160405280600081525081526020016000815250915050919050565b6007602052600090815260409020805460018201546002830154600384015460048501546005860154600687018054969795966001600160a01b03958616969490951694929391926113f290613ed3565b80601f016020809104026020016040519081016040528092919081815260200182805461141e90613ed3565b801561146b5780601f106114405761010080835404028352916020019161146b565b820191906000526020600020905b81548152906001019060200180831161144e57829003601f168201915b50505050509080600701805461148090613ed3565b80601f01602080910402602001604051908101604052809291908181526020018280546114ac90613ed3565b80156114f95780601f106114ce576101008083540402835291602001916114f9565b820191906000526020600020905b8154815290600101906020018083116114dc57829003601f168201915b5050505050905088565b6000611519826115138686613203565b90613216565b949350505050565b600084815260086020908152604091829020825160e0810184528154815260018201546001600160a01b039081169382019390935260028201549381019390935260038101546060840181905260048201549092166080840152600581015460a08401526006015460ff16151560c08301528411156115b25760405162461bcd60e51b8152600401610cb490613ba4565b8060a0015182116115d55760405162461bcd60e51b8152600401610cb490613b36565b60008581526006602081815260408084208151610120810183528154815260018201549381019390935260028101546001600160a01b03908116928401929092526003810154909116606083015260048101546080830152600581015460a0830152918201805491929160c08401919061164e90613ed3565b80601f016020809104026020016040519081016040528092919081815260200182805461167a90613ed3565b80156116c75780601f1061169c576101008083540402835291602001916116c7565b820191906000526020600020905b8154815290600101906020018083116116aa57829003601f168201915b5050509183525050600782015460ff161515602082015260089091015460409091015260018054919250908190600090611702908390613e65565b909155505060408051610100810182526001805480835260208581015181850190815233858701908152600060608701818152608088018c815260a0890188815260c08a018f81528b51808d018d5260038082527f4269640000000000000000000000000000000000000000000000000000000000828b015260e08d0191909152988552600788529a9093208951815594519785019790975591516002840180546001600160a01b03199081166001600160a01b0393841617909155925195840180549093169516949094179055925160048401559051600583015592518051929391926117f692600685019201906132e0565b5060e082015180516118129160078401916020909101906132e0565b505050600095865250506006602090815260408086206004908101849055600890925290942093840180546001600160a01b031916331790556005909301929092555050565b60008281526006602081815260408084208151610120810183528154815260018201549381019390935260028101546001600160a01b03908116928401929092526003810154909116606083015260048101546080830152600581015460a0830152918201805491929160c0840191906118d190613ed3565b80601f01602080910402602001604051908101604052809291908181526020018280546118fd90613ed3565b801561194a5780601f1061191f5761010080835404028352916020019161194a565b820191906000526020600020905b81548152906001019060200180831161192d57829003601f168201915b5050509183525050600782015460ff16151560208201526008909101546040918201528101519091506001600160a01b031633141561199b5760405162461bcd60e51b8152600401610cb490613c49565b60608101516020820151604051637921219560e11b81526001600160a01b039092169163f242432a916119d79130913391600190600401613856565b600060405180830381600087803b1580156119f157600080fd5b505af1158015611a05573d6000803e3d6000fd5b505060008054925090505b81811015611b2c57602083015160056000611a2c846001613e65565b8152602001908152602001600020600101541415611b1a576000611a7134600583611a58866001613e65565b8152602001908152602001600020600801546064611503565b905060056000611a82846001613e65565b81526020810191909152604090810160009081206005015491516001600160a01b039092169183156108fc0291849190818181858888f19350505050158015611acf573d6000803e3d6000fd5b5060408401516001600160a01b03166108fc611aeb8334613ebc565b6040518115909202916000818181858888f19350505050158015611b13573d6000803e3d6000fd5b5050611b2c565b80611b2481613f0e565b915050611a10565b506001806000828254611b3f9190613e65565b9091555050604080516101008101825260018054808352602086810151818501908152878601516001600160a01b0390811686880190815233606088019081526080808c015190890190815260a0890188815260c08a018e81528b51808d018d5260038082527f4275790000000000000000000000000000000000000000000000000000000000828b015260e08d01919091526000998a52600789529b9098208a51815595519886019890985591516002850180549185166001600160a01b0319928316179055905198840180549990931698169790971790559451600486015591516005850155518051929392611c3d92600685019201906132e0565b5060e08201518051611c599160078401916020909101906132e0565b505050600084815260066020526040902060050154611c7a90600190613ebc565b6000858152600660205260409020600501819055611cb257600084815260066020526040902060020180546001600160a01b03191690555b50505050565b6000848152600560208181526040808420815161012081018352815481526001820154938101939093526002810154918301919091526003810154606083015260048101546001600160a01b0390811660808401529281015490921660a0820152600682015460c082015260078201805491929160e084019190611d3b90613ed3565b80601f0160208091040260200160405190810160405280929190818152602001828054611d6790613ed3565b8015611db45780601f10611d8957610100808354040283529160200191611db4565b820191906000526020600020905b815481529060010190602001808311611d9757829003601f168201915b50505091835250506008919091015460209182015260008781526005909152604080822060049081015491517efdd58e00000000000000000000000000000000000000000000000000000000815293945091926001600160a01b039091169162fdd58e91611e269133918b910161388e565b60206040518083038186803b158015611e3e57600080fd5b505afa158015611e52573d6000803e3d6000fd5b505050506040513d601f19601f82011682018060405250810190611e769190613605565b905080600114611e985760405162461bcd60e51b8152600401610cb490613ad9565b600160026000828254611eab9190613e65565b92505081905550604051806101200160405280600254815260200183602001518152602001336001600160a01b0316815260200183608001516001600160a01b03168152602001868152602001600181526020018360e0015181526020018515158152602001836101000151815250600660006002548152602001908152602001600020600082015181600001556020820151816001015560408201518160020160006101000a8154816001600160a01b0302191690836001600160a01b0316021790555060608201518160030160006101000a8154816001600160a01b0302191690836001600160a01b031602179055506080820151816004015560a0820151816005015560c0820151816006019080519060200190611fcd9291906132e0565b5060e082015160078201805460ff191691151591909117905561010090910151600890910155831515600114156120b1576040805160e0810182526002805480835233602080850191825242858701908152606086018a815260006080880181815260a0890182815260c08a0183815297835260089095529890209651875592516001870180546001600160a01b039283166001600160a01b031991821617909155915195870195909555915160038601559451600485018054919094169116179091559151600582015590516006909101805491151560ff199092169190911790555b60808201516020830151604051637921219560e11b81526001600160a01b039092169163f242432a916120ed9133913091600190600401613856565b600060405180830381600087803b15801561210757600080fd5b505af115801561211b573d6000803e3d6000fd5b50505050505050505050565b6000805460609180805b83811015612195576001600160a01b03861660056000612152846001613e65565b81526020810191909152604001600020600501546001600160a01b0316141561218357612180600184613e65565b92505b8061218d81613f0e565b915050612131565b5060008267ffffffffffffffff8111156121bf57634e487b7160e01b600052604160045260246000fd5b6040519080825280602002602001820160405280156121f857816020015b6121e5613222565b8152602001906001900390816121dd5790505b50905060005b848110156123a9576001600160a01b0387166005600061221f846001613e65565b81526020810191909152604001600020600501546001600160a01b031614156123975760056000612251836001613e65565b81526020808201929092526040908101600020815161012081018352815481526001820154938101939093526002810154918301919091526003810154606083015260048101546001600160a01b03908116608084015260058201541660a0830152600681015460c083015260078101805460e0840191906122d290613ed3565b80601f01602080910402602001604051908101604052809291908181526020018280546122fe90613ed3565b801561234b5780601f106123205761010080835404028352916020019161234b565b820191906000526020600020905b81548152906001019060200180831161232e57829003601f168201915b5050505050815260200160088201548152505082848151811061237e57634e487b7160e01b600052603260045260246000fd5b6020908102919091010152612394600184613e65565b92505b806123a181613f0e565b9150506121fe565b5095945050505050565b6001546060906000805b8281101561240d5784600760006123d5846001613e65565b81526020019081526020016000206001015414156123fb576123f8600183613e65565b91505b8061240581613f0e565b9150506123bd565b5060008167ffffffffffffffff81111561243757634e487b7160e01b600052604160045260246000fd5b60405190808252806020026020018201604052801561247057816020015b61245d6133b5565b8152602001906001900390816124555790505b5090506000805b8481101561080d57866007600061248f846001613e65565b815260200190815260200160002060010154141561267d57600760006124b6836001613e65565b815260208082019290925260409081016000208151610100810183528154815260018201549381019390935260028101546001600160a01b03908116928401929092526003810154909116606083015260048101546080830152600581015460a083015260068101805460c08401919061252f90613ed3565b80601f016020809104026020016040519081016040528092919081815260200182805461255b90613ed3565b80156125a85780601f1061257d576101008083540402835291602001916125a8565b820191906000526020600020905b81548152906001019060200180831161258b57829003601f168201915b505050505081526020016007820180546125c190613ed3565b80601f01602080910402602001604051908101604052809291908181526020018280546125ed90613ed3565b801561263a5780601f1061260f5761010080835404028352916020019161263a565b820191906000526020600020905b81548152906001019060200180831161261d57829003601f168201915b50505050508152505083838151811061266357634e487b7160e01b600052603260045260246000fd5b6020026020010181905250818061267990613f0e565b9250505b8061268781613f0e565b915050612477565b60056020819052600091825260409091208054600182015460028301546003840154600485015495850154600686015460078701805496989597949693956001600160a01b03908116959316939192916126e890613ed3565b80601f016020809104026020016040519081016040528092919081815260200182805461271490613ed3565b80156127615780601f1061273657610100808354040283529160200191612761565b820191906000526020600020905b81548152906001019060200180831161274457829003601f168201915b5050505050908060080154905089565b6002546060906000805b828110156127df576001600160a01b0385166006600061279c846001613e65565b81526020810191909152604001600020600201546001600160a01b031614156127cd576127ca600183613e65565b91505b806127d781613f0e565b91505061277b565b5060008167ffffffffffffffff81111561280957634e487b7160e01b600052604160045260246000fd5b60405190808252806020026020018201604052801561284257816020015b61282f613280565b8152602001906001900390816128275790505b5090506000805b8481101561080d576001600160a01b0387166006600061286a846001613e65565b81526020810191909152604001600020600201546001600160a01b031614156129ed576006600061289c836001613e65565b815260208082019290925260409081016000208151610120810183528154815260018201549381019390935260028101546001600160a01b03908116928401929092526003810154909116606083015260048101546080830152600581015460a083015260068101805460c08401919061291590613ed3565b80601f016020809104026020016040519081016040528092919081815260200182805461294190613ed3565b801561298e5780601f106129635761010080835404028352916020019161298e565b820191906000526020600020905b81548152906001019060200180831161297157829003601f168201915b5050509183525050600782015460ff161515602082015260089091015460409091015283518490849081106129d357634e487b7160e01b600052603260045260246000fd5b602002602001018190525081806129e990613f0e565b9250505b806129f781613f0e565b915050612849565b6000600860008481526020019081526020016000206040518060e0016040529081600082015481526020016001820160009054906101000a90046001600160a01b03166001600160a01b03166001600160a01b0316815260200160028201548152602001600382015481526020016004820160009054906101000a90046001600160a01b03166001600160a01b03166001600160a01b03168152602001600582015481526020016006820160009054906101000a900460ff16151515158152505090506000600660008581526020019081526020016000206040518061012001604052908160008201548152602001600182015481526020016002820160009054906101000a90046001600160a01b03166001600160a01b03166001600160a01b031681526020016003820160009054906101000a90046001600160a01b03166001600160a01b03166001600160a01b031681526020016004820154815260200160058201548152602001600682018054612b7990613ed3565b80601f0160208091040260200160405190810160405280929190818152602001828054612ba590613ed3565b8015612bf25780601f10612bc757610100808354040283529160200191612bf2565b820191906000526020600020905b815481529060010190602001808311612bd557829003601f168201915b5050509183525050600782015460ff161515602082015260089091015460409091015260808301519091506001600160a01b03163314612c445760405162461bcd60e51b8152600401610cb490613b6d565b8160a001513414612c675760405162461bcd60e51b8152600401610cb490613c12565b606081015160808301516020830151604051637921219560e11b81526001600160a01b039093169263f242432a92612ca6923092600190600401613856565b600060405180830381600087803b158015612cc057600080fd5b505af1158015612cd4573d6000803e3d6000fd5b505060008054925090505b81811015612de257602083015160056000612cfb846001613e65565b8152602001908152602001600020600101541415612dd0576000612d2734600583611a58866001613e65565b905060056000612d38846001613e65565b81526020810191909152604090810160009081206005015491516001600160a01b039092169183156108fc0291849190818181858888f19350505050158015612d85573d6000803e3d6000fd5b5060208501516001600160a01b03166108fc612da18334613ebc565b6040518115909202916000818181858888f19350505050158015612dc9573d6000803e3d6000fd5b5050612de2565b80612dda81613f0e565b915050612cdf565b506001806000828254612df59190613e65565b9091555050604080516101008101825260018054808352602086810151818501908152878601516001600160a01b039081168688019081526080808c0151831660608901908152818c015191890191825260a0890188815260c08a018f81528b51808d018d5260078082527f41756374696f6e00000000000000000000000000000000000000000000000000828b015260e08d01919091526000998a5288529a9097208951815594519785019790975590516002840180549184166001600160a01b0319928316179055955160038401805491909316961695909517905592516004840155905160058301559251805192939192612ef992600685019201906132e0565b5060e08201518051612f159160078401916020909101906132e0565b505050600094855250506008602090815260408085206006908101805460ff1916600117905590915283206005810193909355505060020180546001600160a01b0319169055565b60006064821115612f6d57606491505b6001600080828254612f7f9190613e65565b9250508190555060405180610120016040528060005481526020018681526020016001815260200160008152602001876001600160a01b03168152602001336001600160a01b03168152602001600081526020018581526020018381525060056000805481526020019081526020016000206000820151816000015560208201518160010155604082015181600201556060820151816003015560808201518160040160006101000a8154816001600160a01b0302191690836001600160a01b0316021790555060a08201518160050160006101000a8154816001600160a01b0302191690836001600160a01b0316021790555060c0820151816006015560e08201518160070190805190602001906130999291906132e0565b50610100820151816008015590505060018060008282546130ba9190613e65565b909155505060408051610100810182526001805480835260008054602080860191825233868801908152606087018481526080880185815260a0890188815260c08a018e81528b51808d018d5260078082527f43726561746564000000000000000000000000000000000000000000000000008289015260e08d01919091529888529785529990952088518155935196840196909655516002830180546001600160a01b03199081166001600160a01b0393841617909155955160038401805490971691161790945590516004820155935160058501555180519293926131a792600685019201906132e0565b5060e082015180516131c39160078401916020909101906132e0565b5050600054979650505050505050565b7ff23a6e610000000000000000000000000000000000000000000000000000000095945050505050565b60005490565b600061320f8284613e9d565b9392505050565b600061320f8284613e7d565b6040518061012001604052806000815260200160008152602001600081526020016000815260200160006001600160a01b0316815260200160006001600160a01b031681526020016000815260200160608152602001600081525090565b604051806101200160405280600081526020016000815260200160006001600160a01b0316815260200160006001600160a01b03168152602001600081526020016000815260200160608152602001600015158152602001600081525090565b8280546132ec90613ed3565b90600052602060002090601f01602090048101928261330e5760008555613354565b82601f1061332757805160ff1916838001178555613354565b82800160010185558215613354579182015b82811115613354578251825591602001919060010190613339565b5061336092915061340c565b5090565b6040518060e001604052806000815260200160006001600160a01b03168152602001600081526020016000815260200160006001600160a01b03168152602001600081526020016000151581525090565b604051806101000160405280600081526020016000815260200160006001600160a01b0316815260200160006001600160a01b03168152602001600081526020016000815260200160608152602001606081525090565b5b80821115613360576000815560010161340d565b600067ffffffffffffffff8084111561343c5761343c613f3f565b604051601f8501601f19908116603f0116810190828211818310171561346457613464613f3f565b8160405280935085815286868601111561347d57600080fd5b858560208301376000602087830101525050509392505050565b80356001600160a01b038116811461081557600080fd5b600082601f8301126134be578081fd5b61320f83833560208501613421565b6000602082840312156134de578081fd5b61320f82613497565b600080600080600060a086880312156134fe578081fd5b61350786613497565b945061351560208701613497565b93506040860135925060608601359150608086013567ffffffffffffffff81111561353e578182fd5b8601601f8101881361354e578182fd5b61355d88823560208401613421565b9150509295509295909350565b600080600080600060a08688031215613581578081fd5b61358a86613497565b945060208601359350604086013567ffffffffffffffff808211156135ad578283fd5b6135b989838a016134ae565b945060608801359150808211156135ce578283fd5b506135db888289016134ae565b95989497509295608001359392505050565b6000602082840312156135fe578081fd5b5035919050565b600060208284031215613616578081fd5b5051919050565b6000806040838503121561362f578182fd5b82359150602083013567ffffffffffffffff81111561364c578182fd5b613658858286016134ae565b9150509250929050565b60008060008060808587031215613677578384fd5b843593506020850135925060408501358015158114613694578283fd5b9396929550929360600135925050565b6000806000606084860312156136b8578283fd5b8335925060208401359150604084013567ffffffffffffffff8111156136dc578182fd5b6136e8868287016134ae565b9150509250925092565b60008060008060808587031215613707578384fd5b8435935060208501359250604085013567ffffffffffffffff81111561372b578283fd5b613737878288016134ae565b949793965093946060013593505050565b60008060006060848603121561375c578283fd5b505081359360208301359350604090920135919050565b6001600160a01b03169052565b15159052565b60008151808452815b818110156137ab5760208185018101518683018201520161378f565b818111156137bc5782602083870101525b50601f01601f19169290920160200192915050565b6000610120825184526020830151602085015260408301516040850152606083015160608501526001600160a01b03608084015116608085015260a083015161381d60a0860182613773565b5060c083015160c085015260e08301518160e086015261383f82860182613786565b610100948501519590940194909452509092915050565b6001600160a01b0394851681529290931660208301526040820152606081019190915260a06080820181905260009082015260c00190565b6001600160a01b03929092168252602082015260400190565b60208082528251828201819052600091906040908185019080840286018301878501865b8381101561397057603f1989840301855281516101008151855288820151898601526001600160a01b0388830151168886015260608083015161391082880182613773565b50506080828101519086015260a0808301519086015260c08083015181870183905261393e83880182613786565b9250505060e0808301519250858203818701525061395c8183613786565b9689019694505050908601906001016138cb565b509098975050505050505050565b6000602080830181845280855180835260408601915060408482028701019250838701855b828110156139d157603f198886030184526139bf8583516137d1565b945092850192908501906001016139a3565b5092979650505050505050565b60208082528251828201819052600091906040908185019080840286018301878501865b8381101561397057603f19898403018552815161012081518552888201518986015287820151613a3489870182613773565b50606080830151613a4782880182613773565b50506080828101519086015260a0808301519086015260c080830151818701839052613a7583880182613786565b9250505060e080830151613a8b82880182613780565b50506101009182015194909101939093529386019390860190600101613a02565b7fffffffff0000000000000000000000000000000000000000000000000000000091909116815260200190565b60208082526030908201527f4e6f207375636820746f6b656e2c206f72207075626c69736820746f206d617260408201527f6b6574706c61636520616c726561647900000000000000000000000000000000606082015260800190565b60208082526010908201527f4e6f7420656e6f75676820707269636500000000000000000000000000000000604082015260600190565b60208082526015908201527f636f727265637420686967686573744269646465720000000000000000000000604082015260600190565b60208082526009908201527f6f7665722074696d650000000000000000000000000000000000000000000000604082015260600190565b6020808252600d908201527f4e6f7420746865206f776e657200000000000000000000000000000000000000604082015260600190565b60208082526011908201527f4e6f7420636f7272656374207072696365000000000000000000000000000000604082015260600190565b60208082526016908201527f53656c6c6572206e6f7420746f20626520627579657200000000000000000000604082015260600190565b600060e0820190508251825260208301516001600160a01b0380821660208501526040850151604085015260608501516060850152806080860151166080850152505060a083015160a083015260c0830151151560c083015292915050565b60006020825261320f60208301846137d1565b90815260200190565b9687526001600160a01b03958616602088015260408701949094526060860192909252909216608084015260a0830191909152151560c082015260e00190565b60006101208b83528a60208401526001600160a01b03808b166040850152808a166060850152508760808401528660a08401528060c0840152613d8081840187613786565b94151560e084015250506101000152979650505050505050565b60006101008a83528960208401526001600160a01b03808a1660408501528089166060850152508660808401528560a08401528060c0840152613ddf81840186613786565b905082810360e0840152613df38185613786565b9b9a5050505050505050505050565b60006101208b83528a60208401528960408401528860608401526001600160a01b03808916608085015280881660a0850152508560c08401528060e0840152613e4d81840186613786565b915050826101008301529a9950505050505050505050565b60008219821115613e7857613e78613f29565b500190565b600082613e9857634e487b7160e01b81526012600452602481fd5b500490565b6000816000190483118215151615613eb757613eb7613f29565b500290565b600082821015613ece57613ece613f29565b500390565b600281046001821680613ee757607f821691505b60208210811415613f0857634e487b7160e01b600052602260045260246000fd5b50919050565b6000600019821415613f2257613f22613f29565b5060010190565b634e487b7160e01b600052601160045260246000fd5b634e487b7160e01b600052604160045260246000fdfea2646970667358221220dd524bbe89022723ec07c1b2fa459d85bce74308fe4bc770d021d95ff020559e64736f6c63430008010033",
  "linkReferences": {},
  "deployedLinkReferences": {}
}