{
  "_format": "hh-sol-artifact-1",
  "contractName": "MarketPlace",
  "sourceName": "contracts/MarketPlace.sol",
  "abi": [
    {
      "inputs": [],
      "stateMutability": "nonpayable",
      "type": "constructor"
    },
    {
      "inputs": [
        {
          "internalType": "uint256",
          "name": "",
          "type": "uint256"
        }
      ],
      "name": "TradeItems",
      "outputs": [
        {
          "internalType": "uint256",
          "name": "_itemId",
          "type": "uint256"
        },
        {
          "internalType": "uint256",
          "name": "_tokenId",
          "type": "uint256"
        },
        {
          "internalType": "uint256",
          "name": "initialSupply",
          "type": "uint256"
        },
        {
          "internalType": "uint256",
          "name": "publicSupply",
          "type": "uint256"
        },
        {
          "internalType": "address",
          "name": "token",
          "type": "address"
        },
        {
          "internalType": "address",
          "name": "creator",
          "type": "address"
        },
        {
          "internalType": "uint256",
          "name": "price",
          "type": "uint256"
        },
        {
          "internalType": "string",
          "name": "uri",
          "type": "string"
        },
        {
          "internalType": "uint256",
          "name": "royaltyAmount",
          "type": "uint256"
        }
      ],
      "stateMutability": "view",
      "type": "function"
    },
    {
      "inputs": [
        {
          "internalType": "uint256",
          "name": "_tradeId",
          "type": "uint256"
        },
        {
          "internalType": "string",
          "name": "_time",
          "type": "string"
        }
      ],
      "name": "auctionEnd",
      "outputs": [],
      "stateMutability": "payable",
      "type": "function"
    },
    {
      "inputs": [
        {
          "internalType": "uint256",
          "name": "",
          "type": "uint256"
        }
      ],
      "name": "auctions",
      "outputs": [
        {
          "internalType": "uint256",
          "name": "_tradeId",
          "type": "uint256"
        },
        {
          "internalType": "address",
          "name": "beneficiary",
          "type": "address"
        },
        {
          "internalType": "uint256",
          "name": "auctionStart",
          "type": "uint256"
        },
        {
          "internalType": "uint256",
          "name": "biddingTime",
          "type": "uint256"
        },
        {
          "internalType": "address",
          "name": "highestBidder",
          "type": "address"
        },
        {
          "internalType": "uint256",
          "name": "highestBid",
          "type": "uint256"
        },
        {
          "internalType": "bool",
          "name": "ended",
          "type": "bool"
        }
      ],
      "stateMutability": "view",
      "type": "function"
    },
    {
      "inputs": [
        {
          "internalType": "uint256",
          "name": "_tradeId",
          "type": "uint256"
        },
        {
          "internalType": "uint256",
          "name": "_now",
          "type": "uint256"
        },
        {
          "internalType": "string",
          "name": "time",
          "type": "string"
        },
        {
          "internalType": "uint256",
          "name": "_price",
          "type": "uint256"
        }
      ],
      "name": "bid",
      "outputs": [],
      "stateMutability": "payable",
      "type": "function"
    },
    {
      "inputs": [
        {
          "internalType": "uint256",
          "name": "_tradeId",
          "type": "uint256"
        },
        {
          "internalType": "string",
          "name": "time",
          "type": "string"
        }
      ],
      "name": "buy",
      "outputs": [],
      "stateMutability": "payable",
      "type": "function"
    },
    {
      "inputs": [
        {
          "internalType": "uint256",
          "name": "_tradeId",
          "type": "uint256"
        },
        {
          "internalType": "uint256",
          "name": "_price",
          "type": "uint256"
        },
        {
          "internalType": "string",
          "name": "time",
          "type": "string"
        }
      ],
      "name": "changePrice",
      "outputs": [],
      "stateMutability": "nonpayable",
      "type": "function"
    },
    {
      "inputs": [
        {
          "internalType": "address",
          "name": "sender",
          "type": "address"
        }
      ],
      "name": "fetchItemsCreated",
      "outputs": [
        {
          "components": [
            {
              "internalType": "uint256",
              "name": "_itemId",
              "type": "uint256"
            },
            {
              "internalType": "uint256",
              "name": "_tokenId",
              "type": "uint256"
            },
            {
              "internalType": "uint256",
              "name": "initialSupply",
              "type": "uint256"
            },
            {
              "internalType": "uint256",
              "name": "publicSupply",
              "type": "uint256"
            },
            {
              "internalType": "address",
              "name": "token",
              "type": "address"
            },
            {
              "internalType": "address",
              "name": "creator",
              "type": "address"
            },
            {
              "internalType": "uint256",
              "name": "price",
              "type": "uint256"
            },
            {
              "internalType": "string",
              "name": "uri",
              "type": "string"
            },
            {
              "internalType": "uint256",
              "name": "royaltyAmount",
              "type": "uint256"
            }
          ],
          "internalType": "struct MarketPlace.TradeItem[]",
          "name": "",
          "type": "tuple[]"
        }
      ],
      "stateMutability": "view",
      "type": "function"
    },
    {
      "inputs": [],
      "name": "getAllTokens",
      "outputs": [
        {
          "components": [
            {
              "internalType": "uint256",
              "name": "_tradeId",
              "type": "uint256"
            },
            {
              "internalType": "uint256",
              "name": "_tokenId",
              "type": "uint256"
            },
            {
              "internalType": "address",
              "name": "poster",
              "type": "address"
            },
            {
              "internalType": "address",
              "name": "token",
              "type": "address"
            },
            {
              "internalType": "uint256",
              "name": "price",
              "type": "uint256"
            },
            {
              "internalType": "uint256",
              "name": "amount",
              "type": "uint256"
            },
            {
              "internalType": "string",
              "name": "uri",
              "type": "string"
            },
            {
              "internalType": "bool",
              "name": "auction",
              "type": "bool"
            },
            {
              "internalType": "uint256",
              "name": "royaltyAmount",
              "type": "uint256"
            }
          ],
          "internalType": "struct MarketPlace.Trade[]",
          "name": "",
          "type": "tuple[]"
        }
      ],
      "stateMutability": "view",
      "type": "function"
    },
    {
      "inputs": [
        {
          "internalType": "uint256",
          "name": "id",
          "type": "uint256"
        }
      ],
      "name": "getAuction",
      "outputs": [
        {
          "components": [
            {
              "internalType": "uint256",
              "name": "_tradeId",
              "type": "uint256"
            },
            {
              "internalType": "address",
              "name": "beneficiary",
              "type": "address"
            },
            {
              "internalType": "uint256",
              "name": "auctionStart",
              "type": "uint256"
            },
            {
              "internalType": "uint256",
              "name": "biddingTime",
              "type": "uint256"
            },
            {
              "internalType": "address",
              "name": "highestBidder",
              "type": "address"
            },
            {
              "internalType": "uint256",
              "name": "highestBid",
              "type": "uint256"
            },
            {
              "internalType": "bool",
              "name": "ended",
              "type": "bool"
            }
          ],
          "internalType": "struct MarketPlace.Auction",
          "name": "",
          "type": "tuple"
        }
      ],
      "stateMutability": "view",
      "type": "function"
    },
    {
      "inputs": [
        {
          "internalType": "uint256",
          "name": "id",
          "type": "uint256"
        }
      ],
      "name": "getHistory",
      "outputs": [
        {
          "components": [
            {
              "internalType": "uint256",
              "name": "_recordId",
              "type": "uint256"
            },
            {
              "internalType": "uint256",
              "name": "_tokenId",
              "type": "uint256"
            },
            {
              "internalType": "address",
              "name": "seller",
              "type": "address"
            },
            {
              "internalType": "address",
              "name": "buyer",
              "type": "address"
            },
            {
              "internalType": "uint256",
              "name": "price",
              "type": "uint256"
            },
            {
              "internalType": "uint256",
              "name": "amount",
              "type": "uint256"
            },
            {
              "internalType": "string",
              "name": "time",
              "type": "string"
            },
            {
              "internalType": "string",
              "name": "des",
              "type": "string"
            }
          ],
          "internalType": "struct MarketPlace.History[]",
          "name": "",
          "type": "tuple[]"
        }
      ],
      "stateMutability": "view",
      "type": "function"
    },
    {
      "inputs": [
        {
          "internalType": "address",
          "name": "sender",
          "type": "address"
        }
      ],
      "name": "getMyTokens",
      "outputs": [
        {
          "components": [
            {
              "internalType": "uint256",
              "name": "_itemId",
              "type": "uint256"
            },
            {
              "internalType": "uint256",
              "name": "_tokenId",
              "type": "uint256"
            },
            {
              "internalType": "uint256",
              "name": "initialSupply",
              "type": "uint256"
            },
            {
              "internalType": "uint256",
              "name": "publicSupply",
              "type": "uint256"
            },
            {
              "internalType": "address",
              "name": "token",
              "type": "address"
            },
            {
              "internalType": "address",
              "name": "creator",
              "type": "address"
            },
            {
              "internalType": "uint256",
              "name": "price",
              "type": "uint256"
            },
            {
              "internalType": "string",
              "name": "uri",
              "type": "string"
            },
            {
              "internalType": "uint256",
              "name": "royaltyAmount",
              "type": "uint256"
            }
          ],
          "internalType": "struct MarketPlace.TradeItem[]",
          "name": "",
          "type": "tuple[]"
        }
      ],
      "stateMutability": "view",
      "type": "function"
    },
    {
      "inputs": [],
      "name": "getNumber",
      "outputs": [
        {
          "internalType": "uint256",
          "name": "",
          "type": "uint256"
        }
      ],
      "stateMutability": "view",
      "type": "function"
    },
    {
      "inputs": [
        {
          "internalType": "address",
          "name": "sender",
          "type": "address"
        }
      ],
      "name": "getSellingTokens",
      "outputs": [
        {
          "components": [
            {
              "internalType": "uint256",
              "name": "_tradeId",
              "type": "uint256"
            },
            {
              "internalType": "uint256",
              "name": "_tokenId",
              "type": "uint256"
            },
            {
              "internalType": "address",
              "name": "poster",
              "type": "address"
            },
            {
              "internalType": "address",
              "name": "token",
              "type": "address"
            },
            {
              "internalType": "uint256",
              "name": "price",
              "type": "uint256"
            },
            {
              "internalType": "uint256",
              "name": "amount",
              "type": "uint256"
            },
            {
              "internalType": "string",
              "name": "uri",
              "type": "string"
            },
            {
              "internalType": "bool",
              "name": "auction",
              "type": "bool"
            },
            {
              "internalType": "uint256",
              "name": "royaltyAmount",
              "type": "uint256"
            }
          ],
          "internalType": "struct MarketPlace.Trade[]",
          "name": "",
          "type": "tuple[]"
        }
      ],
      "stateMutability": "view",
      "type": "function"
    },
    {
      "inputs": [
        {
          "internalType": "uint256",
          "name": "",
          "type": "uint256"
        }
      ],
      "name": "history",
      "outputs": [
        {
          "internalType": "uint256",
          "name": "_recordId",
          "type": "uint256"
        },
        {
          "internalType": "uint256",
          "name": "_tokenId",
          "type": "uint256"
        },
        {
          "internalType": "address",
          "name": "seller",
          "type": "address"
        },
        {
          "internalType": "address",
          "name": "buyer",
          "type": "address"
        },
        {
          "internalType": "uint256",
          "name": "price",
          "type": "uint256"
        },
        {
          "internalType": "uint256",
          "name": "amount",
          "type": "uint256"
        },
        {
          "internalType": "string",
          "name": "time",
          "type": "string"
        },
        {
          "internalType": "string",
          "name": "des",
          "type": "string"
        }
      ],
      "stateMutability": "view",
      "type": "function"
    },
    {
      "inputs": [
        {
          "internalType": "address",
          "name": "token",
          "type": "address"
        },
        {
          "internalType": "uint256",
          "name": "_tokenId",
          "type": "uint256"
        },
        {
          "internalType": "string",
          "name": "uri",
          "type": "string"
        },
        {
          "internalType": "string",
          "name": "time",
          "type": "string"
        },
        {
          "internalType": "uint256",
          "name": "royalty",
          "type": "uint256"
        }
      ],
      "name": "listToken",
      "outputs": [
        {
          "internalType": "uint256",
          "name": "",
          "type": "uint256"
        }
      ],
      "stateMutability": "nonpayable",
      "type": "function"
    },
    {
      "inputs": [
        {
          "internalType": "uint256",
          "name": "x",
          "type": "uint256"
        },
        {
          "internalType": "uint256",
          "name": "y",
          "type": "uint256"
        },
        {
          "internalType": "uint256",
          "name": "z",
          "type": "uint256"
        }
      ],
      "name": "mulDiv",
      "outputs": [
        {
          "internalType": "uint256",
          "name": "",
          "type": "uint256"
        }
      ],
      "stateMutability": "pure",
      "type": "function"
    },
    {
      "inputs": [
        {
          "internalType": "address",
          "name": "",
          "type": "address"
        },
        {
          "internalType": "address",
          "name": "",
          "type": "address"
        },
        {
          "internalType": "uint256",
          "name": "",
          "type": "uint256"
        },
        {
          "internalType": "uint256",
          "name": "",
          "type": "uint256"
        },
        {
          "internalType": "bytes",
          "name": "",
          "type": "bytes"
        }
      ],
      "name": "onERC1155Received",
      "outputs": [
        {
          "internalType": "bytes4",
          "name": "",
          "type": "bytes4"
        }
      ],
      "stateMutability": "nonpayable",
      "type": "function"
    },
    {
      "inputs": [],
      "name": "pay",
      "outputs": [],
      "stateMutability": "payable",
      "type": "function"
    },
    {
      "inputs": [
        {
          "internalType": "uint256",
          "name": "_itemId",
          "type": "uint256"
        },
        {
          "internalType": "uint256",
          "name": "_price",
          "type": "uint256"
        },
        {
          "internalType": "bool",
          "name": "_auction",
          "type": "bool"
        },
        {
          "internalType": "uint256",
          "name": "_bidEndTime",
          "type": "uint256"
        }
      ],
      "name": "publicToAll",
      "outputs": [],
      "stateMutability": "nonpayable",
      "type": "function"
    },
    {
      "inputs": [
        {
          "internalType": "uint256",
          "name": "_tradeId",
          "type": "uint256"
        },
        {
          "internalType": "string",
          "name": "_time",
          "type": "string"
        }
      ],
      "name": "refund",
      "outputs": [],
      "stateMutability": "nonpayable",
      "type": "function"
    },
    {
      "inputs": [
        {
          "internalType": "uint256",
          "name": "",
          "type": "uint256"
        }
      ],
      "name": "trades",
      "outputs": [
        {
          "internalType": "uint256",
          "name": "_tradeId",
          "type": "uint256"
        },
        {
          "internalType": "uint256",
          "name": "_tokenId",
          "type": "uint256"
        },
        {
          "internalType": "address",
          "name": "poster",
          "type": "address"
        },
        {
          "internalType": "address",
          "name": "token",
          "type": "address"
        },
        {
          "internalType": "uint256",
          "name": "price",
          "type": "uint256"
        },
        {
          "internalType": "uint256",
          "name": "amount",
          "type": "uint256"
        },
        {
          "internalType": "string",
          "name": "uri",
          "type": "string"
        },
        {
          "internalType": "bool",
          "name": "auction",
          "type": "bool"
        },
        {
          "internalType": "uint256",
          "name": "royaltyAmount",
          "type": "uint256"
        }
      ],
      "stateMutability": "view",
      "type": "function"
    }
  ],
  "bytecode": "0x60806040526000805560006001556000600255600060045534801561002357600080fd5b50600380546001600160a01b03191633179055613d3a806100456000396000f3fe60806040526004361061016a5760003560e01c8063b19bdf21116100cb578063cc3305f91161007f578063f122d53911610059578063f122d53914610402578063f23a6e6114610422578063f2c9ecd81461044f5761016a565b8063cc3305f91461039a578063ce83ddf0146103cf578063e7c52629146103ef5761016a565b8063c24796c0116100b0578063c24796c01461032d578063c83384561461034d578063c8691b2a1461036d5761016a565b8063b19bdf2114610307578063b7dc3b181461031a5761016a565b8063571a26a01161012257806378bd79351161010757806378bd793514610279578063a7a38f0b146102a6578063aa9a0912146102da5761016a565b8063571a26a01461022657806365670b5d146102595761016a565b80631e6c598e116101535780631e6c598e146101af5780632a5c792a146101e45780633f282873146102065761016a565b8063175165921461016f5780631b9265b8146101a5575b600080fd5b34801561017b57600080fd5b5061018f61018a3660046132ae565b610464565b60405161019c91906136da565b60405180910390f35b6101ad6107e2565b005b3480156101bb57600080fd5b506101cf6101ca3660046133ce565b6107e4565b60405161019c99989796959493929190613aea565b3480156101f057600080fd5b506101f96108ca565b60405161019c91906137a0565b34801561021257600080fd5b506101ad610221366004613485565b610b3a565b34801561023257600080fd5b506102466102413660046133ce565b610dcc565b60405161019c9796959493929190613aaa565b34801561026557600080fd5b506101ad6102743660046133fe565b610e18565b34801561028557600080fd5b506102996102943660046133ce565b611106565b60405161019c9190613a42565b3480156102b257600080fd5b506102c66102c13660046133ce565b611182565b60405161019c989796959493929190613b49565b3480156102e657600080fd5b506102fa6102f5366004613529565b6112e4565b60405161019c9190613aa1565b6101ad6103153660046134d3565b611302565b6101ad6103283660046133fe565b611639565b34801561033957600080fd5b506101ad610348366004613443565b611a99565b34801561035957600080fd5b5061018f6103683660046132ae565b611f08565b34801561037957600080fd5b5061038d6103883660046133ce565b612194565b60405161019c9190613603565b3480156103a657600080fd5b506103ba6103b53660046133ce565b612470565b60405161019c99989796959493929190613bb1565b3480156103db57600080fd5b506101f96103ea3660046132ae565b612552565b6101ad6103fd3660046133fe565b6127e0565b34801561040e57600080fd5b506102fa61041d36600461334b565b612d3e565b34801561042e57600080fd5b5061044261043d3660046132c8565b612fb4565b60405161019c919061386e565b34801561045b57600080fd5b506102fa612fde565b60008054606091805b82811015610548576000600581610485846001613c14565b81526020810191909152604001600020600401546001600160a01b031662fdd58e876104b2856001613c14565b6040518363ffffffff1660e01b81526004016104cf9291906135ea565b60206040518083038186803b1580156104e757600080fd5b505afa1580156104fb573d6000803e3d6000fd5b505050506040513d601f19601f8201168201806040525081019061051f91906133e6565b9050801561053557610532600184613c14565b92505b508061054081613cbd565b91505061046d565b5060008167ffffffffffffffff81111561057257634e487b7160e01b600052604160045260246000fd5b6040519080825280602002602001820160405280156105ab57816020015b610598613003565b8152602001906001900390816105905790505b5090506000805b848110156107d55760006005816105ca846001613c14565b81526020810191909152604001600020600401546001600160a01b031662fdd58e896105f7856001613c14565b6040518363ffffffff1660e01b81526004016106149291906135ea565b60206040518083038186803b15801561062c57600080fd5b505afa158015610640573d6000803e3d6000fd5b505050506040513d601f19601f8201168201806040525081019061066491906133e6565b905080156107c2576005600061067b846001613c14565b81526020808201929092526040908101600020815161012081018352815481526001820154938101939093526002810154918301919091526003810154606083015260048101546001600160a01b03908116608084015260058201541660a0830152600681015460c083015260078101805460e0840191906106fc90613c82565b80601f016020809104026020016040519081016040528092919081815260200182805461072890613c82565b80156107755780601f1061074a57610100808354040283529160200191610775565b820191906000526020600020905b81548152906001019060200180831161075857829003601f168201915b505050505081526020016008820154815250508484815181106107a857634e487b7160e01b600052603260045260246000fd5b602002602001018190525082806107be90613cbd565b9350505b50806107cd81613cbd565b9150506105b2565b509093505050505b919050565b565b60066020819052600091825260409091208054600182015460028301546003840154600485015460058601549686018054959794966001600160a01b039485169693909416949193919261083790613c82565b80601f016020809104026020016040519081016040528092919081815260200182805461086390613c82565b80156108b05780601f10610885576101008083540402835291602001916108b0565b820191906000526020600020905b81548152906001019060200180831161089357829003601f168201915b505050506007830154600890930154919260ff1691905089565b6002546060906000805b828110156109245760006006816108ec846001613c14565b81526020019081526020016000206005015411156109125761090f600183613c14565b91505b8061091c81613cbd565b9150506108d4565b5060008167ffffffffffffffff81111561094e57634e487b7160e01b600052604160045260246000fd5b60405190808252806020026020018201604052801561098757816020015b610974613061565b81526020019060019003908161096c5790505b5090506000805b84811015610b305760006006816109a6846001613c14565b8152602001908152602001600020600501541115610b1e57600660006109cd836001613c14565b815260208082019290925260409081016000208151610120810183528154815260018201549381019390935260028101546001600160a01b03908116928401929092526003810154909116606083015260048101546080830152600581015460a083015260068101805460c084019190610a4690613c82565b80601f0160208091040260200160405190810160405280929190818152602001828054610a7290613c82565b8015610abf5780601f10610a9457610100808354040283529160200191610abf565b820191906000526020600020905b815481529060010190602001808311610aa257829003601f168201915b5050509183525050600782015460ff16151560208201526008909101546040909101528351849084908110610b0457634e487b7160e01b600052603260045260246000fd5b60200260200101819052508180610b1a90613cbd565b9250505b80610b2881613cbd565b91505061098e565b5090935050505090565b60008381526006602081815260408084208151610120810183528154815260018201549381019390935260028101546001600160a01b03908116928401929092526003810154909116606083015260048101546080830152600581015460a0830152918201805491929160c084019190610bb390613c82565b80601f0160208091040260200160405190810160405280929190818152602001828054610bdf90613c82565b8015610c2c5780601f10610c0157610100808354040283529160200191610c2c565b820191906000526020600020905b815481529060010190602001808311610c0f57829003601f168201915b5050509183525050600782015460ff16151560208201526008909101546040918201528101519091506001600160a01b03163314610c855760405162461bcd60e51b8152600401610c7c9061399d565b60405180910390fd5b60008481526006602052604081206004018490556001805490918291610cac908390613c14565b9091555050604080516101008101825260018054808352602085810151818501908152868601516001600160a01b03908116868801908152600060608801818152608089018d815260a0808d0151908b0190815260c08b018e81528c51808e018e52600c81527f4368616e67652070726963650000000000000000000000000000000000000000818b015260e08d0152988452600788529a9092208951815594519785019790975590516002840180549184166001600160a01b03199283161790559551600384018054919093169616959095179055925160048401559351600583015551805192939192610da792600685019201906130c1565b5060e08201518051610dc39160078401916020909101906130c1565b50505050505050565b600860205260009081526040902080546001820154600283015460038401546004850154600586015460069096015494956001600160a01b039485169593949293929091169160ff1687565b60008281526006602081815260408084208151610120810183528154815260018201549381019390935260028101546001600160a01b03908116928401929092526003810154909116606083015260048101546080830152600581015460a0830152918201805491929160c084019190610e9190613c82565b80601f0160208091040260200160405190810160405280929190818152602001828054610ebd90613c82565b8015610f0a5780601f10610edf57610100808354040283529160200191610f0a565b820191906000526020600020905b815481529060010190602001808311610eed57829003601f168201915b5050509183525050600782015460ff161515602080830191909152600890920154604091820152606083015183820151928401519151637921219560e11b81529394506001600160a01b03169263f242432a92610f6e9230926001906004016135b2565b600060405180830381600087803b158015610f8857600080fd5b505af1158015610f9c573d6000803e3d6000fd5b505050506001806000828254610fb29190613c14565b9091555050604080516101008101825260018054808352602085810151818501908152600085870181815233606088019081526080808b015190890190815260a0890188815260c08a018d81528b51808d018d52601681527f456e642061756374696f6e20616e6420726566756e6400000000000000000000818a015260e08c0152978552600787529990932088518155935196840196909655516002830180546001600160a01b03199081166001600160a01b039384161790915595516003840180549097169116179094559251600484015593516005830155518051929391926110a492600685019201906130c1565b5060e082015180516110c09160078401916020909101906130c1565b505050600092835250506008602090815260408083206006908101805460ff191660011790559091528120600581019190915560020180546001600160a01b0319169055565b61110e613145565b50600090815260086020908152604091829020825160e0810184528154815260018201546001600160a01b03908116938201939093526002820154938101939093526003810154606084015260048101549091166080830152600581015460a08301526006015460ff16151560c082015290565b6007602052600090815260409020805460018201546002830154600384015460048501546005860154600687018054969795966001600160a01b03958616969490951694929391926111d390613c82565b80601f01602080910402602001604051908101604052809291908181526020018280546111ff90613c82565b801561124c5780601f106112215761010080835404028352916020019161124c565b820191906000526020600020905b81548152906001019060200180831161122f57829003601f168201915b50505050509080600701805461126190613c82565b80601f016020809104026020016040519081016040528092919081815260200182805461128d90613c82565b80156112da5780601f106112af576101008083540402835291602001916112da565b820191906000526020600020905b8154815290600101906020018083116112bd57829003601f168201915b5050505050905088565b60006112fa826112f48686612fe4565b90612ff7565b949350505050565b600084815260086020908152604091829020825160e0810184528154815260018201546001600160a01b039081169382019390935260028201549381019390935260038101546060840181905260048201549092166080840152600581015460a08401526006015460ff16151560c08301528411156113935760405162461bcd60e51b8152600401610c7c90613966565b8060a0015182116113b65760405162461bcd60e51b8152600401610c7c906138f8565b60008581526006602081815260408084208151610120810183528154815260018201549381019390935260028101546001600160a01b03908116928401929092526003810154909116606083015260048101546080830152600581015460a0830152918201805491929160c08401919061142f90613c82565b80601f016020809104026020016040519081016040528092919081815260200182805461145b90613c82565b80156114a85780601f1061147d576101008083540402835291602001916114a8565b820191906000526020600020905b81548152906001019060200180831161148b57829003601f168201915b5050509183525050600782015460ff1615156020820152600890910154604090910152600180549192509081906000906114e3908390613c14565b909155505060408051610100810182526001805480835260208581015181850190815233858701908152600060608701818152608088018c815260a0890188815260c08a018f81528b51808d018d5260038082527f4269640000000000000000000000000000000000000000000000000000000000828b015260e08d0191909152988552600788529a9093208951815594519785019790975591516002840180546001600160a01b03199081166001600160a01b0393841617909155925195840180549093169516949094179055925160048401559051600583015592518051929391926115d792600685019201906130c1565b5060e082015180516115f39160078401916020909101906130c1565b505050600095865250506006602090815260408086206004908101849055600890925290942093840180546001600160a01b031916331790556005909301929092555050565b60008281526006602081815260408084208151610120810183528154815260018201549381019390935260028101546001600160a01b03908116928401929092526003810154909116606083015260048101546080830152600581015460a0830152918201805491929160c0840191906116b290613c82565b80601f01602080910402602001604051908101604052809291908181526020018280546116de90613c82565b801561172b5780601f106117005761010080835404028352916020019161172b565b820191906000526020600020905b81548152906001019060200180831161170e57829003601f168201915b5050509183525050600782015460ff16151560208201526008909101546040918201528101519091506001600160a01b031633141561177c5760405162461bcd60e51b8152600401610c7c90613a0b565b60608101516020820151604051637921219560e11b81526001600160a01b039092169163f242432a916117b891309133916001906004016135b2565b600060405180830381600087803b1580156117d257600080fd5b505af11580156117e6573d6000803e3d6000fd5b505060008054925090505b8181101561190d5760208301516005600061180d846001613c14565b81526020019081526020016000206001015414156118fb57600061185234600583611839866001613c14565b81526020019081526020016000206008015460646112e4565b905060056000611863846001613c14565b81526020810191909152604090810160009081206005015491516001600160a01b039092169183156108fc0291849190818181858888f193505050501580156118b0573d6000803e3d6000fd5b5060408401516001600160a01b03166108fc6118cc8334613c6b565b6040518115909202916000818181858888f193505050501580156118f4573d6000803e3d6000fd5b505061190d565b8061190581613cbd565b9150506117f1565b5060018060008282546119209190613c14565b9091555050604080516101008101825260018054808352602086810151818501908152878601516001600160a01b0390811686880190815233606088019081526080808c015190890190815260a0890188815260c08a018e81528b51808d018d5260038082527f4275790000000000000000000000000000000000000000000000000000000000828b015260e08d01919091526000998a52600789529b9098208a51815595519886019890985591516002850180549185166001600160a01b0319928316179055905198840180549990931698169790971790559451600486015591516005850155518051929392611a1e92600685019201906130c1565b5060e08201518051611a3a9160078401916020909101906130c1565b505050600084815260066020526040902060050154611a5b90600190613c6b565b6000858152600660205260409020600501819055611a9357600084815260066020526040902060020180546001600160a01b03191690555b50505050565b6000848152600560208181526040808420815161012081018352815481526001820154938101939093526002810154918301919091526003810154606083015260048101546001600160a01b0390811660808401529281015490921660a0820152600682015460c082015260078201805491929160e084019190611b1c90613c82565b80601f0160208091040260200160405190810160405280929190818152602001828054611b4890613c82565b8015611b955780601f10611b6a57610100808354040283529160200191611b95565b820191906000526020600020905b815481529060010190602001808311611b7857829003601f168201915b50505091835250506008919091015460209182015260008781526005909152604080822060049081015491517efdd58e00000000000000000000000000000000000000000000000000000000815293945091926001600160a01b039091169162fdd58e91611c079133918b91016135ea565b60206040518083038186803b158015611c1f57600080fd5b505afa158015611c33573d6000803e3d6000fd5b505050506040513d601f19601f82011682018060405250810190611c5791906133e6565b905080600114611c795760405162461bcd60e51b8152600401610c7c9061389b565b600160026000828254611c8c9190613c14565b92505081905550604051806101200160405280600254815260200183602001518152602001336001600160a01b0316815260200183608001516001600160a01b03168152602001868152602001600181526020018360e0015181526020018515158152602001836101000151815250600660006002548152602001908152602001600020600082015181600001556020820151816001015560408201518160020160006101000a8154816001600160a01b0302191690836001600160a01b0316021790555060608201518160030160006101000a8154816001600160a01b0302191690836001600160a01b031602179055506080820151816004015560a0820151816005015560c0820151816006019080519060200190611dae9291906130c1565b5060e082015160078201805460ff19169115159190911790556101009091015160089091015583151560011415611e92576040805160e0810182526002805480835233602080850191825242858701908152606086018a815260006080880181815260a0890182815260c08a0183815297835260089095529890209651875592516001870180546001600160a01b039283166001600160a01b031991821617909155915195870195909555915160038601559451600485018054919094169116179091559151600582015590516006909101805491151560ff199092169190911790555b60808201516020830151604051637921219560e11b81526001600160a01b039092169163f242432a91611ece91339130916001906004016135b2565b600060405180830381600087803b158015611ee857600080fd5b505af1158015611efc573d6000803e3d6000fd5b50505050505050505050565b6000805460609180805b83811015611f76576001600160a01b03861660056000611f33846001613c14565b81526020810191909152604001600020600501546001600160a01b03161415611f6457611f61600184613c14565b92505b80611f6e81613cbd565b915050611f12565b5060008267ffffffffffffffff811115611fa057634e487b7160e01b600052604160045260246000fd5b604051908082528060200260200182016040528015611fd957816020015b611fc6613003565b815260200190600190039081611fbe5790505b50905060005b8481101561218a576001600160a01b03871660056000612000846001613c14565b81526020810191909152604001600020600501546001600160a01b031614156121785760056000612032836001613c14565b81526020808201929092526040908101600020815161012081018352815481526001820154938101939093526002810154918301919091526003810154606083015260048101546001600160a01b03908116608084015260058201541660a0830152600681015460c083015260078101805460e0840191906120b390613c82565b80601f01602080910402602001604051908101604052809291908181526020018280546120df90613c82565b801561212c5780601f106121015761010080835404028352916020019161212c565b820191906000526020600020905b81548152906001019060200180831161210f57829003601f168201915b5050505050815260200160088201548152505082848151811061215f57634e487b7160e01b600052603260045260246000fd5b6020908102919091010152612175600184613c14565b92505b8061218281613cbd565b915050611fdf565b5095945050505050565b6001546060906000805b828110156121ee5784600760006121b6846001613c14565b81526020019081526020016000206001015414156121dc576121d9600183613c14565b91505b806121e681613cbd565b91505061219e565b5060008167ffffffffffffffff81111561221857634e487b7160e01b600052604160045260246000fd5b60405190808252806020026020018201604052801561225157816020015b61223e613196565b8152602001906001900390816122365790505b5090506000805b848110156107d5578660076000612270846001613c14565b815260200190815260200160002060010154141561245e5760076000612297836001613c14565b815260208082019290925260409081016000208151610100810183528154815260018201549381019390935260028101546001600160a01b03908116928401929092526003810154909116606083015260048101546080830152600581015460a083015260068101805460c08401919061231090613c82565b80601f016020809104026020016040519081016040528092919081815260200182805461233c90613c82565b80156123895780601f1061235e57610100808354040283529160200191612389565b820191906000526020600020905b81548152906001019060200180831161236c57829003601f168201915b505050505081526020016007820180546123a290613c82565b80601f01602080910402602001604051908101604052809291908181526020018280546123ce90613c82565b801561241b5780601f106123f05761010080835404028352916020019161241b565b820191906000526020600020905b8154815290600101906020018083116123fe57829003601f168201915b50505050508152505083838151811061244457634e487b7160e01b600052603260045260246000fd5b6020026020010181905250818061245a90613cbd565b9250505b8061246881613cbd565b915050612258565b60056020819052600091825260409091208054600182015460028301546003840154600485015495850154600686015460078701805496989597949693956001600160a01b03908116959316939192916124c990613c82565b80601f01602080910402602001604051908101604052809291908181526020018280546124f590613c82565b80156125425780601f1061251757610100808354040283529160200191612542565b820191906000526020600020905b81548152906001019060200180831161252557829003601f168201915b5050505050908060080154905089565b6002546060906000805b828110156125c0576001600160a01b0385166006600061257d846001613c14565b81526020810191909152604001600020600201546001600160a01b031614156125ae576125ab600183613c14565b91505b806125b881613cbd565b91505061255c565b5060008167ffffffffffffffff8111156125ea57634e487b7160e01b600052604160045260246000fd5b60405190808252806020026020018201604052801561262357816020015b612610613061565b8152602001906001900390816126085790505b5090506000805b848110156107d5576001600160a01b0387166006600061264b846001613c14565b81526020810191909152604001600020600201546001600160a01b031614156127ce576006600061267d836001613c14565b815260208082019290925260409081016000208151610120810183528154815260018201549381019390935260028101546001600160a01b03908116928401929092526003810154909116606083015260048101546080830152600581015460a083015260068101805460c0840191906126f690613c82565b80601f016020809104026020016040519081016040528092919081815260200182805461272290613c82565b801561276f5780601f106127445761010080835404028352916020019161276f565b820191906000526020600020905b81548152906001019060200180831161275257829003601f168201915b5050509183525050600782015460ff161515602082015260089091015460409091015283518490849081106127b457634e487b7160e01b600052603260045260246000fd5b602002602001018190525081806127ca90613cbd565b9250505b806127d881613cbd565b91505061262a565b6000600860008481526020019081526020016000206040518060e0016040529081600082015481526020016001820160009054906101000a90046001600160a01b03166001600160a01b03166001600160a01b0316815260200160028201548152602001600382015481526020016004820160009054906101000a90046001600160a01b03166001600160a01b03166001600160a01b03168152602001600582015481526020016006820160009054906101000a900460ff16151515158152505090506000600660008581526020019081526020016000206040518061012001604052908160008201548152602001600182015481526020016002820160009054906101000a90046001600160a01b03166001600160a01b03166001600160a01b031681526020016003820160009054906101000a90046001600160a01b03166001600160a01b03166001600160a01b03168152602001600482015481526020016005820154815260200160068201805461295a90613c82565b80601f016020809104026020016040519081016040528092919081815260200182805461298690613c82565b80156129d35780601f106129a8576101008083540402835291602001916129d3565b820191906000526020600020905b8154815290600101906020018083116129b657829003601f168201915b5050509183525050600782015460ff161515602082015260089091015460409091015260808301519091506001600160a01b03163314612a255760405162461bcd60e51b8152600401610c7c9061392f565b8160a001513414612a485760405162461bcd60e51b8152600401610c7c906139d4565b606081015160808301516020830151604051637921219560e11b81526001600160a01b039093169263f242432a92612a879230926001906004016135b2565b600060405180830381600087803b158015612aa157600080fd5b505af1158015612ab5573d6000803e3d6000fd5b505060008054925090505b81811015612bc357602083015160056000612adc846001613c14565b8152602001908152602001600020600101541415612bb1576000612b0834600583611839866001613c14565b905060056000612b19846001613c14565b81526020810191909152604090810160009081206005015491516001600160a01b039092169183156108fc0291849190818181858888f19350505050158015612b66573d6000803e3d6000fd5b5060208501516001600160a01b03166108fc612b828334613c6b565b6040518115909202916000818181858888f19350505050158015612baa573d6000803e3d6000fd5b5050612bc3565b80612bbb81613cbd565b915050612ac0565b506001806000828254612bd69190613c14565b9091555050604080516101008101825260018054808352602086810151818501908152878601516001600160a01b039081168688019081526080808c0151831660608901908152818c015191890191825260a0890188815260c08a018f81528b51808d018d5260078082527f41756374696f6e00000000000000000000000000000000000000000000000000828b015260e08d01919091526000998a5288529a9097208951815594519785019790975590516002840180549184166001600160a01b0319928316179055955160038401805491909316961695909517905592516004840155905160058301559251805192939192612cda92600685019201906130c1565b5060e08201518051612cf69160078401916020909101906130c1565b505050600094855250506008602090815260408085206006908101805460ff1916600117905590915283206005810193909355505060020180546001600160a01b0319169055565b60006064821115612d4e57606491505b6001600080828254612d609190613c14565b9250508190555060405180610120016040528060005481526020018681526020016001815260200160008152602001876001600160a01b03168152602001336001600160a01b03168152602001600081526020018581526020018381525060056000805481526020019081526020016000206000820151816000015560208201518160010155604082015181600201556060820151816003015560808201518160040160006101000a8154816001600160a01b0302191690836001600160a01b0316021790555060a08201518160050160006101000a8154816001600160a01b0302191690836001600160a01b0316021790555060c0820151816006015560e0820151816007019080519060200190612e7a9291906130c1565b5061010082015181600801559050506001806000828254612e9b9190613c14565b909155505060408051610100810182526001805480835260008054602080860191825233868801908152606087018481526080880185815260a0890188815260c08a018e81528b51808d018d5260078082527f43726561746564000000000000000000000000000000000000000000000000008289015260e08d01919091529888529785529990952088518155935196840196909655516002830180546001600160a01b03199081166001600160a01b039384161790915595516003840180549097169116179094559051600482015593516005850155518051929392612f8892600685019201906130c1565b5060e08201518051612fa49160078401916020909101906130c1565b5050600054979650505050505050565b7ff23a6e610000000000000000000000000000000000000000000000000000000095945050505050565b60005490565b6000612ff08284613c4c565b9392505050565b6000612ff08284613c2c565b6040518061012001604052806000815260200160008152602001600081526020016000815260200160006001600160a01b0316815260200160006001600160a01b031681526020016000815260200160608152602001600081525090565b604051806101200160405280600081526020016000815260200160006001600160a01b0316815260200160006001600160a01b03168152602001600081526020016000815260200160608152602001600015158152602001600081525090565b8280546130cd90613c82565b90600052602060002090601f0160209004810192826130ef5760008555613135565b82601f1061310857805160ff1916838001178555613135565b82800160010185558215613135579182015b8281111561313557825182559160200191906001019061311a565b506131419291506131ed565b5090565b6040518060e001604052806000815260200160006001600160a01b03168152602001600081526020016000815260200160006001600160a01b03168152602001600081526020016000151581525090565b604051806101000160405280600081526020016000815260200160006001600160a01b0316815260200160006001600160a01b03168152602001600081526020016000815260200160608152602001606081525090565b5b8082111561314157600081556001016131ee565b600067ffffffffffffffff8084111561321d5761321d613cee565b604051601f8501601f19908116603f0116810190828211818310171561324557613245613cee565b8160405280935085815286868601111561325e57600080fd5b858560208301376000602087830101525050509392505050565b80356001600160a01b03811681146107dd57600080fd5b600082601f83011261329f578081fd5b612ff083833560208501613202565b6000602082840312156132bf578081fd5b612ff082613278565b600080600080600060a086880312156132df578081fd5b6132e886613278565b94506132f660208701613278565b93506040860135925060608601359150608086013567ffffffffffffffff81111561331f578182fd5b8601601f8101881361332f578182fd5b61333e88823560208401613202565b9150509295509295909350565b600080600080600060a08688031215613362578081fd5b61336b86613278565b945060208601359350604086013567ffffffffffffffff8082111561338e578283fd5b61339a89838a0161328f565b945060608801359150808211156133af578283fd5b506133bc8882890161328f565b95989497509295608001359392505050565b6000602082840312156133df578081fd5b5035919050565b6000602082840312156133f7578081fd5b5051919050565b60008060408385031215613410578182fd5b82359150602083013567ffffffffffffffff81111561342d578182fd5b6134398582860161328f565b9150509250929050565b60008060008060808587031215613458578384fd5b843593506020850135925060408501358015158114613475578283fd5b9396929550929360600135925050565b600080600060608486031215613499578283fd5b8335925060208401359150604084013567ffffffffffffffff8111156134bd578182fd5b6134c98682870161328f565b9150509250925092565b600080600080608085870312156134e8578384fd5b8435935060208501359250604085013567ffffffffffffffff81111561350c578283fd5b6135188782880161328f565b949793965093946060013593505050565b60008060006060848603121561353d578283fd5b505081359360208301359350604090920135919050565b6001600160a01b03169052565b15159052565b60008151808452815b8181101561358c57602081850181015186830182015201613570565b8181111561359d5782602083870101525b50601f01601f19169290920160200192915050565b6001600160a01b0394851681529290931660208301526040820152606081019190915260a06080820181905260009082015260c00190565b6001600160a01b03929092168252602082015260400190565b60208082528251828201819052600091906040908185019080840286018301878501865b838110156136cc57603f1989840301855281516101008151855288820151898601526001600160a01b0388830151168886015260608083015161366c82880182613554565b50506080828101519086015260a0808301519086015260c08083015181870183905261369a83880182613567565b9250505060e080830151925085820381870152506136b88183613567565b968901969450505090860190600101613627565b509098975050505050505050565b60208082528251828201819052600091906040908185019080840286018301878501865b838110156136cc57603f1989840301855281516101208151855288820151898601528782015188860152606080830151818701525060808083015161374582880182613554565b505060a08083015161375982880182613554565b505060c080830151818701525060e080830151828288015261377d83880182613567565b6101009485015197909401969096525050948701949250908601906001016136fe565b60208082528251828201819052600091906040908185019080840286018301878501865b838110156136cc57603f198984030185528151610120815185528882015189860152878201516137f689870182613554565b5060608083015161380982880182613554565b50506080828101519086015260a0808301519086015260c08083015181870183905261383783880182613567565b9250505060e08083015161384d82880182613561565b505061010091820151949091019390935293860193908601906001016137c4565b7fffffffff0000000000000000000000000000000000000000000000000000000091909116815260200190565b60208082526030908201527f4e6f207375636820746f6b656e2c206f72207075626c69736820746f206d617260408201527f6b6574706c61636520616c726561647900000000000000000000000000000000606082015260800190565b60208082526010908201527f4e6f7420656e6f75676820707269636500000000000000000000000000000000604082015260600190565b60208082526015908201527f636f727265637420686967686573744269646465720000000000000000000000604082015260600190565b60208082526009908201527f6f7665722074696d650000000000000000000000000000000000000000000000604082015260600190565b6020808252600d908201527f4e6f7420746865206f776e657200000000000000000000000000000000000000604082015260600190565b60208082526011908201527f4e6f7420636f7272656374207072696365000000000000000000000000000000604082015260600190565b60208082526016908201527f53656c6c6572206e6f7420746f20626520627579657200000000000000000000604082015260600190565b600060e0820190508251825260208301516001600160a01b0380821660208501526040850151604085015260608501516060850152806080860151166080850152505060a083015160a083015260c0830151151560c083015292915050565b90815260200190565b9687526001600160a01b03958616602088015260408701949094526060860192909252909216608084015260a0830191909152151560c082015260e00190565b60006101208b83528a60208401526001600160a01b03808b166040850152808a166060850152508760808401528660a08401528060c0840152613b2f81840187613567565b94151560e084015250506101000152979650505050505050565b60006101008a83528960208401526001600160a01b03808a1660408501528089166060850152508660808401528560a08401528060c0840152613b8e81840186613567565b905082810360e0840152613ba28185613567565b9b9a5050505050505050505050565b60006101208b83528a60208401528960408401528860608401526001600160a01b03808916608085015280881660a0850152508560c08401528060e0840152613bfc81840186613567565b915050826101008301529a9950505050505050505050565b60008219821115613c2757613c27613cd8565b500190565b600082613c4757634e487b7160e01b81526012600452602481fd5b500490565b6000816000190483118215151615613c6657613c66613cd8565b500290565b600082821015613c7d57613c7d613cd8565b500390565b600281046001821680613c9657607f821691505b60208210811415613cb757634e487b7160e01b600052602260045260246000fd5b50919050565b6000600019821415613cd157613cd1613cd8565b5060010190565b634e487b7160e01b600052601160045260246000fd5b634e487b7160e01b600052604160045260246000fdfea2646970667358221220e8b196767d227017f16cdf5b4b64663aa06be6fda0f01a7b4799856c8ae4ffbb64736f6c63430008010033",
  "linkReferences": {},
  "deployedLinkReferences": {}
}