{
  "_format": "hh-sol-artifact-1",
  "contractName": "MarketPlace",
  "sourceName": "contracts/MarketPlace.sol",
  "abi": [
    {
      "inputs": [],
      "stateMutability": "nonpayable",
      "type": "constructor"
    },
    {
      "inputs": [
        {
          "internalType": "uint256",
          "name": "",
          "type": "uint256"
        }
      ],
      "name": "TradeItems",
      "outputs": [
        {
          "internalType": "uint256",
          "name": "_itemId",
          "type": "uint256"
        },
        {
          "internalType": "uint256",
          "name": "_tokenId",
          "type": "uint256"
        },
        {
          "internalType": "uint256",
          "name": "initialSupply",
          "type": "uint256"
        },
        {
          "internalType": "uint256",
          "name": "publicSupply",
          "type": "uint256"
        },
        {
          "internalType": "address",
          "name": "token",
          "type": "address"
        },
        {
          "internalType": "address",
          "name": "creator",
          "type": "address"
        },
        {
          "internalType": "uint256",
          "name": "price",
          "type": "uint256"
        },
        {
          "internalType": "string",
          "name": "uri",
          "type": "string"
        }
      ],
      "stateMutability": "view",
      "type": "function"
    },
    {
      "inputs": [
        {
          "internalType": "uint256",
          "name": "_tradeId",
          "type": "uint256"
        },
        {
          "internalType": "string",
          "name": "_time",
          "type": "string"
        }
      ],
      "name": "auctionEnd",
      "outputs": [],
      "stateMutability": "payable",
      "type": "function"
    },
    {
      "inputs": [
        {
          "internalType": "uint256",
          "name": "",
          "type": "uint256"
        }
      ],
      "name": "auctions",
      "outputs": [
        {
          "internalType": "uint256",
          "name": "_tradeId",
          "type": "uint256"
        },
        {
          "internalType": "address",
          "name": "beneficiary",
          "type": "address"
        },
        {
          "internalType": "uint256",
          "name": "auctionStart",
          "type": "uint256"
        },
        {
          "internalType": "uint256",
          "name": "biddingTime",
          "type": "uint256"
        },
        {
          "internalType": "address",
          "name": "highestBidder",
          "type": "address"
        },
        {
          "internalType": "uint256",
          "name": "highestBid",
          "type": "uint256"
        },
        {
          "internalType": "bool",
          "name": "ended",
          "type": "bool"
        }
      ],
      "stateMutability": "view",
      "type": "function"
    },
    {
      "inputs": [
        {
          "internalType": "uint256",
          "name": "_tradeId",
          "type": "uint256"
        },
        {
          "internalType": "uint256",
          "name": "_now",
          "type": "uint256"
        },
        {
          "internalType": "string",
          "name": "time",
          "type": "string"
        },
        {
          "internalType": "uint256",
          "name": "_price",
          "type": "uint256"
        }
      ],
      "name": "bid",
      "outputs": [],
      "stateMutability": "payable",
      "type": "function"
    },
    {
      "inputs": [
        {
          "internalType": "uint256",
          "name": "_tradeId",
          "type": "uint256"
        },
        {
          "internalType": "string",
          "name": "time",
          "type": "string"
        },
        {
          "internalType": "uint256",
          "name": "_amount",
          "type": "uint256"
        }
      ],
      "name": "buy",
      "outputs": [],
      "stateMutability": "payable",
      "type": "function"
    },
    {
      "inputs": [
        {
          "internalType": "uint256",
          "name": "_tradeId",
          "type": "uint256"
        },
        {
          "internalType": "uint256",
          "name": "_price",
          "type": "uint256"
        },
        {
          "internalType": "string",
          "name": "time",
          "type": "string"
        }
      ],
      "name": "changePrice",
      "outputs": [],
      "stateMutability": "nonpayable",
      "type": "function"
    },
    {
      "inputs": [
        {
          "internalType": "address",
          "name": "sender",
          "type": "address"
        }
      ],
      "name": "fetchItemsCreated",
      "outputs": [
        {
          "components": [
            {
              "internalType": "uint256",
              "name": "_itemId",
              "type": "uint256"
            },
            {
              "internalType": "uint256",
              "name": "_tokenId",
              "type": "uint256"
            },
            {
              "internalType": "uint256",
              "name": "initialSupply",
              "type": "uint256"
            },
            {
              "internalType": "uint256",
              "name": "publicSupply",
              "type": "uint256"
            },
            {
              "internalType": "address",
              "name": "token",
              "type": "address"
            },
            {
              "internalType": "address",
              "name": "creator",
              "type": "address"
            },
            {
              "internalType": "uint256",
              "name": "price",
              "type": "uint256"
            },
            {
              "internalType": "string",
              "name": "uri",
              "type": "string"
            }
          ],
          "internalType": "struct MarketPlace.TradeItem[]",
          "name": "",
          "type": "tuple[]"
        }
      ],
      "stateMutability": "view",
      "type": "function"
    },
    {
      "inputs": [],
      "name": "getAllTokens",
      "outputs": [
        {
          "components": [
            {
              "internalType": "uint256",
              "name": "_tradeId",
              "type": "uint256"
            },
            {
              "internalType": "uint256",
              "name": "_tokenId",
              "type": "uint256"
            },
            {
              "internalType": "address",
              "name": "poster",
              "type": "address"
            },
            {
              "internalType": "address",
              "name": "token",
              "type": "address"
            },
            {
              "internalType": "uint256",
              "name": "price",
              "type": "uint256"
            },
            {
              "internalType": "uint256",
              "name": "amount",
              "type": "uint256"
            },
            {
              "internalType": "string",
              "name": "uri",
              "type": "string"
            },
            {
              "internalType": "bool",
              "name": "auction",
              "type": "bool"
            }
          ],
          "internalType": "struct MarketPlace.Trade[]",
          "name": "",
          "type": "tuple[]"
        }
      ],
      "stateMutability": "view",
      "type": "function"
    },
    {
      "inputs": [
        {
          "internalType": "uint256",
          "name": "id",
          "type": "uint256"
        }
      ],
      "name": "getAuction",
      "outputs": [
        {
          "components": [
            {
              "internalType": "uint256",
              "name": "_tradeId",
              "type": "uint256"
            },
            {
              "internalType": "address",
              "name": "beneficiary",
              "type": "address"
            },
            {
              "internalType": "uint256",
              "name": "auctionStart",
              "type": "uint256"
            },
            {
              "internalType": "uint256",
              "name": "biddingTime",
              "type": "uint256"
            },
            {
              "internalType": "address",
              "name": "highestBidder",
              "type": "address"
            },
            {
              "internalType": "uint256",
              "name": "highestBid",
              "type": "uint256"
            },
            {
              "internalType": "bool",
              "name": "ended",
              "type": "bool"
            }
          ],
          "internalType": "struct MarketPlace.Auction",
          "name": "",
          "type": "tuple"
        }
      ],
      "stateMutability": "view",
      "type": "function"
    },
    {
      "inputs": [
        {
          "internalType": "uint256",
          "name": "id",
          "type": "uint256"
        }
      ],
      "name": "getHistory",
      "outputs": [
        {
          "components": [
            {
              "internalType": "uint256",
              "name": "_recordId",
              "type": "uint256"
            },
            {
              "internalType": "uint256",
              "name": "_tokenId",
              "type": "uint256"
            },
            {
              "internalType": "address",
              "name": "seller",
              "type": "address"
            },
            {
              "internalType": "address",
              "name": "buyer",
              "type": "address"
            },
            {
              "internalType": "uint256",
              "name": "price",
              "type": "uint256"
            },
            {
              "internalType": "uint256",
              "name": "amount",
              "type": "uint256"
            },
            {
              "internalType": "string",
              "name": "time",
              "type": "string"
            },
            {
              "internalType": "string",
              "name": "des",
              "type": "string"
            }
          ],
          "internalType": "struct MarketPlace.History[]",
          "name": "",
          "type": "tuple[]"
        }
      ],
      "stateMutability": "view",
      "type": "function"
    },
    {
      "inputs": [
        {
          "internalType": "uint256",
          "name": "id",
          "type": "uint256"
        }
      ],
      "name": "getInfo",
      "outputs": [
        {
          "components": [
            {
              "internalType": "uint256",
              "name": "_tradeId",
              "type": "uint256"
            },
            {
              "internalType": "uint256",
              "name": "_tokenId",
              "type": "uint256"
            },
            {
              "internalType": "address",
              "name": "poster",
              "type": "address"
            },
            {
              "internalType": "address",
              "name": "token",
              "type": "address"
            },
            {
              "internalType": "uint256",
              "name": "price",
              "type": "uint256"
            },
            {
              "internalType": "uint256",
              "name": "amount",
              "type": "uint256"
            },
            {
              "internalType": "string",
              "name": "uri",
              "type": "string"
            },
            {
              "internalType": "bool",
              "name": "auction",
              "type": "bool"
            }
          ],
          "internalType": "struct MarketPlace.Trade",
          "name": "",
          "type": "tuple"
        }
      ],
      "stateMutability": "view",
      "type": "function"
    },
    {
      "inputs": [
        {
          "internalType": "address",
          "name": "sender",
          "type": "address"
        }
      ],
      "name": "getMyTokens",
      "outputs": [
        {
          "components": [
            {
              "internalType": "uint256",
              "name": "_itemId",
              "type": "uint256"
            },
            {
              "internalType": "uint256",
              "name": "_tokenId",
              "type": "uint256"
            },
            {
              "internalType": "uint256",
              "name": "initialSupply",
              "type": "uint256"
            },
            {
              "internalType": "uint256",
              "name": "publicSupply",
              "type": "uint256"
            },
            {
              "internalType": "address",
              "name": "token",
              "type": "address"
            },
            {
              "internalType": "address",
              "name": "creator",
              "type": "address"
            },
            {
              "internalType": "uint256",
              "name": "price",
              "type": "uint256"
            },
            {
              "internalType": "string",
              "name": "uri",
              "type": "string"
            }
          ],
          "internalType": "struct MarketPlace.TradeItem[]",
          "name": "",
          "type": "tuple[]"
        }
      ],
      "stateMutability": "view",
      "type": "function"
    },
    {
      "inputs": [],
      "name": "getNumber",
      "outputs": [
        {
          "internalType": "uint256",
          "name": "",
          "type": "uint256"
        }
      ],
      "stateMutability": "view",
      "type": "function"
    },
    {
      "inputs": [
        {
          "internalType": "address",
          "name": "sender",
          "type": "address"
        }
      ],
      "name": "getSellingTokens",
      "outputs": [
        {
          "components": [
            {
              "internalType": "uint256",
              "name": "_tradeId",
              "type": "uint256"
            },
            {
              "internalType": "uint256",
              "name": "_tokenId",
              "type": "uint256"
            },
            {
              "internalType": "address",
              "name": "poster",
              "type": "address"
            },
            {
              "internalType": "address",
              "name": "token",
              "type": "address"
            },
            {
              "internalType": "uint256",
              "name": "price",
              "type": "uint256"
            },
            {
              "internalType": "uint256",
              "name": "amount",
              "type": "uint256"
            },
            {
              "internalType": "string",
              "name": "uri",
              "type": "string"
            },
            {
              "internalType": "bool",
              "name": "auction",
              "type": "bool"
            }
          ],
          "internalType": "struct MarketPlace.Trade[]",
          "name": "",
          "type": "tuple[]"
        }
      ],
      "stateMutability": "view",
      "type": "function"
    },
    {
      "inputs": [
        {
          "internalType": "address",
          "name": "sender",
          "type": "address"
        }
      ],
      "name": "getWinTokens",
      "outputs": [
        {
          "components": [
            {
              "internalType": "uint256",
              "name": "_tradeId",
              "type": "uint256"
            },
            {
              "internalType": "uint256",
              "name": "_tokenId",
              "type": "uint256"
            },
            {
              "internalType": "address",
              "name": "poster",
              "type": "address"
            },
            {
              "internalType": "address",
              "name": "token",
              "type": "address"
            },
            {
              "internalType": "uint256",
              "name": "price",
              "type": "uint256"
            },
            {
              "internalType": "uint256",
              "name": "amount",
              "type": "uint256"
            },
            {
              "internalType": "string",
              "name": "uri",
              "type": "string"
            },
            {
              "internalType": "bool",
              "name": "auction",
              "type": "bool"
            }
          ],
          "internalType": "struct MarketPlace.Trade[]",
          "name": "",
          "type": "tuple[]"
        }
      ],
      "stateMutability": "view",
      "type": "function"
    },
    {
      "inputs": [
        {
          "internalType": "uint256",
          "name": "",
          "type": "uint256"
        }
      ],
      "name": "history",
      "outputs": [
        {
          "internalType": "uint256",
          "name": "_recordId",
          "type": "uint256"
        },
        {
          "internalType": "uint256",
          "name": "_tokenId",
          "type": "uint256"
        },
        {
          "internalType": "address",
          "name": "seller",
          "type": "address"
        },
        {
          "internalType": "address",
          "name": "buyer",
          "type": "address"
        },
        {
          "internalType": "uint256",
          "name": "price",
          "type": "uint256"
        },
        {
          "internalType": "uint256",
          "name": "amount",
          "type": "uint256"
        },
        {
          "internalType": "string",
          "name": "time",
          "type": "string"
        },
        {
          "internalType": "string",
          "name": "des",
          "type": "string"
        }
      ],
      "stateMutability": "view",
      "type": "function"
    },
    {
      "inputs": [
        {
          "internalType": "address",
          "name": "token",
          "type": "address"
        },
        {
          "internalType": "uint256",
          "name": "_tokenId",
          "type": "uint256"
        },
        {
          "internalType": "uint256",
          "name": "amount",
          "type": "uint256"
        },
        {
          "internalType": "string",
          "name": "uri",
          "type": "string"
        },
        {
          "internalType": "string",
          "name": "time",
          "type": "string"
        }
      ],
      "name": "listToken",
      "outputs": [
        {
          "internalType": "uint256",
          "name": "",
          "type": "uint256"
        }
      ],
      "stateMutability": "nonpayable",
      "type": "function"
    },
    {
      "inputs": [
        {
          "internalType": "address",
          "name": "",
          "type": "address"
        },
        {
          "internalType": "address",
          "name": "",
          "type": "address"
        },
        {
          "internalType": "uint256",
          "name": "",
          "type": "uint256"
        },
        {
          "internalType": "uint256",
          "name": "",
          "type": "uint256"
        },
        {
          "internalType": "bytes",
          "name": "",
          "type": "bytes"
        }
      ],
      "name": "onERC1155Received",
      "outputs": [
        {
          "internalType": "bytes4",
          "name": "",
          "type": "bytes4"
        }
      ],
      "stateMutability": "nonpayable",
      "type": "function"
    },
    {
      "inputs": [],
      "name": "pay",
      "outputs": [],
      "stateMutability": "payable",
      "type": "function"
    },
    {
      "inputs": [
        {
          "internalType": "uint256",
          "name": "_itemId",
          "type": "uint256"
        },
        {
          "internalType": "uint256",
          "name": "_price",
          "type": "uint256"
        },
        {
          "internalType": "uint256",
          "name": "amount",
          "type": "uint256"
        },
        {
          "internalType": "bool",
          "name": "_auction",
          "type": "bool"
        },
        {
          "internalType": "uint256",
          "name": "_bidTime",
          "type": "uint256"
        }
      ],
      "name": "publicToAll",
      "outputs": [],
      "stateMutability": "nonpayable",
      "type": "function"
    },
    {
      "inputs": [
        {
          "internalType": "uint256",
          "name": "_tradeId",
          "type": "uint256"
        },
        {
          "internalType": "string",
          "name": "_time",
          "type": "string"
        }
      ],
      "name": "refund",
      "outputs": [],
      "stateMutability": "nonpayable",
      "type": "function"
    },
    {
      "inputs": [
        {
          "internalType": "uint256",
          "name": "",
          "type": "uint256"
        }
      ],
      "name": "trades",
      "outputs": [
        {
          "internalType": "uint256",
          "name": "_tradeId",
          "type": "uint256"
        },
        {
          "internalType": "uint256",
          "name": "_tokenId",
          "type": "uint256"
        },
        {
          "internalType": "address",
          "name": "poster",
          "type": "address"
        },
        {
          "internalType": "address",
          "name": "token",
          "type": "address"
        },
        {
          "internalType": "uint256",
          "name": "price",
          "type": "uint256"
        },
        {
          "internalType": "uint256",
          "name": "amount",
          "type": "uint256"
        },
        {
          "internalType": "string",
          "name": "uri",
          "type": "string"
        },
        {
          "internalType": "bool",
          "name": "auction",
          "type": "bool"
        }
      ],
      "stateMutability": "view",
      "type": "function"
    }
  ],
  "bytecode": "0x60806040526000805560006001556000600255600060045534801561002357600080fd5b50600380546001600160a01b03191633179055614003806100456000396000f3fe6080604052600436106101755760003560e01c8063a7a38f0b116100cb578063ce83ddf01161007f578063f23a6e6111610059578063f23a6e6114610438578063f2c9ecd814610465578063f8021cbf1461047a57610175565b8063ce83ddf0146103f2578063cec02c8f14610412578063e7c526291461042557610175565b8063c8338456116100b0578063c833845614610371578063c8691b2a14610391578063cc3305f9146103be57610175565b8063a7a38f0b1461032a578063b19bdf211461035e57610175565b80632a5c792a1161012d57806365670b5d1161010757806365670b5d146102bd57806378bd7935146102dd578063835624561461030a57610175565b80632a5c792a146102485780633f2828731461026a578063571a26a01461028a57610175565b80631b9265b81161015e5780631b9265b8146101dd5780631e6c598e146101e7578063280688c31461021b57610175565b8063175165921461017a5780631a3cd59a146101b0575b600080fd5b34801561018657600080fd5b5061019a610195366004613601565b61049a565b6040516101a79190613ac3565b60405180910390f35b3480156101bc57600080fd5b506101d06101cb366004613716565b61080e565b6040516101a79190613db0565b6101e5610929565b005b3480156101f357600080fd5b50610207610202366004613716565b61092b565b6040516101a7989796959493929190613e0c565b34801561022757600080fd5b5061023b61023636600461369e565b610a0a565b6040516101a79190613dc3565b34801561025457600080fd5b5061025d610c13565b6040516101a79190613b7a565b34801561027657600080fd5b506101e56102853660046137d9565b610e7a565b34801561029657600080fd5b506102aa6102a5366004613716565b611105565b6040516101a79796959493929190613dcc565b3480156102c957600080fd5b506101e56102d8366004613746565b611151565b3480156102e957600080fd5b506102fd6102f8366004613716565b61143d565b6040516101a79190613d51565b34801561031657600080fd5b5061025d610325366004613601565b6114b9565b34801561033657600080fd5b5061034a610345366004613716565b611a45565b6040516101a7989796959493929190613e69565b6101e561036c366004613827565b611ba7565b34801561037d57600080fd5b5061019a61038c366004613601565b611ecf565b34801561039d57600080fd5b506103b16103ac366004613716565b612151565b6040516101a791906139ec565b3480156103ca57600080fd5b506103de6103d9366004613716565b61242d565b6040516101a7989796959493929190613ed1565b3480156103fe57600080fd5b5061025d61040d366004613601565b612486565b6101e561042036600461378b565b61270b565b6101e5610433366004613746565b612a6e565b34801561044457600080fd5b5061045861045336600461361b565b612edf565b6040516101a79190613bda565b34801561047157600080fd5b5061023b612f09565b34801561048657600080fd5b506101e561049536600461387d565b612f0f565b60008054606091805b8281101561057e5760006005816104bb846001613f1c565b81526020810191909152604001600020600401546001600160a01b031662fdd58e876104e8856001613f1c565b6040518363ffffffff1660e01b81526004016105059291906139d3565b60206040518083038186803b15801561051d57600080fd5b505afa158015610531573d6000803e3d6000fd5b505050506040513d601f19601f82011682018060405250810190610555919061372e565b9050801561056b57610568600184613f1c565b92505b508061057681613f86565b9150506104a3565b5060008167ffffffffffffffff8111156105a857634e487b7160e01b600052604160045260246000fd5b6040519080825280602002602001820160405280156105e157816020015b6105ce61335d565b8152602001906001900390816105c65790505b5090506000805b84811015610801576000600581610600846001613f1c565b81526020810191909152604001600020600401546001600160a01b031662fdd58e8961062d856001613f1c565b6040518363ffffffff1660e01b815260040161064a9291906139d3565b60206040518083038186803b15801561066257600080fd5b505afa158015610676573d6000803e3d6000fd5b505050506040513d601f19601f8201168201806040525081019061069a919061372e565b905080156107ee57600560006106b1846001613f1c565b81526020808201929092526040908101600020815161010081018352815481526001820154938101939093526002810154918301919091526003810154606083015260048101546001600160a01b03908116608084015260058201541660a0830152600681015460c083015260078101805460e08401919061073290613f4b565b80601f016020809104026020016040519081016040528092919081815260200182805461075e90613f4b565b80156107ab5780601f10610780576101008083540402835291602001916107ab565b820191906000526020600020905b81548152906001019060200180831161078e57829003601f168201915b5050505050815250508484815181106107d457634e487b7160e01b600052603260045260246000fd5b602002602001018190525082806107ea90613f86565b9350505b50806107f981613f86565b9150506105e8565b509093505050505b919050565b6108166133b4565b6000828152600660208181526040928390208351610100810185528154815260018201549281019290925260028101546001600160a01b03908116948301949094526003810154909316606082015260048301546080820152600583015460a0820152908201805491929160c08401919061089090613f4b565b80601f01602080910402602001604051908101604052809291908181526020018280546108bc90613f4b565b80156109095780601f106108de57610100808354040283529160200191610909565b820191906000526020600020905b8154815290600101906020018083116108ec57829003601f168201915b50505091835250506007919091015460ff16151560209091015292915050565b565b60066020819052600091825260409091208054600182015460028301546003840154600485015460058601549686018054959794966001600160a01b039485169693909416949193919261097e90613f4b565b80601f01602080910402602001604051908101604052809291908181526020018280546109aa90613f4b565b80156109f75780601f106109cc576101008083540402835291602001916109f7565b820191906000526020600020905b8154815290600101906020018083116109da57829003601f168201915b5050506007909301549192505060ff1688565b60006001600080828254610a1e9190613f1c565b909155505060408051610100810182526000805480835260208084018a81528486018a8152606086018581526001600160a01b03808f16608089019081523360a08a0190815260c08a0189815260e08b018f8152988a5260058089529b9099208a51815595516001870155935160028601559151600385015590516004840180549183166001600160a01b03199283161790559151978301805498909116979091169690961790955591516006850155518051929392610ae4926007850192019061340d565b509050506001806000828254610afa9190613f1c565b909155505060408051610100810182526001805480835260008054602080860191825233868801908152606087018481526080880185815260a089018e815260c08a018d81528b51808d018d5260078082527f63726561746564000000000000000000000000000000000000000000000000008289015260e08d01919091529888529785529990952088518155935196840196909655516002830180546001600160a01b03199081166001600160a01b039384161790915595516003840180549097169116179094559051600482015593516005850155518051929392610be7926006850192019061340d565b5060e08201518051610c0391600784019160209091019061340d565b5050600054979650505050505050565b6002546060906000805b82811015610c6d576000600681610c35846001613f1c565b8152602001908152602001600020600501541115610c5b57610c58600183613f1c565b91505b80610c6581613f86565b915050610c1d565b5060008167ffffffffffffffff811115610c9757634e487b7160e01b600052604160045260246000fd5b604051908082528060200260200182016040528015610cd057816020015b610cbd6133b4565b815260200190600190039081610cb55790505b5090506000805b84811015610e70576000600681610cef846001613f1c565b8152602001908152602001600020600501541115610e5e5760066000610d16836001613f1c565b815260208082019290925260409081016000208151610100810183528154815260018201549381019390935260028101546001600160a01b03908116928401929092526003810154909116606083015260048101546080830152600581015460a083015260068101805460c084019190610d8f90613f4b565b80601f0160208091040260200160405190810160405280929190818152602001828054610dbb90613f4b565b8015610e085780601f10610ddd57610100808354040283529160200191610e08565b820191906000526020600020905b815481529060010190602001808311610deb57829003601f168201915b50505091835250506007919091015460ff1615156020909101528351849084908110610e4457634e487b7160e01b600052603260045260246000fd5b60200260200101819052508180610e5a90613f86565b9250505b80610e6881613f86565b915050610cd7565b5090935050505090565b60008381526006602081815260408084208151610100810183528154815260018201549381019390935260028101546001600160a01b03908116928401929092526003810154909116606083015260048101546080830152600581015460a0830152918201805491929160c084019190610ef390613f4b565b80601f0160208091040260200160405190810160405280929190818152602001828054610f1f90613f4b565b8015610f6c5780601f10610f4157610100808354040283529160200191610f6c565b820191906000526020600020905b815481529060010190602001808311610f4f57829003601f168201915b50505091835250506007919091015460ff16151560209091015260408101519091506001600160a01b03163314610fbe5760405162461bcd60e51b8152600401610fb590613ce3565b60405180910390fd5b60008481526006602052604081206004018490556001805490918291610fe5908390613f1c565b9091555050604080516101008101825260018054808352602085810151818501908152868601516001600160a01b03908116868801908152600060608801818152608089018d815260a0808d0151908b0190815260c08b018e81528c51808e018e52600c81527f6368616e67652070726963650000000000000000000000000000000000000000818b015260e08d0152988452600788529a9092208951815594519785019790975590516002840180549184166001600160a01b031992831617905595516003840180549190931696169590951790559251600484015593516005830155518051929391926110e0926006850192019061340d565b5060e082015180516110fc91600784019160209091019061340d565b50505050505050565b600860205260009081526040902080546001820154600283015460038401546004850154600586015460069096015494956001600160a01b039485169593949293929091169160ff1687565b60008281526006602081815260408084208151610100810183528154815260018201549381019390935260028101546001600160a01b03908116928401929092526003810154909116606083015260048101546080830152600581015460a0830152918201805491929160c0840191906111ca90613f4b565b80601f01602080910402602001604051908101604052809291908181526020018280546111f690613f4b565b80156112435780601f1061121857610100808354040283529160200191611243565b820191906000526020600020905b81548152906001019060200180831161122657829003601f168201915b50505091835250506007919091015460ff1615156020918201526060820151604080840151928401519051637921219560e11b81529394506001600160a01b039091169263f242432a9261129e92309260019060040161399b565b600060405180830381600087803b1580156112b857600080fd5b505af11580156112cc573d6000803e3d6000fd5b5050505060018060008282546112e29190613f1c565b9091555050604080516101008101825260018054808352602085810151818501908152600085870181815233606088019081526080808b015190890190815260a0890188815260c08a018d81528b51808d018d5260068082527f726566756e640000000000000000000000000000000000000000000000000000828b015260e08d0191909152988652600788529a9094208951815594519785019790975590516002840180546001600160a01b03199081166001600160a01b039384161790915591516003850180549093169116179055935160048201559251600584015593518051939492936113db9392850192919091019061340d565b5060e082015180516113f791600784019160209091019061340d565b505050600092835250506008602090815260408083206006908101805460ff191660011790559091528120600581019190915560020180546001600160a01b0319169055565b611445613491565b50600090815260086020908152604091829020825160e0810184528154815260018201546001600160a01b03908116938201939093526002820154938101939093526003810154606084015260048101549091166080830152600581015460a08301526006015460ff16151560c082015290565b6002546060906000805b8281101561160657600660006114da836001613f1c565b815260208101919091526040016000206007015460ff161515600114801561152557506008600061150c836001613f1c565b815260208101919091526040016000206006015460ff16155b156115f4576001600160a01b03851660086000611543846001613f1c565b81526020810191909152604001600020600401546001600160a01b0316141561157457611571600183613f1c565b91505b6000600881611584846001613f1c565b81526020810191909152604001600020600401546001600160a01b03161480156115e157506001600160a01b038516600860006115c2846001613f1c565b81526020810191909152604001600020600101546001600160a01b0316145b156115f4576115f1600183613f1c565b91505b806115fe81613f86565b9150506114c3565b5060008167ffffffffffffffff81111561163057634e487b7160e01b600052604160045260246000fd5b60405190808252806020026020018201604052801561166957816020015b6116566133b4565b81526020019060019003908161164e5790505b5090506000805b848110156108015760066000611687836001613f1c565b815260208101919091526040016000206007015460ff16151560011480156116d25750600860006116b9836001613f1c565b815260208101919091526040016000206006015460ff16155b15611a33576001600160a01b038716600860006116f0846001613f1c565b81526020810191909152604001600020600401546001600160a01b0316141561186a5760066000611722836001613f1c565b815260208082019290925260409081016000208151610100810183528154815260018201549381019390935260028101546001600160a01b03908116928401929092526003810154909116606083015260048101546080830152600581015460a083015260068101805460c08401919061179b90613f4b565b80601f01602080910402602001604051908101604052809291908181526020018280546117c790613f4b565b80156118145780601f106117e957610100808354040283529160200191611814565b820191906000526020600020905b8154815290600101906020018083116117f757829003601f168201915b50505091835250506007919091015460ff161515602090910152835184908490811061185057634e487b7160e01b600052603260045260246000fd5b6020026020010181905250818061186690613f86565b9250505b600060088161187a846001613f1c565b81526020810191909152604001600020600401546001600160a01b03161480156118d757506001600160a01b038716600860006118b8846001613f1c565b81526020810191909152604001600020600101546001600160a01b0316145b15611a3357600660006118eb836001613f1c565b815260208082019290925260409081016000208151610100810183528154815260018201549381019390935260028101546001600160a01b03908116928401929092526003810154909116606083015260048101546080830152600581015460a083015260068101805460c08401919061196490613f4b565b80601f016020809104026020016040519081016040528092919081815260200182805461199090613f4b565b80156119dd5780601f106119b2576101008083540402835291602001916119dd565b820191906000526020600020905b8154815290600101906020018083116119c057829003601f168201915b50505091835250506007919091015460ff1615156020909101528351849084908110611a1957634e487b7160e01b600052603260045260246000fd5b60200260200101819052508180611a2f90613f86565b9250505b80611a3d81613f86565b915050611670565b6007602052600090815260409020805460018201546002830154600384015460048501546005860154600687018054969795966001600160a01b0395861696949095169492939192611a9690613f4b565b80601f0160208091040260200160405190810160405280929190818152602001828054611ac290613f4b565b8015611b0f5780601f10611ae457610100808354040283529160200191611b0f565b820191906000526020600020905b815481529060010190602001808311611af257829003601f168201915b505050505090806007018054611b2490613f4b565b80601f0160208091040260200160405190810160405280929190818152602001828054611b5090613f4b565b8015611b9d5780601f10611b7257610100808354040283529160200191611b9d565b820191906000526020600020905b815481529060010190602001808311611b8057829003601f168201915b5050505050905088565b600084815260086020908152604091829020825160e0810184528154815260018201546001600160a01b039081169382019390935260028201549381019390935260038101546060840181905260048201549092166080840152600581015460a08401526006015460ff16151560c0830152841115611c385760405162461bcd60e51b8152600401610fb590613cac565b8060a001518211611c5b5760405162461bcd60e51b8152600401610fb590613c3e565b60008581526006602081815260408084208151610100810183528154815260018201549381019390935260028101546001600160a01b03908116928401929092526003810154909116606083015260048101546080830152600581015460a0830152918201805491929160c084019190611cd490613f4b565b80601f0160208091040260200160405190810160405280929190818152602001828054611d0090613f4b565b8015611d4d5780601f10611d2257610100808354040283529160200191611d4d565b820191906000526020600020905b815481529060010190602001808311611d3057829003601f168201915b50505091835250506007919091015460ff16151560209091015260018054919250908190600090611d7f908390613f1c565b909155505060408051610100810182526001805480835260208581015181850190815233858701908152600060608701818152608088018c815260a0890188815260c08a018f81528b51808d018d52600981527f706c616365206269640000000000000000000000000000000000000000000000818a015260e08c015297845260078752999092208851815593519684019690965590516002830180546001600160a01b03199081166001600160a01b03938416179091559551600384018054909716911617909455925160048401559351600583015551805192939192611e6d926006850192019061340d565b5060e08201518051611e8991600784019160209091019061340d565b505050600095865250506006602090815260408086206004908101849055600890925290942093840180546001600160a01b031916331790556005909301929092555050565b6000805460609180805b83811015611f3d576001600160a01b03861660056000611efa846001613f1c565b81526020810191909152604001600020600501546001600160a01b03161415611f2b57611f28600184613f1c565b92505b80611f3581613f86565b915050611ed9565b5060008267ffffffffffffffff811115611f6757634e487b7160e01b600052604160045260246000fd5b604051908082528060200260200182016040528015611fa057816020015b611f8d61335d565b815260200190600190039081611f855790505b50905060005b84811015612147576001600160a01b03871660056000611fc7846001613f1c565b81526020810191909152604001600020600501546001600160a01b031614156121355760056000611ff9836001613f1c565b81526020808201929092526040908101600020815161010081018352815481526001820154938101939093526002810154918301919091526003810154606083015260048101546001600160a01b03908116608084015260058201541660a0830152600681015460c083015260078101805460e08401919061207a90613f4b565b80601f01602080910402602001604051908101604052809291908181526020018280546120a690613f4b565b80156120f35780601f106120c8576101008083540402835291602001916120f3565b820191906000526020600020905b8154815290600101906020018083116120d657829003601f168201915b50505050508152505082848151811061211c57634e487b7160e01b600052603260045260246000fd5b6020908102919091010152612132600184613f1c565b92505b8061213f81613f86565b915050611fa6565b5095945050505050565b6001546060906000805b828110156121ab578460076000612173846001613f1c565b815260200190815260200160002060010154141561219957612196600183613f1c565b91505b806121a381613f86565b91505061215b565b5060008167ffffffffffffffff8111156121d557634e487b7160e01b600052604160045260246000fd5b60405190808252806020026020018201604052801561220e57816020015b6121fb6134e2565b8152602001906001900390816121f35790505b5090506000805b8481101561080157866007600061222d846001613f1c565b815260200190815260200160002060010154141561241b5760076000612254836001613f1c565b815260208082019290925260409081016000208151610100810183528154815260018201549381019390935260028101546001600160a01b03908116928401929092526003810154909116606083015260048101546080830152600581015460a083015260068101805460c0840191906122cd90613f4b565b80601f01602080910402602001604051908101604052809291908181526020018280546122f990613f4b565b80156123465780601f1061231b57610100808354040283529160200191612346565b820191906000526020600020905b81548152906001019060200180831161232957829003601f168201915b5050505050815260200160078201805461235f90613f4b565b80601f016020809104026020016040519081016040528092919081815260200182805461238b90613f4b565b80156123d85780601f106123ad576101008083540402835291602001916123d8565b820191906000526020600020905b8154815290600101906020018083116123bb57829003601f168201915b50505050508152505083838151811061240157634e487b7160e01b600052603260045260246000fd5b6020026020010181905250818061241790613f86565b9250505b8061242581613f86565b915050612215565b60056020819052600091825260409091208054600182015460028301546003840154600485015495850154600686015460078701805496989597949693956001600160a01b0390811695931693919291611b2490613f4b565b6002546060906000805b828110156124f4576001600160a01b038516600660006124b1846001613f1c565b81526020810191909152604001600020600201546001600160a01b031614156124e2576124df600183613f1c565b91505b806124ec81613f86565b915050612490565b5060008167ffffffffffffffff81111561251e57634e487b7160e01b600052604160045260246000fd5b60405190808252806020026020018201604052801561255757816020015b6125446133b4565b81526020019060019003908161253c5790505b5090506000805b84811015610801576001600160a01b0387166006600061257f846001613f1c565b81526020810191909152604001600020600201546001600160a01b031614156126f957600660006125b1836001613f1c565b815260208082019290925260409081016000208151610100810183528154815260018201549381019390935260028101546001600160a01b03908116928401929092526003810154909116606083015260048101546080830152600581015460a083015260068101805460c08401919061262a90613f4b565b80601f016020809104026020016040519081016040528092919081815260200182805461265690613f4b565b80156126a35780601f10612678576101008083540402835291602001916126a3565b820191906000526020600020905b81548152906001019060200180831161268657829003601f168201915b50505091835250506007919091015460ff16151560209091015283518490849081106126df57634e487b7160e01b600052603260045260246000fd5b602002602001018190525081806126f590613f86565b9250505b8061270381613f86565b91505061255e565b60008381526006602081815260408084208151610100810183528154815260018201549381019390935260028101546001600160a01b03908116928401929092526003810154909116606083015260048101546080830152600581015460a0830152918201805491929160c08401919061278490613f4b565b80601f01602080910402602001604051908101604052809291908181526020018280546127b090613f4b565b80156127fd5780601f106127d2576101008083540402835291602001916127fd565b820191906000526020600020905b8154815290600101906020018083116127e057829003601f168201915b50505091835250506007919091015460ff16151560209091015260a081015190915082111561283e5760405162461bcd60e51b8152600401610fb590613c07565b60018060008282546128509190613f1c565b9091555050604080516101008101825260018054808352602085810151818501908152868601516001600160a01b0390811686880190815233606088019081526080808b015190890190815260a089018c815260c08a018e81528b51808d018d52600b81526a3a3930b739b0b1ba34b7b760a91b818a015260e08c01526000988952600788529a9097208951815594519785019790975590516002840180549184166001600160a01b0319928316179055905160038401805491909316911617905592516004840155905160058301559251805192939192612938926006850192019061340d565b5060e0820151805161295491600784019160209091019061340d565b50505060608101516020820151604051637921219560e11b81526001600160a01b039092169163f242432a916129929130913391889060040161399b565b600060405180830381600087803b1580156129ac57600080fd5b505af11580156129c0573d6000803e3d6000fd5b5050506000858152600660205260409020600501546129e191508390613f34565b600085815260066020526040808220600501929092558282015191516001600160a01b03909216913480156108fc0292909190818181858888f19350505050158015612a31573d6000803e3d6000fd5b50600084815260066020526040902060050154612a6857600084815260066020526040902060020180546001600160a01b03191690555b50505050565b6000600860008481526020019081526020016000206040518060e0016040529081600082015481526020016001820160009054906101000a90046001600160a01b03166001600160a01b03166001600160a01b0316815260200160028201548152602001600382015481526020016004820160009054906101000a90046001600160a01b03166001600160a01b03166001600160a01b03168152602001600582015481526020016006820160009054906101000a900460ff16151515158152505090506000600660008581526020019081526020016000206040518061010001604052908160008201548152602001600182015481526020016002820160009054906101000a90046001600160a01b03166001600160a01b03166001600160a01b031681526020016003820160009054906101000a90046001600160a01b03166001600160a01b03166001600160a01b031681526020016004820154815260200160058201548152602001600682018054612be890613f4b565b80601f0160208091040260200160405190810160405280929190818152602001828054612c1490613f4b565b8015612c615780601f10612c3657610100808354040283529160200191612c61565b820191906000526020600020905b815481529060010190602001808311612c4457829003601f168201915b50505091835250506007919091015460ff16151560209091015260808301519091506001600160a01b03163314612caa5760405162461bcd60e51b8152600401610fb590613c75565b8160a001513414612ccd5760405162461bcd60e51b8152600401610fb590613d1a565b606081015160808301516020830151604051637921219560e11b81526001600160a01b039093169263f242432a92612d0c92309260019060040161399b565b600060405180830381600087803b158015612d2657600080fd5b505af1158015612d3a573d6000803e3d6000fd5b50505060208301516040516001600160a01b0390911691503480156108fc02916000818181858888f19350505050158015612d79573d6000803e3d6000fd5b506001806000828254612d8c9190613f1c565b9091555050604080516101008101825260018054808352602085810151818501908152868601516001600160a01b039081168688019081526080808b0151831660608901908152818b015191890191825260a0890188815260c08a018e81528b51808d018d52600b81526a3a3930b739b0b1ba34b7b760a91b818a015260e08c01526000988952600788529a9097208951815594519785019790975590516002840180549184166001600160a01b0319928316179055955160038401805491909316961695909517905592516004840155905160058301559251805192939192612e7c926006850192019061340d565b5060e08201518051612e9891600784019160209091019061340d565b505050600093845250506008602090815260408084206006908101805460ff19166001179055909152822060058101929092555060020180546001600160a01b0319169055565b7ff23a6e610000000000000000000000000000000000000000000000000000000095945050505050565b60005490565b6000858152600560208181526040808420815161010081018352815481526001820154938101939093526002810154918301919091526003810154606083015260048101546001600160a01b0390811660808401529281015490921660a0820152600682015460c082015260078201805491929160e084019190612f9290613f4b565b80601f0160208091040260200160405190810160405280929190818152602001828054612fbe90613f4b565b801561300b5780601f10612fe05761010080835404028352916020019161300b565b820191906000526020600020905b815481529060010190602001808311612fee57829003601f168201915b5050509190925250505060008781526005602052604080822060049081015491517efdd58e00000000000000000000000000000000000000000000000000000000815293945091926001600160a01b039091169162fdd58e916130729133918c91016139d3565b60206040518083038186803b15801561308a57600080fd5b505afa15801561309e573d6000803e3d6000fd5b505050506040513d601f19601f820116820180604052508101906130c2919061372e565b9050808511156130e45760405162461bcd60e51b8152600401610fb590613c07565b6001600260008282546130f79190613f1c565b92505081905550604051806101000160405280600254815260200183602001518152602001336001600160a01b0316815260200183608001516001600160a01b031681526020018781526020018681526020018360e001518152602001851515815250600660006002548152602001908152602001600020600082015181600001556020820151816001015560408201518160020160006101000a8154816001600160a01b0302191690836001600160a01b0316021790555060608201518160030160006101000a8154816001600160a01b0302191690836001600160a01b031602179055506080820151816004015560a0820151816005015560c082015181600601908051906020019061320d92919061340d565b5060e091909101516007909101805460ff1916911515919091179055831515600114156132e7576040805160e0810182526002805480835233602080850191825242858701908152606086018a815260006080880181815260a0890182815260c08a0183815297835260089095529890209651875592516001870180546001600160a01b039283166001600160a01b031991821617909155915195870195909555915160038601559451600485018054919094169116179091559151600582015590516006909101805491151560ff199092169190911790555b60808201516020830151604051637921219560e11b81526001600160a01b039092169163f242432a9161332291339130918b9060040161399b565b600060405180830381600087803b15801561333c57600080fd5b505af1158015613350573d6000803e3d6000fd5b5050505050505050505050565b6040518061010001604052806000815260200160008152602001600081526020016000815260200160006001600160a01b0316815260200160006001600160a01b0316815260200160008152602001606081525090565b604051806101000160405280600081526020016000815260200160006001600160a01b0316815260200160006001600160a01b031681526020016000815260200160008152602001606081526020016000151581525090565b82805461341990613f4b565b90600052602060002090601f01602090048101928261343b5760008555613481565b82601f1061345457805160ff1916838001178555613481565b82800160010185558215613481579182015b82811115613481578251825591602001919060010190613466565b5061348d929150613539565b5090565b6040518060e001604052806000815260200160006001600160a01b03168152602001600081526020016000815260200160006001600160a01b03168152602001600081526020016000151581525090565b604051806101000160405280600081526020016000815260200160006001600160a01b0316815260200160006001600160a01b03168152602001600081526020016000815260200160608152602001606081525090565b5b8082111561348d576000815560010161353a565b600067ffffffffffffffff8084111561356957613569613fb7565b604051601f8501601f19908116603f0116810190828211818310171561359157613591613fb7565b816040528093508581528686860111156135aa57600080fd5b858560208301376000602087830101525050509392505050565b80356001600160a01b038116811461080957600080fd5b600082601f8301126135eb578081fd5b6135fa8383356020850161354e565b9392505050565b600060208284031215613612578081fd5b6135fa826135c4565b600080600080600060a08688031215613632578081fd5b61363b866135c4565b9450613649602087016135c4565b93506040860135925060608601359150608086013567ffffffffffffffff811115613672578182fd5b8601601f81018813613682578182fd5b6136918882356020840161354e565b9150509295509295909350565b600080600080600060a086880312156136b5578081fd5b6136be866135c4565b94506020860135935060408601359250606086013567ffffffffffffffff808211156136e8578283fd5b6136f489838a016135db565b93506080880135915080821115613709578283fd5b50613691888289016135db565b600060208284031215613727578081fd5b5035919050565b60006020828403121561373f578081fd5b5051919050565b60008060408385031215613758578182fd5b82359150602083013567ffffffffffffffff811115613775578182fd5b613781858286016135db565b9150509250929050565b60008060006060848603121561379f578283fd5b83359250602084013567ffffffffffffffff8111156137bc578283fd5b6137c8868287016135db565b925050604084013590509250925092565b6000806000606084860312156137ed578283fd5b8335925060208401359150604084013567ffffffffffffffff811115613811578182fd5b61381d868287016135db565b9150509250925092565b6000806000806080858703121561383c578384fd5b8435935060208501359250604085013567ffffffffffffffff811115613860578283fd5b61386c878288016135db565b949793965093946060013593505050565b600080600080600060a08688031215613894578081fd5b853594506020860135935060408601359250606086013580151581146138b8578182fd5b949793965091946080013592915050565b6001600160a01b03169052565b60008151808452815b818110156138fb576020818501810151868301820152016138df565b8181111561390c5782602083870101525b50601f01601f19169290920160200192915050565b6000610100825184526020830151602085015260408301516001600160a01b03808216604087015280606086015116606087015250506080830151608085015260a083015160a085015260c08301518160c0860152613982828601826138d6565b91505060e0830151151560e08501528091505092915050565b6001600160a01b0394851681529290931660208301526040820152606081019190915260a06080820181905260009082015260c00190565b6001600160a01b03929092168252602082015260400190565b60208082528251828201819052600091906040908185019080840286018301878501865b83811015613ab557603f1989840301855281516101008151855288820151898601526001600160a01b03888301511688860152606080830151613a55828801826138c9565b50506080828101519086015260a0808301519086015260c080830151818701839052613a83838801826138d6565b9250505060e08083015192508582038187015250613aa181836138d6565b968901969450505090860190600101613a10565b509098975050505050505050565b60208082528251828201819052600091906040908185019080840286018301878501865b83811015613ab557888303603f1901855281518051845287810151888501528681015187850152606080820151908501526080808201516001600160a01b03169085015260a0808201516101009190613b42828801826138c9565b505060c0828101519086015260e091820151918501819052613b66818601836138d6565b968901969450505090860190600101613ae7565b6000602080830181845280855180835260408601915060408482028701019250838701855b82811015613bcd57603f19888603018452613bbb858351613921565b94509285019290850190600101613b9f565b5092979650505050505050565b7fffffffff0000000000000000000000000000000000000000000000000000000091909116815260200190565b60208082526011908201527f4e6f7420656e6f75676820737570706c79000000000000000000000000000000604082015260600190565b60208082526010908201527f4e6f7420656e6f75676820707269636500000000000000000000000000000000604082015260600190565b60208082526015908201527f636f727265637420686967686573744269646465720000000000000000000000604082015260600190565b60208082526009908201527f6f7665722074696d650000000000000000000000000000000000000000000000604082015260600190565b6020808252600d908201527f4e6f7420746865206f776e657200000000000000000000000000000000000000604082015260600190565b60208082526011908201527f4e6f7420636f7272656374207072696365000000000000000000000000000000604082015260600190565b600060e0820190508251825260208301516001600160a01b0380821660208501526040850151604085015260608501516060850152806080860151166080850152505060a083015160a083015260c0830151151560c083015292915050565b6000602082526135fa6020830184613921565b90815260200190565b9687526001600160a01b03958616602088015260408701949094526060860192909252909216608084015260a0830191909152151560c082015260e00190565b60006101008a83528960208401526001600160a01b03808a1660408501528089166060850152508660808401528560a08401528060c0840152613e51818401866138d6565b91505082151560e08301529998505050505050505050565b60006101008a83528960208401526001600160a01b03808a1660408501528089166060850152508660808401528560a08401528060c0840152613eae818401866138d6565b905082810360e0840152613ec281856138d6565b9b9a5050505050505050505050565b60006101008a83528960208401528860408401528760608401526001600160a01b03808816608085015280871660a0850152508460c08401528060e0840152613ec2818401856138d6565b60008219821115613f2f57613f2f613fa1565b500190565b600082821015613f4657613f46613fa1565b500390565b600281046001821680613f5f57607f821691505b60208210811415613f8057634e487b7160e01b600052602260045260246000fd5b50919050565b6000600019821415613f9a57613f9a613fa1565b5060010190565b634e487b7160e01b600052601160045260246000fd5b634e487b7160e01b600052604160045260246000fdfea2646970667358221220db2180147e70d0982965a116315d1bcc9ef8831c40187db5db33847a63485a4364736f6c63430008010033",
  "linkReferences": {},
  "deployedLinkReferences": {}
}