{
  "_format": "hh-sol-artifact-1",
  "contractName": "NFT",
  "sourceName": "contracts/NFT.sol",
  "abi": [
    {
      "inputs": [
        {
          "internalType": "address",
          "name": "marketplaceAddress",
          "type": "address"
        }
      ],
      "stateMutability": "nonpayable",
      "type": "constructor"
    },
    {
      "anonymous": false,
      "inputs": [
        {
          "indexed": true,
          "internalType": "address",
          "name": "account",
          "type": "address"
        },
        {
          "indexed": true,
          "internalType": "address",
          "name": "operator",
          "type": "address"
        },
        {
          "indexed": false,
          "internalType": "bool",
          "name": "approved",
          "type": "bool"
        }
      ],
      "name": "ApprovalForAll",
      "type": "event"
    },
    {
      "anonymous": false,
      "inputs": [
        {
          "indexed": true,
          "internalType": "address",
          "name": "operator",
          "type": "address"
        },
        {
          "indexed": true,
          "internalType": "address",
          "name": "from",
          "type": "address"
        },
        {
          "indexed": true,
          "internalType": "address",
          "name": "to",
          "type": "address"
        },
        {
          "indexed": false,
          "internalType": "uint256[]",
          "name": "ids",
          "type": "uint256[]"
        },
        {
          "indexed": false,
          "internalType": "uint256[]",
          "name": "values",
          "type": "uint256[]"
        }
      ],
      "name": "TransferBatch",
      "type": "event"
    },
    {
      "anonymous": false,
      "inputs": [
        {
          "indexed": true,
          "internalType": "address",
          "name": "operator",
          "type": "address"
        },
        {
          "indexed": true,
          "internalType": "address",
          "name": "from",
          "type": "address"
        },
        {
          "indexed": true,
          "internalType": "address",
          "name": "to",
          "type": "address"
        },
        {
          "indexed": false,
          "internalType": "uint256",
          "name": "id",
          "type": "uint256"
        },
        {
          "indexed": false,
          "internalType": "uint256",
          "name": "value",
          "type": "uint256"
        }
      ],
      "name": "TransferSingle",
      "type": "event"
    },
    {
      "anonymous": false,
      "inputs": [
        {
          "indexed": false,
          "internalType": "string",
          "name": "value",
          "type": "string"
        },
        {
          "indexed": true,
          "internalType": "uint256",
          "name": "id",
          "type": "uint256"
        }
      ],
      "name": "URI",
      "type": "event"
    },
    {
      "inputs": [
        {
          "internalType": "address",
          "name": "account",
          "type": "address"
        },
        {
          "internalType": "uint256",
          "name": "id",
          "type": "uint256"
        }
      ],
      "name": "balanceOf",
      "outputs": [
        {
          "internalType": "uint256",
          "name": "",
          "type": "uint256"
        }
      ],
      "stateMutability": "view",
      "type": "function"
    },
    {
      "inputs": [
        {
          "internalType": "address[]",
          "name": "accounts",
          "type": "address[]"
        },
        {
          "internalType": "uint256[]",
          "name": "ids",
          "type": "uint256[]"
        }
      ],
      "name": "balanceOfBatch",
      "outputs": [
        {
          "internalType": "uint256[]",
          "name": "",
          "type": "uint256[]"
        }
      ],
      "stateMutability": "view",
      "type": "function"
    },
    {
      "inputs": [],
      "name": "getNumber",
      "outputs": [
        {
          "internalType": "uint256",
          "name": "",
          "type": "uint256"
        }
      ],
      "stateMutability": "view",
      "type": "function"
    },
    {
      "inputs": [
        {
          "internalType": "address",
          "name": "account",
          "type": "address"
        },
        {
          "internalType": "address",
          "name": "operator",
          "type": "address"
        }
      ],
      "name": "isApprovedForAll",
      "outputs": [
        {
          "internalType": "bool",
          "name": "",
          "type": "bool"
        }
      ],
      "stateMutability": "view",
      "type": "function"
    },
    {
      "inputs": [
        {
          "internalType": "string",
          "name": "uri",
          "type": "string"
        }
      ],
      "name": "mint",
      "outputs": [],
      "stateMutability": "nonpayable",
      "type": "function"
    },
    {
      "inputs": [
        {
          "internalType": "address",
          "name": "from",
          "type": "address"
        },
        {
          "internalType": "address",
          "name": "to",
          "type": "address"
        },
        {
          "internalType": "uint256[]",
          "name": "ids",
          "type": "uint256[]"
        },
        {
          "internalType": "uint256[]",
          "name": "amounts",
          "type": "uint256[]"
        },
        {
          "internalType": "bytes",
          "name": "data",
          "type": "bytes"
        }
      ],
      "name": "safeBatchTransferFrom",
      "outputs": [],
      "stateMutability": "nonpayable",
      "type": "function"
    },
    {
      "inputs": [
        {
          "internalType": "address",
          "name": "from",
          "type": "address"
        },
        {
          "internalType": "address",
          "name": "to",
          "type": "address"
        },
        {
          "internalType": "uint256",
          "name": "id",
          "type": "uint256"
        },
        {
          "internalType": "uint256",
          "name": "amount",
          "type": "uint256"
        },
        {
          "internalType": "bytes",
          "name": "data",
          "type": "bytes"
        }
      ],
      "name": "safeTransferFrom",
      "outputs": [],
      "stateMutability": "nonpayable",
      "type": "function"
    },
    {
      "inputs": [],
      "name": "setApproval",
      "outputs": [],
      "stateMutability": "nonpayable",
      "type": "function"
    },
    {
      "inputs": [
        {
          "internalType": "address",
          "name": "operator",
          "type": "address"
        },
        {
          "internalType": "bool",
          "name": "approved",
          "type": "bool"
        }
      ],
      "name": "setApprovalForAll",
      "outputs": [],
      "stateMutability": "nonpayable",
      "type": "function"
    },
    {
      "inputs": [
        {
          "internalType": "bytes4",
          "name": "interfaceId",
          "type": "bytes4"
        }
      ],
      "name": "supportsInterface",
      "outputs": [
        {
          "internalType": "bool",
          "name": "",
          "type": "bool"
        }
      ],
      "stateMutability": "view",
      "type": "function"
    },
    {
      "inputs": [
        {
          "internalType": "uint256",
          "name": "",
          "type": "uint256"
        }
      ],
      "name": "uri",
      "outputs": [
        {
          "internalType": "string",
          "name": "",
          "type": "string"
        }
      ],
      "stateMutability": "view",
      "type": "function"
    }
  ],
  "bytecode": "0x60806040523480156200001157600080fd5b5060405162001b1438038062001b14833981016040819052620000349162000151565b6040805160208101909152600081526200004e8162000089565b50600580546001600160a01b0319166001600160a01b038316179055620000826003620000a2602090811b620005c517901c565b50620001be565b80516200009e906002906020840190620000ab565b5050565b80546001019055565b828054620000b99062000181565b90600052602060002090601f016020900481019282620000dd576000855562000128565b82601f10620000f857805160ff191683800117855562000128565b8280016001018555821562000128579182015b82811115620001285782518255916020019190600101906200010b565b50620001369291506200013a565b5090565b5b808211156200013657600081556001016200013b565b60006020828403121562000163578081fd5b81516001600160a01b03811681146200017a578182fd5b9392505050565b6002810460018216806200019657607f821691505b60208210811415620001b857634e487b7160e01b600052602260045260246000fd5b50919050565b61194680620001ce6000396000f3fe608060405234801561001057600080fd5b50600436106100c85760003560e01c8063a22cb46511610081578063e985e9c51161005b578063e985e9c514610199578063f242432a146101ac578063f2c9ecd8146101bf576100c8565b8063a22cb4651461016b578063d85d3d271461017e578063e18c6b1914610191576100c8565b80630e89341c116100b25780630e89341c146101165780632eb2c2d6146101365780634e1273f41461014b576100c8565b8062fdd58e146100cd57806301ffc9a7146100f6575b600080fd5b6100e06100db366004611095565b6101c7565b6040516100ed919061174c565b60405180910390f35b610109610104366004611187565b61021e565b6040516100ed919061138c565b61012961012436600461120d565b610298565b6040516100ed9190611397565b610149610144366004610f52565b61032c565b005b61015e6101593660046110be565b61038a565b6040516100ed919061134b565b61014961017936600461105b565b6104aa565b61014961018c3660046111bf565b6104c0565b610149610515565b6101096101a7366004610f20565b61052e565b6101496101ba366004610ff8565b61055c565b6100e06105b3565b60006001600160a01b0383166101f85760405162461bcd60e51b81526004016101ef906114c1565b60405180910390fd5b506000908152602081815260408083206001600160a01b03949094168352929052205490565b60006001600160e01b031982167fd9b67a2600000000000000000000000000000000000000000000000000000000148061028157506001600160e01b031982167f0e89341c00000000000000000000000000000000000000000000000000000000145b806102905750610290826105ce565b90505b919050565b6060600280546102a79061179f565b80601f01602080910402602001604051908101604052809291908181526020018280546102d39061179f565b80156103205780601f106102f557610100808354040283529160200191610320565b820191906000526020600020905b81548152906001019060200180831161030357829003601f168201915b50505050509050919050565b610334610600565b6001600160a01b0316856001600160a01b0316148061035a575061035a856101a7610600565b6103765760405162461bcd60e51b81526004016101ef90611407565b6103838585858585610604565b5050505050565b606081518351146103ad5760405162461bcd60e51b81526004016101ef90611635565b6000835167ffffffffffffffff8111156103d757634e487b7160e01b600052604160045260246000fd5b604051908082528060200260200182016040528015610400578160200160208202803683370190505b50905060005b84518110156104a25761046785828151811061043257634e487b7160e01b600052603260045260246000fd5b602002602001015185838151811061045a57634e487b7160e01b600052603260045260246000fd5b60200260200101516101c7565b82828151811061048757634e487b7160e01b600052603260045260246000fd5b602090810291909101015261049b81611807565b9050610406565b509392505050565b6104bc6104b5610600565b83836107e3565b5050565b60006104cc6003610886565b90506104ea338260016040518060200160405280600081525061088a565b6104f4818361099b565b6104fe60036105c5565b6005546104bc906001600160a01b031660016104aa565b60055461052c906001600160a01b031660016104aa565b565b6001600160a01b03918216600090815260016020908152604080832093909416825291909152205460ff1690565b610564610600565b6001600160a01b0316856001600160a01b0316148061058a575061058a856101a7610600565b6105a65760405162461bcd60e51b81526004016101ef90611407565b61038385858585856109bf565b60006105bf6003610886565b90505b90565b80546001019055565b6001600160e01b031981167f01ffc9a70000000000000000000000000000000000000000000000000000000014919050565b3390565b81518351146106255760405162461bcd60e51b81526004016101ef90611692565b6001600160a01b03841661064b5760405162461bcd60e51b81526004016101ef9061151e565b6000610655610600565b90506106658187878787876107db565b60005b845181101561076757600085828151811061069357634e487b7160e01b600052603260045260246000fd5b6020026020010151905060008583815181106106bf57634e487b7160e01b600052603260045260246000fd5b602090810291909101810151600084815280835260408082206001600160a01b038e16835290935291909120549091508181101561070f5760405162461bcd60e51b81526004016101ef9061157b565b6000838152602081815260408083206001600160a01b038e8116855292528083208585039055908b1682528120805484929061074c908490611787565b925050819055505050508061076090611807565b9050610668565b50846001600160a01b0316866001600160a01b0316826001600160a01b03167f4a39dc06d4c0dbc64b70af90fd698a233a518aa5d07e595d983b8c0526c8f7fb87876040516107b792919061135e565b60405180910390a46107cd8187878787876107db565b6107db818787878787610b1c565b505050505050565b816001600160a01b0316836001600160a01b031614156108155760405162461bcd60e51b81526004016101ef906115d8565b6001600160a01b0383811660008181526001602090815260408083209487168084529490915290819020805460ff1916851515179055517f17307eab39ab6107e8899845ad3d59bd9653f200f220920489ca2b5937696c319061087990859061138c565b60405180910390a3505050565b5490565b6001600160a01b0384166108b05760405162461bcd60e51b81526004016101ef906116ef565b60006108ba610600565b905060006108c785610c41565b905060006108d485610c41565b90506108e5836000898585896107db565b6000868152602081815260408083206001600160a01b038b16845290915281208054879290610915908490611787565b92505081905550866001600160a01b031660006001600160a01b0316846001600160a01b03167fc3d58168c5ae7397731d063d5bbf3d657854427343f4c083240f7aacaa2d0f62898960405161096c929190611755565b60405180910390a4610983836000898585896107db565b61099283600089898989610c9a565b50505050505050565b600082815260046020908152604090912082516109ba92840190610d7a565b505050565b6001600160a01b0384166109e55760405162461bcd60e51b81526004016101ef9061151e565b60006109ef610600565b905060006109fc85610c41565b90506000610a0985610c41565b9050610a198389898585896107db565b6000868152602081815260408083206001600160a01b038c16845290915290205485811015610a5a5760405162461bcd60e51b81526004016101ef9061157b565b6000878152602081815260408083206001600160a01b038d8116855292528083208985039055908a16825281208054889290610a97908490611787565b92505081905550876001600160a01b0316896001600160a01b0316856001600160a01b03167fc3d58168c5ae7397731d063d5bbf3d657854427343f4c083240f7aacaa2d0f628a8a604051610aed929190611755565b60405180910390a4610b03848a8a86868a6107db565b610b11848a8a8a8a8a610c9a565b505050505050505050565b610b2e846001600160a01b0316610d6b565b156107db5760405163bc197c8160e01b81526001600160a01b0385169063bc197c8190610b6790899089908890889088906004016112aa565b602060405180830381600087803b158015610b8157600080fd5b505af1925050508015610bb1575060408051601f3d908101601f19168201909252610bae918101906111a3565b60015b610c1157610bbd61184e565b806308c379a01415610bf75750610bd2611865565b80610bdd5750610bf9565b8060405162461bcd60e51b81526004016101ef9190611397565b505b60405162461bcd60e51b81526004016101ef906113aa565b6001600160e01b0319811663bc197c8160e01b146109925760405162461bcd60e51b81526004016101ef90611464565b60408051600180825281830190925260609160009190602080830190803683370190505090508281600081518110610c8957634e487b7160e01b600052603260045260246000fd5b602090810291909101015292915050565b610cac846001600160a01b0316610d6b565b156107db5760405163f23a6e6160e01b81526001600160a01b0385169063f23a6e6190610ce59089908990889088908890600401611308565b602060405180830381600087803b158015610cff57600080fd5b505af1925050508015610d2f575060408051601f3d908101601f19168201909252610d2c918101906111a3565b60015b610d3b57610bbd61184e565b6001600160e01b0319811663f23a6e6160e01b146109925760405162461bcd60e51b81526004016101ef90611464565b6001600160a01b03163b151590565b828054610d869061179f565b90600052602060002090601f016020900481019282610da85760008555610dee565b82601f10610dc157805160ff1916838001178555610dee565b82800160010185558215610dee579182015b82811115610dee578251825591602001919060010190610dd3565b50610dfa929150610dfe565b5090565b5b80821115610dfa5760008155600101610dff565b600067ffffffffffffffff831115610e2d57610e2d611838565b604051610e44601f8501601f1916602001826117da565b809150838152848484011115610e5957600080fd5b83836020830137600060208583010152509392505050565b80356001600160a01b038116811461029357600080fd5b600082601f830112610e98578081fd5b81356020610ea582611763565b604051610eb282826117da565b838152828101915085830183850287018401881015610ecf578586fd5b855b85811015610eed57813584529284019290840190600101610ed1565b5090979650505050505050565b600082601f830112610f0a578081fd5b610f1983833560208501610e13565b9392505050565b60008060408385031215610f32578182fd5b610f3b83610e71565b9150610f4960208401610e71565b90509250929050565b600080600080600060a08688031215610f69578081fd5b610f7286610e71565b9450610f8060208701610e71565b9350604086013567ffffffffffffffff80821115610f9c578283fd5b610fa889838a01610e88565b94506060880135915080821115610fbd578283fd5b610fc989838a01610e88565b93506080880135915080821115610fde578283fd5b50610feb88828901610efa565b9150509295509295909350565b600080600080600060a0868803121561100f578081fd5b61101886610e71565b945061102660208701610e71565b93506040860135925060608601359150608086013567ffffffffffffffff81111561104f578182fd5b610feb88828901610efa565b6000806040838503121561106d578182fd5b61107683610e71565b91506020830135801515811461108a578182fd5b809150509250929050565b600080604083850312156110a7578182fd5b6110b083610e71565b946020939093013593505050565b600080604083850312156110d0578182fd5b823567ffffffffffffffff808211156110e7578384fd5b818501915085601f8301126110fa578384fd5b8135602061110782611763565b60405161111482826117da565b8381528281019150858301838502870184018b1015611131578889fd5b8896505b8487101561115a5761114681610e71565b835260019690960195918301918301611135565b5096505086013592505080821115611170578283fd5b5061117d85828601610e88565b9150509250929050565b600060208284031215611198578081fd5b8135610f19816118f7565b6000602082840312156111b4578081fd5b8151610f19816118f7565b6000602082840312156111d0578081fd5b813567ffffffffffffffff8111156111e6578182fd5b8201601f810184136111f6578182fd5b61120584823560208401610e13565b949350505050565b60006020828403121561121e578081fd5b5035919050565b6000815180845260208085019450808401835b8381101561125457815187529582019590820190600101611238565b509495945050505050565b60008151808452815b8181101561128457602081850181015186830182015201611268565b818111156112955782602083870101525b50601f01601f19169290920160200192915050565b60006001600160a01b03808816835280871660208401525060a060408301526112d660a0830186611225565b82810360608401526112e88186611225565b905082810360808401526112fc818561125f565b98975050505050505050565b60006001600160a01b03808816835280871660208401525084604083015283606083015260a0608083015261134060a083018461125f565b979650505050505050565b600060208252610f196020830184611225565b6000604082526113716040830185611225565b82810360208401526113838185611225565b95945050505050565b901515815260200190565b600060208252610f19602083018461125f565b60208082526034908201527f455243313135353a207472616e7366657220746f206e6f6e204552433131353560408201527f526563656976657220696d706c656d656e746572000000000000000000000000606082015260800190565b6020808252602f908201527f455243313135353a2063616c6c6572206973206e6f7420746f6b656e206f776e60408201527f6572206e6f7220617070726f7665640000000000000000000000000000000000606082015260800190565b60208082526028908201527f455243313135353a204552433131353552656365697665722072656a6563746560408201527f6420746f6b656e73000000000000000000000000000000000000000000000000606082015260800190565b6020808252602a908201527f455243313135353a2061646472657373207a65726f206973206e6f742061207660408201527f616c6964206f776e657200000000000000000000000000000000000000000000606082015260800190565b60208082526025908201527f455243313135353a207472616e7366657220746f20746865207a65726f20616460408201527f6472657373000000000000000000000000000000000000000000000000000000606082015260800190565b6020808252602a908201527f455243313135353a20696e73756666696369656e742062616c616e636520666f60408201527f72207472616e7366657200000000000000000000000000000000000000000000606082015260800190565b60208082526029908201527f455243313135353a2073657474696e6720617070726f76616c2073746174757360408201527f20666f722073656c660000000000000000000000000000000000000000000000606082015260800190565b60208082526029908201527f455243313135353a206163636f756e747320616e6420696473206c656e67746860408201527f206d69736d617463680000000000000000000000000000000000000000000000606082015260800190565b60208082526028908201527f455243313135353a2069647320616e6420616d6f756e7473206c656e6774682060408201527f6d69736d61746368000000000000000000000000000000000000000000000000606082015260800190565b60208082526021908201527f455243313135353a206d696e7420746f20746865207a65726f2061646472657360408201527f7300000000000000000000000000000000000000000000000000000000000000606082015260800190565b90815260200190565b918252602082015260400190565b600067ffffffffffffffff82111561177d5761177d611838565b5060209081020190565b6000821982111561179a5761179a611822565b500190565b6002810460018216806117b357607f821691505b602082108114156117d457634e487b7160e01b600052602260045260246000fd5b50919050565b601f8201601f1916810167ffffffffffffffff8111828210171561180057611800611838565b6040525050565b600060001982141561181b5761181b611822565b5060010190565b634e487b7160e01b600052601160045260246000fd5b634e487b7160e01b600052604160045260246000fd5b600060033d11156105c257600481823e5160e01c90565b600060443d1015611875576105c2565b6040516003193d81016004833e81513d67ffffffffffffffff81602484011181841117156118a75750505050506105c2565b82850191508151818111156118c1575050505050506105c2565b843d87010160208285010111156118dd575050505050506105c2565b6118ec602082860101876117da565b509094505050505090565b6001600160e01b03198116811461190d57600080fd5b5056fea2646970667358221220bf2efcedced2952cdf043aac6f9dfe5af6fa94c269f9e7792a784de01fe491fc64736f6c63430008010033",
  "linkReferences": {},
  "deployedLinkReferences": {}
}