{
  "_format": "hh-sol-artifact-1",
  "contractName": "NFT",
  "sourceName": "contracts/NFT.sol",
  "abi": [
    {
      "inputs": [
        {
          "internalType": "address",
          "name": "marketplaceAddress",
          "type": "address"
        }
      ],
      "stateMutability": "nonpayable",
      "type": "constructor"
    },
    {
      "anonymous": false,
      "inputs": [
        {
          "indexed": true,
          "internalType": "address",
          "name": "account",
          "type": "address"
        },
        {
          "indexed": true,
          "internalType": "address",
          "name": "operator",
          "type": "address"
        },
        {
          "indexed": false,
          "internalType": "bool",
          "name": "approved",
          "type": "bool"
        }
      ],
      "name": "ApprovalForAll",
      "type": "event"
    },
    {
      "anonymous": false,
      "inputs": [
        {
          "indexed": true,
          "internalType": "address",
          "name": "operator",
          "type": "address"
        },
        {
          "indexed": true,
          "internalType": "address",
          "name": "from",
          "type": "address"
        },
        {
          "indexed": true,
          "internalType": "address",
          "name": "to",
          "type": "address"
        },
        {
          "indexed": false,
          "internalType": "uint256[]",
          "name": "ids",
          "type": "uint256[]"
        },
        {
          "indexed": false,
          "internalType": "uint256[]",
          "name": "values",
          "type": "uint256[]"
        }
      ],
      "name": "TransferBatch",
      "type": "event"
    },
    {
      "anonymous": false,
      "inputs": [
        {
          "indexed": true,
          "internalType": "address",
          "name": "operator",
          "type": "address"
        },
        {
          "indexed": true,
          "internalType": "address",
          "name": "from",
          "type": "address"
        },
        {
          "indexed": true,
          "internalType": "address",
          "name": "to",
          "type": "address"
        },
        {
          "indexed": false,
          "internalType": "uint256",
          "name": "id",
          "type": "uint256"
        },
        {
          "indexed": false,
          "internalType": "uint256",
          "name": "value",
          "type": "uint256"
        }
      ],
      "name": "TransferSingle",
      "type": "event"
    },
    {
      "anonymous": false,
      "inputs": [
        {
          "indexed": false,
          "internalType": "string",
          "name": "value",
          "type": "string"
        },
        {
          "indexed": true,
          "internalType": "uint256",
          "name": "id",
          "type": "uint256"
        }
      ],
      "name": "URI",
      "type": "event"
    },
    {
      "inputs": [
        {
          "internalType": "address",
          "name": "account",
          "type": "address"
        },
        {
          "internalType": "uint256",
          "name": "id",
          "type": "uint256"
        }
      ],
      "name": "balanceOf",
      "outputs": [
        {
          "internalType": "uint256",
          "name": "",
          "type": "uint256"
        }
      ],
      "stateMutability": "view",
      "type": "function"
    },
    {
      "inputs": [
        {
          "internalType": "address[]",
          "name": "accounts",
          "type": "address[]"
        },
        {
          "internalType": "uint256[]",
          "name": "ids",
          "type": "uint256[]"
        }
      ],
      "name": "balanceOfBatch",
      "outputs": [
        {
          "internalType": "uint256[]",
          "name": "",
          "type": "uint256[]"
        }
      ],
      "stateMutability": "view",
      "type": "function"
    },
    {
      "inputs": [],
      "name": "getNumber",
      "outputs": [
        {
          "internalType": "uint256",
          "name": "",
          "type": "uint256"
        }
      ],
      "stateMutability": "view",
      "type": "function"
    },
    {
      "inputs": [
        {
          "internalType": "address",
          "name": "account",
          "type": "address"
        },
        {
          "internalType": "address",
          "name": "operator",
          "type": "address"
        }
      ],
      "name": "isApprovedForAll",
      "outputs": [
        {
          "internalType": "bool",
          "name": "",
          "type": "bool"
        }
      ],
      "stateMutability": "view",
      "type": "function"
    },
    {
      "inputs": [
        {
          "internalType": "string",
          "name": "uri",
          "type": "string"
        },
        {
          "internalType": "uint256",
          "name": "amount",
          "type": "uint256"
        }
      ],
      "name": "mint",
      "outputs": [],
      "stateMutability": "nonpayable",
      "type": "function"
    },
    {
      "inputs": [
        {
          "internalType": "address",
          "name": "from",
          "type": "address"
        },
        {
          "internalType": "address",
          "name": "to",
          "type": "address"
        },
        {
          "internalType": "uint256[]",
          "name": "ids",
          "type": "uint256[]"
        },
        {
          "internalType": "uint256[]",
          "name": "amounts",
          "type": "uint256[]"
        },
        {
          "internalType": "bytes",
          "name": "data",
          "type": "bytes"
        }
      ],
      "name": "safeBatchTransferFrom",
      "outputs": [],
      "stateMutability": "nonpayable",
      "type": "function"
    },
    {
      "inputs": [
        {
          "internalType": "address",
          "name": "from",
          "type": "address"
        },
        {
          "internalType": "address",
          "name": "to",
          "type": "address"
        },
        {
          "internalType": "uint256",
          "name": "id",
          "type": "uint256"
        },
        {
          "internalType": "uint256",
          "name": "amount",
          "type": "uint256"
        },
        {
          "internalType": "bytes",
          "name": "data",
          "type": "bytes"
        }
      ],
      "name": "safeTransferFrom",
      "outputs": [],
      "stateMutability": "nonpayable",
      "type": "function"
    },
    {
      "inputs": [],
      "name": "setApproval",
      "outputs": [],
      "stateMutability": "nonpayable",
      "type": "function"
    },
    {
      "inputs": [
        {
          "internalType": "address",
          "name": "operator",
          "type": "address"
        },
        {
          "internalType": "bool",
          "name": "approved",
          "type": "bool"
        }
      ],
      "name": "setApprovalForAll",
      "outputs": [],
      "stateMutability": "nonpayable",
      "type": "function"
    },
    {
      "inputs": [
        {
          "internalType": "bytes4",
          "name": "interfaceId",
          "type": "bytes4"
        }
      ],
      "name": "supportsInterface",
      "outputs": [
        {
          "internalType": "bool",
          "name": "",
          "type": "bool"
        }
      ],
      "stateMutability": "view",
      "type": "function"
    },
    {
      "inputs": [
        {
          "internalType": "uint256",
          "name": "",
          "type": "uint256"
        }
      ],
      "name": "uri",
      "outputs": [
        {
          "internalType": "string",
          "name": "",
          "type": "string"
        }
      ],
      "stateMutability": "view",
      "type": "function"
    }
  ],
  "bytecode": "0x60806040523480156200001157600080fd5b5060405162001b1b38038062001b1b833981016040819052620000349162000151565b6040805160208101909152600081526200004e8162000089565b50600580546001600160a01b0319166001600160a01b038316179055620000826003620000a2602090811b620005c917901c565b50620001be565b80516200009e906002906020840190620000ab565b5050565b80546001019055565b828054620000b99062000181565b90600052602060002090601f016020900481019282620000dd576000855562000128565b82601f10620000f857805160ff191683800117855562000128565b8280016001018555821562000128579182015b82811115620001285782518255916020019190600101906200010b565b50620001369291506200013a565b5090565b5b808211156200013657600081556001016200013b565b60006020828403121562000163578081fd5b81516001600160a01b03811681146200017a578182fd5b9392505050565b6002810460018216806200019657607f821691505b60208210811415620001b857634e487b7160e01b600052602260045260246000fd5b50919050565b61194d80620001ce6000396000f3fe608060405234801561001057600080fd5b50600436106100c85760003560e01c80634e1273f411610081578063e985e9c51161005b578063e985e9c514610199578063f242432a146101ac578063f2c9ecd8146101bf576100c8565b80634e1273f41461015e578063a22cb4651461017e578063e18c6b1914610191576100c8565b8063056b01ce116100b2578063056b01ce146101165780630e89341c1461012b5780632eb2c2d61461014b576100c8565b8062fdd58e146100cd57806301ffc9a7146100f6575b600080fd5b6100e06100db366004611094565b6101c7565b6040516100ed9190611753565b60405180910390f35b610109610104366004611186565b61021e565b6040516100ed9190611393565b6101296101243660046111be565b610298565b005b61013e610139366004611214565b6102f1565b6040516100ed919061139e565b610129610159366004610f51565b610385565b61017161016c3660046110bd565b6103e3565b6040516100ed9190611352565b61012961018c36600461105a565b610503565b610129610519565b6101096101a7366004610f1f565b610532565b6101296101ba366004610ff7565b610560565b6100e06105b7565b60006001600160a01b0383166101f85760405162461bcd60e51b81526004016101ef906114c8565b60405180910390fd5b506000908152602081815260408083206001600160a01b03949094168352929052205490565b60006001600160e01b031982167fd9b67a2600000000000000000000000000000000000000000000000000000000148061028157506001600160e01b031982167f0e89341c00000000000000000000000000000000000000000000000000000000145b806102905750610290826105d2565b90505b919050565b60006102a46003610604565b90506102c133828460405180602001604052806000815250610608565b6102cb8184610719565b6102d560036105c9565b6005546102ec906001600160a01b03166001610503565b505050565b606060028054610300906117a6565b80601f016020809104026020016040519081016040528092919081815260200182805461032c906117a6565b80156103795780601f1061034e57610100808354040283529160200191610379565b820191906000526020600020905b81548152906001019060200180831161035c57829003601f168201915b50505050509050919050565b61038d610738565b6001600160a01b0316856001600160a01b031614806103b357506103b3856101a7610738565b6103cf5760405162461bcd60e51b81526004016101ef9061140e565b6103dc858585858561073c565b5050505050565b606081518351146104065760405162461bcd60e51b81526004016101ef9061163c565b6000835167ffffffffffffffff81111561043057634e487b7160e01b600052604160045260246000fd5b604051908082528060200260200182016040528015610459578160200160208202803683370190505b50905060005b84518110156104fb576104c085828151811061048b57634e487b7160e01b600052603260045260246000fd5b60200260200101518583815181106104b357634e487b7160e01b600052603260045260246000fd5b60200260200101516101c7565b8282815181106104e057634e487b7160e01b600052603260045260246000fd5b60209081029190910101526104f48161180e565b905061045f565b509392505050565b61051561050e610738565b838361091b565b5050565b600554610530906001600160a01b03166001610503565b565b6001600160a01b03918216600090815260016020908152604080832093909416825291909152205460ff1690565b610568610738565b6001600160a01b0316856001600160a01b0316148061058e575061058e856101a7610738565b6105aa5760405162461bcd60e51b81526004016101ef9061140e565b6103dc85858585856109be565b60006105c36003610604565b90505b90565b80546001019055565b6001600160e01b031981167f01ffc9a70000000000000000000000000000000000000000000000000000000014919050565b5490565b6001600160a01b03841661062e5760405162461bcd60e51b81526004016101ef906116f6565b6000610638610738565b9050600061064585610b1b565b9050600061065285610b1b565b905061066383600089858589610913565b6000868152602081815260408083206001600160a01b038b1684529091528120805487929061069390849061178e565b92505081905550866001600160a01b031660006001600160a01b0316846001600160a01b03167fc3d58168c5ae7397731d063d5bbf3d657854427343f4c083240f7aacaa2d0f6289896040516106ea92919061175c565b60405180910390a461070183600089858589610913565b61071083600089898989610b74565b50505050505050565b600082815260046020908152604090912082516102ec92840190610d79565b3390565b815183511461075d5760405162461bcd60e51b81526004016101ef90611699565b6001600160a01b0384166107835760405162461bcd60e51b81526004016101ef90611525565b600061078d610738565b905061079d818787878787610913565b60005b845181101561089f5760008582815181106107cb57634e487b7160e01b600052603260045260246000fd5b6020026020010151905060008583815181106107f757634e487b7160e01b600052603260045260246000fd5b602090810291909101810151600084815280835260408082206001600160a01b038e1683529093529190912054909150818110156108475760405162461bcd60e51b81526004016101ef90611582565b6000838152602081815260408083206001600160a01b038e8116855292528083208585039055908b1682528120805484929061088490849061178e565b92505081905550505050806108989061180e565b90506107a0565b50846001600160a01b0316866001600160a01b0316826001600160a01b03167f4a39dc06d4c0dbc64b70af90fd698a233a518aa5d07e595d983b8c0526c8f7fb87876040516108ef929190611365565b60405180910390a4610905818787878787610913565b610913818787878787610c99565b505050505050565b816001600160a01b0316836001600160a01b0316141561094d5760405162461bcd60e51b81526004016101ef906115df565b6001600160a01b0383811660008181526001602090815260408083209487168084529490915290819020805460ff1916851515179055517f17307eab39ab6107e8899845ad3d59bd9653f200f220920489ca2b5937696c31906109b1908590611393565b60405180910390a3505050565b6001600160a01b0384166109e45760405162461bcd60e51b81526004016101ef90611525565b60006109ee610738565b905060006109fb85610b1b565b90506000610a0885610b1b565b9050610a18838989858589610913565b6000868152602081815260408083206001600160a01b038c16845290915290205485811015610a595760405162461bcd60e51b81526004016101ef90611582565b6000878152602081815260408083206001600160a01b038d8116855292528083208985039055908a16825281208054889290610a9690849061178e565b92505081905550876001600160a01b0316896001600160a01b0316856001600160a01b03167fc3d58168c5ae7397731d063d5bbf3d657854427343f4c083240f7aacaa2d0f628a8a604051610aec92919061175c565b60405180910390a4610b02848a8a86868a610913565b610b10848a8a8a8a8a610b74565b505050505050505050565b60408051600180825281830190925260609160009190602080830190803683370190505090508281600081518110610b6357634e487b7160e01b600052603260045260246000fd5b602090810291909101015292915050565b610b86846001600160a01b0316610d6a565b156109135760405163f23a6e6160e01b81526001600160a01b0385169063f23a6e6190610bbf908990899088908890889060040161130f565b602060405180830381600087803b158015610bd957600080fd5b505af1925050508015610c09575060408051601f3d908101601f19168201909252610c06918101906111a2565b60015b610c6957610c15611855565b806308c379a01415610c4f5750610c2a61186c565b80610c355750610c51565b8060405162461bcd60e51b81526004016101ef919061139e565b505b60405162461bcd60e51b81526004016101ef906113b1565b6001600160e01b0319811663f23a6e6160e01b146107105760405162461bcd60e51b81526004016101ef9061146b565b610cab846001600160a01b0316610d6a565b156109135760405163bc197c8160e01b81526001600160a01b0385169063bc197c8190610ce490899089908890889088906004016112b1565b602060405180830381600087803b158015610cfe57600080fd5b505af1925050508015610d2e575060408051601f3d908101601f19168201909252610d2b918101906111a2565b60015b610d3a57610c15611855565b6001600160e01b0319811663bc197c8160e01b146107105760405162461bcd60e51b81526004016101ef9061146b565b6001600160a01b03163b151590565b828054610d85906117a6565b90600052602060002090601f016020900481019282610da75760008555610ded565b82601f10610dc057805160ff1916838001178555610ded565b82800160010185558215610ded579182015b82811115610ded578251825591602001919060010190610dd2565b50610df9929150610dfd565b5090565b5b80821115610df95760008155600101610dfe565b600067ffffffffffffffff831115610e2c57610e2c61183f565b604051610e43601f8501601f1916602001826117e1565b809150838152848484011115610e5857600080fd5b83836020830137600060208583010152509392505050565b80356001600160a01b038116811461029357600080fd5b600082601f830112610e97578081fd5b81356020610ea48261176a565b604051610eb182826117e1565b838152828101915085830183850287018401881015610ece578586fd5b855b85811015610eec57813584529284019290840190600101610ed0565b5090979650505050505050565b600082601f830112610f09578081fd5b610f1883833560208501610e12565b9392505050565b60008060408385031215610f31578182fd5b610f3a83610e70565b9150610f4860208401610e70565b90509250929050565b600080600080600060a08688031215610f68578081fd5b610f7186610e70565b9450610f7f60208701610e70565b9350604086013567ffffffffffffffff80821115610f9b578283fd5b610fa789838a01610e87565b94506060880135915080821115610fbc578283fd5b610fc889838a01610e87565b93506080880135915080821115610fdd578283fd5b50610fea88828901610ef9565b9150509295509295909350565b600080600080600060a0868803121561100e578081fd5b61101786610e70565b945061102560208701610e70565b93506040860135925060608601359150608086013567ffffffffffffffff81111561104e578182fd5b610fea88828901610ef9565b6000806040838503121561106c578182fd5b61107583610e70565b915060208301358015158114611089578182fd5b809150509250929050565b600080604083850312156110a6578182fd5b6110af83610e70565b946020939093013593505050565b600080604083850312156110cf578182fd5b823567ffffffffffffffff808211156110e6578384fd5b818501915085601f8301126110f9578384fd5b813560206111068261176a565b60405161111382826117e1565b8381528281019150858301838502870184018b1015611130578889fd5b8896505b848710156111595761114581610e70565b835260019690960195918301918301611134565b509650508601359250508082111561116f578283fd5b5061117c85828601610e87565b9150509250929050565b600060208284031215611197578081fd5b8135610f18816118fe565b6000602082840312156111b3578081fd5b8151610f18816118fe565b600080604083850312156111d0578182fd5b823567ffffffffffffffff8111156111e6578283fd5b8301601f810185136111f6578283fd5b61120585823560208401610e12565b95602094909401359450505050565b600060208284031215611225578081fd5b5035919050565b6000815180845260208085019450808401835b8381101561125b5781518752958201959082019060010161123f565b509495945050505050565b60008151808452815b8181101561128b5760208185018101518683018201520161126f565b8181111561129c5782602083870101525b50601f01601f19169290920160200192915050565b60006001600160a01b03808816835280871660208401525060a060408301526112dd60a083018661122c565b82810360608401526112ef818661122c565b905082810360808401526113038185611266565b98975050505050505050565b60006001600160a01b03808816835280871660208401525084604083015283606083015260a0608083015261134760a0830184611266565b979650505050505050565b600060208252610f18602083018461122c565b600060408252611378604083018561122c565b828103602084015261138a818561122c565b95945050505050565b901515815260200190565b600060208252610f186020830184611266565b60208082526034908201527f455243313135353a207472616e7366657220746f206e6f6e204552433131353560408201527f526563656976657220696d706c656d656e746572000000000000000000000000606082015260800190565b6020808252602f908201527f455243313135353a2063616c6c6572206973206e6f7420746f6b656e206f776e60408201527f6572206e6f7220617070726f7665640000000000000000000000000000000000606082015260800190565b60208082526028908201527f455243313135353a204552433131353552656365697665722072656a6563746560408201527f6420746f6b656e73000000000000000000000000000000000000000000000000606082015260800190565b6020808252602a908201527f455243313135353a2061646472657373207a65726f206973206e6f742061207660408201527f616c6964206f776e657200000000000000000000000000000000000000000000606082015260800190565b60208082526025908201527f455243313135353a207472616e7366657220746f20746865207a65726f20616460408201527f6472657373000000000000000000000000000000000000000000000000000000606082015260800190565b6020808252602a908201527f455243313135353a20696e73756666696369656e742062616c616e636520666f60408201527f72207472616e7366657200000000000000000000000000000000000000000000606082015260800190565b60208082526029908201527f455243313135353a2073657474696e6720617070726f76616c2073746174757360408201527f20666f722073656c660000000000000000000000000000000000000000000000606082015260800190565b60208082526029908201527f455243313135353a206163636f756e747320616e6420696473206c656e67746860408201527f206d69736d617463680000000000000000000000000000000000000000000000606082015260800190565b60208082526028908201527f455243313135353a2069647320616e6420616d6f756e7473206c656e6774682060408201527f6d69736d61746368000000000000000000000000000000000000000000000000606082015260800190565b60208082526021908201527f455243313135353a206d696e7420746f20746865207a65726f2061646472657360408201527f7300000000000000000000000000000000000000000000000000000000000000606082015260800190565b90815260200190565b918252602082015260400190565b600067ffffffffffffffff8211156117845761178461183f565b5060209081020190565b600082198211156117a1576117a1611829565b500190565b6002810460018216806117ba57607f821691505b602082108114156117db57634e487b7160e01b600052602260045260246000fd5b50919050565b601f8201601f1916810167ffffffffffffffff811182821017156118075761180761183f565b6040525050565b600060001982141561182257611822611829565b5060010190565b634e487b7160e01b600052601160045260246000fd5b634e487b7160e01b600052604160045260246000fd5b600060033d11156105c657600481823e5160e01c90565b600060443d101561187c576105c6565b6040516003193d81016004833e81513d67ffffffffffffffff81602484011181841117156118ae5750505050506105c6565b82850191508151818111156118c8575050505050506105c6565b843d87010160208285010111156118e4575050505050506105c6565b6118f3602082860101876117e1565b509094505050505090565b6001600160e01b03198116811461191457600080fd5b5056fea2646970667358221220f6c620a60a80a2ab3b8f167aa771b9c7907242c1f52a599fa76c30344d8a31b464736f6c63430008010033",
  "linkReferences": {},
  "deployedLinkReferences": {}
}