{
  "_format": "hh-sol-artifact-1",
  "contractName": "NFT",
  "sourceName": "contracts/NFT.sol",
  "abi": [
    {
      "inputs": [
        {
          "internalType": "address",
          "name": "marketplaceAddress",
          "type": "address"
        }
      ],
      "stateMutability": "nonpayable",
      "type": "constructor"
    },
    {
      "anonymous": false,
      "inputs": [
        {
          "indexed": true,
          "internalType": "address",
          "name": "account",
          "type": "address"
        },
        {
          "indexed": true,
          "internalType": "address",
          "name": "operator",
          "type": "address"
        },
        {
          "indexed": false,
          "internalType": "bool",
          "name": "approved",
          "type": "bool"
        }
      ],
      "name": "ApprovalForAll",
      "type": "event"
    },
    {
      "anonymous": false,
      "inputs": [
        {
          "indexed": true,
          "internalType": "address",
          "name": "operator",
          "type": "address"
        },
        {
          "indexed": true,
          "internalType": "address",
          "name": "from",
          "type": "address"
        },
        {
          "indexed": true,
          "internalType": "address",
          "name": "to",
          "type": "address"
        },
        {
          "indexed": false,
          "internalType": "uint256[]",
          "name": "ids",
          "type": "uint256[]"
        },
        {
          "indexed": false,
          "internalType": "uint256[]",
          "name": "values",
          "type": "uint256[]"
        }
      ],
      "name": "TransferBatch",
      "type": "event"
    },
    {
      "anonymous": false,
      "inputs": [
        {
          "indexed": true,
          "internalType": "address",
          "name": "operator",
          "type": "address"
        },
        {
          "indexed": true,
          "internalType": "address",
          "name": "from",
          "type": "address"
        },
        {
          "indexed": true,
          "internalType": "address",
          "name": "to",
          "type": "address"
        },
        {
          "indexed": false,
          "internalType": "uint256",
          "name": "id",
          "type": "uint256"
        },
        {
          "indexed": false,
          "internalType": "uint256",
          "name": "value",
          "type": "uint256"
        }
      ],
      "name": "TransferSingle",
      "type": "event"
    },
    {
      "anonymous": false,
      "inputs": [
        {
          "indexed": false,
          "internalType": "string",
          "name": "value",
          "type": "string"
        },
        {
          "indexed": true,
          "internalType": "uint256",
          "name": "id",
          "type": "uint256"
        }
      ],
      "name": "URI",
      "type": "event"
    },
    {
      "inputs": [
        {
          "internalType": "address",
          "name": "account",
          "type": "address"
        },
        {
          "internalType": "uint256",
          "name": "id",
          "type": "uint256"
        }
      ],
      "name": "balanceOf",
      "outputs": [
        {
          "internalType": "uint256",
          "name": "",
          "type": "uint256"
        }
      ],
      "stateMutability": "view",
      "type": "function"
    },
    {
      "inputs": [
        {
          "internalType": "address[]",
          "name": "accounts",
          "type": "address[]"
        },
        {
          "internalType": "uint256[]",
          "name": "ids",
          "type": "uint256[]"
        }
      ],
      "name": "balanceOfBatch",
      "outputs": [
        {
          "internalType": "uint256[]",
          "name": "",
          "type": "uint256[]"
        }
      ],
      "stateMutability": "view",
      "type": "function"
    },
    {
      "inputs": [],
      "name": "getNumber",
      "outputs": [
        {
          "internalType": "uint256",
          "name": "",
          "type": "uint256"
        }
      ],
      "stateMutability": "view",
      "type": "function"
    },
    {
      "inputs": [
        {
          "internalType": "address",
          "name": "account",
          "type": "address"
        },
        {
          "internalType": "address",
          "name": "operator",
          "type": "address"
        }
      ],
      "name": "isApprovedForAll",
      "outputs": [
        {
          "internalType": "bool",
          "name": "",
          "type": "bool"
        }
      ],
      "stateMutability": "view",
      "type": "function"
    },
    {
      "inputs": [
        {
          "internalType": "string",
          "name": "ipfsToken",
          "type": "string"
        }
      ],
      "name": "mint",
      "outputs": [],
      "stateMutability": "nonpayable",
      "type": "function"
    },
    {
      "inputs": [
        {
          "internalType": "address",
          "name": "from",
          "type": "address"
        },
        {
          "internalType": "address",
          "name": "to",
          "type": "address"
        },
        {
          "internalType": "uint256[]",
          "name": "ids",
          "type": "uint256[]"
        },
        {
          "internalType": "uint256[]",
          "name": "amounts",
          "type": "uint256[]"
        },
        {
          "internalType": "bytes",
          "name": "data",
          "type": "bytes"
        }
      ],
      "name": "safeBatchTransferFrom",
      "outputs": [],
      "stateMutability": "nonpayable",
      "type": "function"
    },
    {
      "inputs": [
        {
          "internalType": "address",
          "name": "from",
          "type": "address"
        },
        {
          "internalType": "address",
          "name": "to",
          "type": "address"
        },
        {
          "internalType": "uint256",
          "name": "id",
          "type": "uint256"
        },
        {
          "internalType": "uint256",
          "name": "amount",
          "type": "uint256"
        },
        {
          "internalType": "bytes",
          "name": "data",
          "type": "bytes"
        }
      ],
      "name": "safeTransferFrom",
      "outputs": [],
      "stateMutability": "nonpayable",
      "type": "function"
    },
    {
      "inputs": [],
      "name": "setApproval",
      "outputs": [],
      "stateMutability": "nonpayable",
      "type": "function"
    },
    {
      "inputs": [
        {
          "internalType": "address",
          "name": "operator",
          "type": "address"
        },
        {
          "internalType": "bool",
          "name": "approved",
          "type": "bool"
        }
      ],
      "name": "setApprovalForAll",
      "outputs": [],
      "stateMutability": "nonpayable",
      "type": "function"
    },
    {
      "inputs": [
        {
          "internalType": "bytes4",
          "name": "interfaceId",
          "type": "bytes4"
        }
      ],
      "name": "supportsInterface",
      "outputs": [
        {
          "internalType": "bool",
          "name": "",
          "type": "bool"
        }
      ],
      "stateMutability": "view",
      "type": "function"
    },
    {
      "inputs": [
        {
          "internalType": "uint256",
          "name": "",
          "type": "uint256"
        }
      ],
      "name": "uri",
      "outputs": [
        {
          "internalType": "string",
          "name": "",
          "type": "string"
        }
      ],
      "stateMutability": "view",
      "type": "function"
    }
  ],
  "bytecode": "0x60806040523480156200001157600080fd5b5060405162001b0638038062001b06833981016040819052620000349162000151565b6040805160208101909152600081526200004e8162000089565b50600580546001600160a01b0319166001600160a01b038316179055620000826003620000a2602090811b620005db17901c565b50620001be565b80516200009e906002906020840190620000ab565b5050565b80546001019055565b828054620000b99062000181565b90600052602060002090601f016020900481019282620000dd576000855562000128565b82601f10620000f857805160ff191683800117855562000128565b8280016001018555821562000128579182015b82811115620001285782518255916020019190600101906200010b565b50620001369291506200013a565b5090565b5b808211156200013657600081556001016200013b565b60006020828403121562000163578081fd5b81516001600160a01b03811681146200017a578182fd5b9392505050565b6002810460018216806200019657607f821691505b60208210811415620001b857634e487b7160e01b600052602260045260246000fd5b50919050565b61193880620001ce6000396000f3fe608060405234801561001057600080fd5b50600436106100c85760003560e01c8063a22cb46511610081578063e985e9c51161005b578063e985e9c514610199578063f242432a146101ac578063f2c9ecd8146101bf576100c8565b8063a22cb4651461016b578063d85d3d271461017e578063e18c6b1914610191576100c8565b80630e89341c116100b25780630e89341c146101165780632eb2c2d6146101365780634e1273f41461014b576100c8565b8062fdd58e146100cd57806301ffc9a7146100f6575b600080fd5b6100e06100db366004611087565b6101c7565b6040516100ed919061173e565b60405180910390f35b610109610104366004611179565b61021e565b6040516100ed919061137e565b6101296101243660046111ff565b610298565b6040516100ed9190611389565b610149610144366004610f44565b61032c565b005b61015e6101593660046110b0565b61038a565b6040516100ed919061133d565b61014961017936600461104d565b6104aa565b61014961018c3660046111b1565b6104c0565b61014961052b565b6101096101a7366004610f12565b610544565b6101496101ba366004610fea565b610572565b6100e06105c9565b60006001600160a01b0383166101f85760405162461bcd60e51b81526004016101ef906114b3565b60405180910390fd5b506000908152602081815260408083206001600160a01b03949094168352929052205490565b60006001600160e01b031982167fd9b67a2600000000000000000000000000000000000000000000000000000000148061028157506001600160e01b031982167f0e89341c00000000000000000000000000000000000000000000000000000000145b806102905750610290826105e4565b90505b919050565b6060600280546102a790611791565b80601f01602080910402602001604051908101604052809291908181526020018280546102d390611791565b80156103205780601f106102f557610100808354040283529160200191610320565b820191906000526020600020905b81548152906001019060200180831161030357829003601f168201915b50505050509050919050565b610334610616565b6001600160a01b0316856001600160a01b0316148061035a575061035a856101a7610616565b6103765760405162461bcd60e51b81526004016101ef906113f9565b610383858585858561061a565b5050505050565b606081518351146103ad5760405162461bcd60e51b81526004016101ef90611627565b6000835167ffffffffffffffff8111156103d757634e487b7160e01b600052604160045260246000fd5b604051908082528060200260200182016040528015610400578160200160208202803683370190505b50905060005b84518110156104a25761046785828151811061043257634e487b7160e01b600052603260045260246000fd5b602002602001015185838151811061045a57634e487b7160e01b600052603260045260246000fd5b60200260200101516101c7565b82828151811061048757634e487b7160e01b600052603260045260246000fd5b602090810291909101015261049b816117f9565b9050610406565b509392505050565b6104bc6104b5610616565b83836107f9565b5050565b60006104cc600361089c565b90506104d860036105db565b6104f433826001604051806020016040528060008152506108a0565b6000818152600460209081526040909120835161051392850190610d6c565b506005546104bc906001600160a01b031660016104aa565b600554610542906001600160a01b031660016104aa565b565b6001600160a01b03918216600090815260016020908152604080832093909416825291909152205460ff1690565b61057a610616565b6001600160a01b0316856001600160a01b031614806105a057506105a0856101a7610616565b6105bc5760405162461bcd60e51b81526004016101ef906113f9565b61038385858585856109b1565b60006105d5600361089c565b90505b90565b80546001019055565b6001600160e01b031981167f01ffc9a70000000000000000000000000000000000000000000000000000000014919050565b3390565b815183511461063b5760405162461bcd60e51b81526004016101ef90611684565b6001600160a01b0384166106615760405162461bcd60e51b81526004016101ef90611510565b600061066b610616565b905061067b8187878787876107f1565b60005b845181101561077d5760008582815181106106a957634e487b7160e01b600052603260045260246000fd5b6020026020010151905060008583815181106106d557634e487b7160e01b600052603260045260246000fd5b602090810291909101810151600084815280835260408082206001600160a01b038e1683529093529190912054909150818110156107255760405162461bcd60e51b81526004016101ef9061156d565b6000838152602081815260408083206001600160a01b038e8116855292528083208585039055908b16825281208054849290610762908490611779565b9250508190555050505080610776906117f9565b905061067e565b50846001600160a01b0316866001600160a01b0316826001600160a01b03167f4a39dc06d4c0dbc64b70af90fd698a233a518aa5d07e595d983b8c0526c8f7fb87876040516107cd929190611350565b60405180910390a46107e38187878787876107f1565b6107f1818787878787610b0e565b505050505050565b816001600160a01b0316836001600160a01b0316141561082b5760405162461bcd60e51b81526004016101ef906115ca565b6001600160a01b0383811660008181526001602090815260408083209487168084529490915290819020805460ff1916851515179055517f17307eab39ab6107e8899845ad3d59bd9653f200f220920489ca2b5937696c319061088f90859061137e565b60405180910390a3505050565b5490565b6001600160a01b0384166108c65760405162461bcd60e51b81526004016101ef906116e1565b60006108d0610616565b905060006108dd85610c33565b905060006108ea85610c33565b90506108fb836000898585896107f1565b6000868152602081815260408083206001600160a01b038b1684529091528120805487929061092b908490611779565b92505081905550866001600160a01b031660006001600160a01b0316846001600160a01b03167fc3d58168c5ae7397731d063d5bbf3d657854427343f4c083240f7aacaa2d0f628989604051610982929190611747565b60405180910390a4610999836000898585896107f1565b6109a883600089898989610c8c565b50505050505050565b6001600160a01b0384166109d75760405162461bcd60e51b81526004016101ef90611510565b60006109e1610616565b905060006109ee85610c33565b905060006109fb85610c33565b9050610a0b8389898585896107f1565b6000868152602081815260408083206001600160a01b038c16845290915290205485811015610a4c5760405162461bcd60e51b81526004016101ef9061156d565b6000878152602081815260408083206001600160a01b038d8116855292528083208985039055908a16825281208054889290610a89908490611779565b92505081905550876001600160a01b0316896001600160a01b0316856001600160a01b03167fc3d58168c5ae7397731d063d5bbf3d657854427343f4c083240f7aacaa2d0f628a8a604051610adf929190611747565b60405180910390a4610af5848a8a86868a6107f1565b610b03848a8a8a8a8a610c8c565b505050505050505050565b610b20846001600160a01b0316610d5d565b156107f15760405163bc197c8160e01b81526001600160a01b0385169063bc197c8190610b59908990899088908890889060040161129c565b602060405180830381600087803b158015610b7357600080fd5b505af1925050508015610ba3575060408051601f3d908101601f19168201909252610ba091810190611195565b60015b610c0357610baf611840565b806308c379a01415610be95750610bc4611857565b80610bcf5750610beb565b8060405162461bcd60e51b81526004016101ef9190611389565b505b60405162461bcd60e51b81526004016101ef9061139c565b6001600160e01b0319811663bc197c8160e01b146109a85760405162461bcd60e51b81526004016101ef90611456565b60408051600180825281830190925260609160009190602080830190803683370190505090508281600081518110610c7b57634e487b7160e01b600052603260045260246000fd5b602090810291909101015292915050565b610c9e846001600160a01b0316610d5d565b156107f15760405163f23a6e6160e01b81526001600160a01b0385169063f23a6e6190610cd790899089908890889088906004016112fa565b602060405180830381600087803b158015610cf157600080fd5b505af1925050508015610d21575060408051601f3d908101601f19168201909252610d1e91810190611195565b60015b610d2d57610baf611840565b6001600160e01b0319811663f23a6e6160e01b146109a85760405162461bcd60e51b81526004016101ef90611456565b6001600160a01b03163b151590565b828054610d7890611791565b90600052602060002090601f016020900481019282610d9a5760008555610de0565b82601f10610db357805160ff1916838001178555610de0565b82800160010185558215610de0579182015b82811115610de0578251825591602001919060010190610dc5565b50610dec929150610df0565b5090565b5b80821115610dec5760008155600101610df1565b600067ffffffffffffffff831115610e1f57610e1f61182a565b604051610e36601f8501601f1916602001826117cc565b809150838152848484011115610e4b57600080fd5b83836020830137600060208583010152509392505050565b80356001600160a01b038116811461029357600080fd5b600082601f830112610e8a578081fd5b81356020610e9782611755565b604051610ea482826117cc565b838152828101915085830183850287018401881015610ec1578586fd5b855b85811015610edf57813584529284019290840190600101610ec3565b5090979650505050505050565b600082601f830112610efc578081fd5b610f0b83833560208501610e05565b9392505050565b60008060408385031215610f24578182fd5b610f2d83610e63565b9150610f3b60208401610e63565b90509250929050565b600080600080600060a08688031215610f5b578081fd5b610f6486610e63565b9450610f7260208701610e63565b9350604086013567ffffffffffffffff80821115610f8e578283fd5b610f9a89838a01610e7a565b94506060880135915080821115610faf578283fd5b610fbb89838a01610e7a565b93506080880135915080821115610fd0578283fd5b50610fdd88828901610eec565b9150509295509295909350565b600080600080600060a08688031215611001578081fd5b61100a86610e63565b945061101860208701610e63565b93506040860135925060608601359150608086013567ffffffffffffffff811115611041578182fd5b610fdd88828901610eec565b6000806040838503121561105f578182fd5b61106883610e63565b91506020830135801515811461107c578182fd5b809150509250929050565b60008060408385031215611099578182fd5b6110a283610e63565b946020939093013593505050565b600080604083850312156110c2578182fd5b823567ffffffffffffffff808211156110d9578384fd5b818501915085601f8301126110ec578384fd5b813560206110f982611755565b60405161110682826117cc565b8381528281019150858301838502870184018b1015611123578889fd5b8896505b8487101561114c5761113881610e63565b835260019690960195918301918301611127565b5096505086013592505080821115611162578283fd5b5061116f85828601610e7a565b9150509250929050565b60006020828403121561118a578081fd5b8135610f0b816118e9565b6000602082840312156111a6578081fd5b8151610f0b816118e9565b6000602082840312156111c2578081fd5b813567ffffffffffffffff8111156111d8578182fd5b8201601f810184136111e8578182fd5b6111f784823560208401610e05565b949350505050565b600060208284031215611210578081fd5b5035919050565b6000815180845260208085019450808401835b838110156112465781518752958201959082019060010161122a565b509495945050505050565b60008151808452815b818110156112765760208185018101518683018201520161125a565b818111156112875782602083870101525b50601f01601f19169290920160200192915050565b60006001600160a01b03808816835280871660208401525060a060408301526112c860a0830186611217565b82810360608401526112da8186611217565b905082810360808401526112ee8185611251565b98975050505050505050565b60006001600160a01b03808816835280871660208401525084604083015283606083015260a0608083015261133260a0830184611251565b979650505050505050565b600060208252610f0b6020830184611217565b6000604082526113636040830185611217565b82810360208401526113758185611217565b95945050505050565b901515815260200190565b600060208252610f0b6020830184611251565b60208082526034908201527f455243313135353a207472616e7366657220746f206e6f6e204552433131353560408201527f526563656976657220696d706c656d656e746572000000000000000000000000606082015260800190565b6020808252602f908201527f455243313135353a2063616c6c6572206973206e6f7420746f6b656e206f776e60408201527f6572206e6f7220617070726f7665640000000000000000000000000000000000606082015260800190565b60208082526028908201527f455243313135353a204552433131353552656365697665722072656a6563746560408201527f6420746f6b656e73000000000000000000000000000000000000000000000000606082015260800190565b6020808252602a908201527f455243313135353a2061646472657373207a65726f206973206e6f742061207660408201527f616c6964206f776e657200000000000000000000000000000000000000000000606082015260800190565b60208082526025908201527f455243313135353a207472616e7366657220746f20746865207a65726f20616460408201527f6472657373000000000000000000000000000000000000000000000000000000606082015260800190565b6020808252602a908201527f455243313135353a20696e73756666696369656e742062616c616e636520666f60408201527f72207472616e7366657200000000000000000000000000000000000000000000606082015260800190565b60208082526029908201527f455243313135353a2073657474696e6720617070726f76616c2073746174757360408201527f20666f722073656c660000000000000000000000000000000000000000000000606082015260800190565b60208082526029908201527f455243313135353a206163636f756e747320616e6420696473206c656e67746860408201527f206d69736d617463680000000000000000000000000000000000000000000000606082015260800190565b60208082526028908201527f455243313135353a2069647320616e6420616d6f756e7473206c656e6774682060408201527f6d69736d61746368000000000000000000000000000000000000000000000000606082015260800190565b60208082526021908201527f455243313135353a206d696e7420746f20746865207a65726f2061646472657360408201527f7300000000000000000000000000000000000000000000000000000000000000606082015260800190565b90815260200190565b918252602082015260400190565b600067ffffffffffffffff82111561176f5761176f61182a565b5060209081020190565b6000821982111561178c5761178c611814565b500190565b6002810460018216806117a557607f821691505b602082108114156117c657634e487b7160e01b600052602260045260246000fd5b50919050565b601f8201601f1916810167ffffffffffffffff811182821017156117f2576117f261182a565b6040525050565b600060001982141561180d5761180d611814565b5060010190565b634e487b7160e01b600052601160045260246000fd5b634e487b7160e01b600052604160045260246000fd5b600060033d11156105d857600481823e5160e01c90565b600060443d1015611867576105d8565b6040516003193d81016004833e81513d67ffffffffffffffff81602484011181841117156118995750505050506105d8565b82850191508151818111156118b3575050505050506105d8565b843d87010160208285010111156118cf575050505050506105d8565b6118de602082860101876117cc565b509094505050505090565b6001600160e01b0319811681146118ff57600080fd5b5056fea26469706673582212202eeac9c333e17c0971beca032310dcadd9826e432cea4094f6003209661be32964736f6c63430008010033",
  "linkReferences": {},
  "deployedLinkReferences": {}
}